:020000040800F2
:100000000080012031090008B9080008BF08000875
:10001000C5080008CB080008D1080008000000004F
:10002000000000000000000000000000D7080008E9
:10003000E508000800000000F308000801090008B6
:100040008109000881090008810900088109000868
:100050008109000881090008810900088109000858
:100060008109000881090008810900088109000848
:100070008109000881090008810900088109000838
:1000800081090008810900088109000800000000BA
:1000900000000000000000000000000081090008CE
:1000A0008109000881090008810900088109000808
:1000B00081090008810900088109000881090008F8
:1000C00081090008810900088109000881090008E8
:1000D000810900088109000881090008000000006A
:1000E000810900088109000881090008000000005A
:1000F000000000000000000000000000810900086E
:100100000000000081090008810900088109000839
:1001100000000000000000000000000000000000DF
:100120008109000881090008810900088109000887
:10013000810900080000000000000000000000002D
:10014000000000000000000000000000810900081D
:100150008109000881090008810900088109000857
:10016000810900088109000800000000000000006B
:10017000000000000000000000000000000000007F
:1001800000000000810900080000000000000000DD
:0401900081090008D9
:1001940010B5054C237833B9044B13B10448AFF3BD
:1001A40000800123237010BD0C000020000000001B
:1001B4004C23000808B5034B1BB103490348AFF3B4
:1001C400008008BD00000000100000204C2300083F
:1001D40053B94AB9002908BF00281CBF4FF0FF31AA
:1001E4004FF0FF3000F074B9ADF1080C6DE904CEA6
:1001F40000F006F8DDF804E0DDE9022304B07047FE
:100204002DE9F047089D04468E46002B4DD18A42C5
:10021400944669D9B2FA82F252B101FA02F3C2F1F8
:10022400200120FA01F10CFA02FC41EA030E944089
:100234004FEA1C48210CBEFBF8F61FFA8CF708FBAA
:1002440016E341EA034306FB07F199420AD91CEB82
:10025400030306F1FF3080F01F81994240F21C81B4
:10026400023E63445B1AA4B2B3FBF8F008FB1033FC
:1002740044EA034400FB07F7A7420AD91CEB040431
:1002840000F1FF3380F00A81A74240F20781644401
:10029400023840EA0640E41B00261DB1D440002386
:1002A400C5E900433146BDE8F0878B4209D9002DEA
:1002B40000F0EF800026C5E9000130463146BDE874
:1002C400F087B3FA83F6002E4AD18B4202D38242DE
:1002D40000F2F980841A61EB030301209E46002D8D
:1002E400E0D0C5E9004EDDE702B9FFDEB2FA82F2E2
:1002F400002A40F09280A1EB0C014FEA1C471FFA40
:100304008CFE0126200CB1FBF7F307FB131140EA26
:1003140001410EFB03F0884208D91CEB010103F1F3
:10032400FF3802D2884200F2CB804346091AA4B2B5
:10033400B1FBF7F007FB101144EA01440EFB00FE89
:10034400A64508D91CEB040400F1FF3102D2A645EE
:1003540000F2BB800846A4EB0E0440EA03409CE78D
:10036400C6F12007B34022FA07FC4CEA030C20FA3A
:1003740007F401FA06F31C43F9404FEA1C4900FA5A
:1003840006F3B1FBF9F8200C1FFA8CFE09FB1811D7
:1003940040EA014108FB0EF0884202FA06F20BD94A
:1003A4001CEB010108F1FF3A80F08880884240F29A
:1003B4008580A8F102086144091AA4B2B1FBF9F0DE
:1003C40009FB101144EA014100FB0EFE8E4508D9D9
:1003D4001CEB010100F1FF346CD28E456AD902385E
:1003E400614440EA0840A0FB0294A1EB0E01A14243
:1003F400C846A64656D353D05DB1B3EB080261EBB1
:100404000E0101FA07F722FA06F3F1401F43C5E98A
:10041400007100263146BDE8F087C2F12003D840C0
:100424000CFA02FC21FA03F3914001434FEA1C4702
:100434001FFA8CFEB3FBF7F007FB10360B0C43EAF4
:10044400064300FB0EF69E4204FA02F408D91CEBA4
:10045400030300F1FF382FD29E422DD902386344A2
:100464009B1B89B2B3FBF7F607FB163341EA034142
:1004740006FB0EF38B4208D91CEB010106F1FF3891
:1004840016D28B4214D9023E6144C91A46EA004688
:1004940038E72E46284605E70646E3E61846F8E61A
:1004A4004B45A9D2B9EB020864EB0C0E0138A3E763
:1004B4004646EAE7204694E74046D1E7D0467BE744
:1004C400023B614432E7304609E76444023842E7BC
:1004D400704700BF80B500AF00F052FA00F016F884
:1004E40000F0CCF800F072F800F09EF84FF0FF3303
:1004F40007220449044801F086FB642000F0B2FAA4
:10050400F4E700BF642300087C00002080B594B0A9
:1005140000AF07F1200330220021184601F00CFF40
:1005240007F10C0300221A605A609A60DA601A61BB
:100534000023BB60234B1B6C224A43F0805313649B
:10054400204B1B6C03F08053BB60BB6800237B60B3
:100554001D4B1B6823F440431B4A43F400431360C0
:10056400194B1B6803F440437B607B6802233B62A6
:100574000123FB6210233B630023BB6307F12003C9
:10058400184600F05BFE0346002B01D000F0D4F8BF
:100594000F23FB6000233B6100237B614FF48053F6
:1005A400BB610023FB6107F10C030021184601F035
:1005B400BDF80346002B01D000F0BEF800BF503751
:1005C400BD4680BD003802400070004080B500AFD9
:1005D400124B134A1A60114B124A5A600F4B0022F5
:1005E4009A600E4B0022DA600C4B4FF480421A6181
:1005F4000A4B00225A61094B00229A61074B0022E0
:10060400DA61064B00221A62044800F0D3FC034668
:10061400002B01D000F090F800BF80BD280000201E
:1006240000540040A086010080B500AF114B124A6F
:100634001A60104B4FF416525A600E4B00229A6007
:100644000C4B0022DA600B4B00221A61094B0C227E
:100654005A61084B00229A61064B0022DA61054870
:1006640001F084FA0346002B01D000F065F800BFC6
:1006740080BD00BF7C0000200044004080B58AB0EB
:1006840000AF07F1140300221A605A609A60DA601E
:100694001A6100233B61264B1B6B254A43F004037C
:1006A4001363234B1B6B03F004033B613B6900237F
:1006B400FB601F4B1B6B1E4A43F0800313631C4BF0
:1006C4001B6B03F08003FB60FB680023BB60184BCB
:1006D4001B6B174A43F001031363154B1B6B03F0A9
:1006E4000103BB60BB6800237B60114B1B6B104A8A
:1006F40043F0020313630E4B1B6B03F002037B6096
:100704007B68002203210B4800F03AFC03237B6141
:100714000123BB610023FB6100233B6207F1140347
:100724001946044800F0A8FA00BF2837BD4680BD2A
:10073400003802400000024080B400AF72B600BF2F
:10074400FEE7000080B483B000AF00237B60104B51
:100754005B6C0F4A43F4804353640D4B5B6C03F4AE
:1007640080437B607B6800233B60094B1B6C084A19
:1007740043F080531364064B1B6C03F080533B60BF
:100784003B6800BF0C37BD465DF8047B704700BF73
:100794000038024080B58AB000AF786007F11403D6
:1007A40000221A605A609A60DA601A617B681B68DA
:1007B400194A93422BD100233B61184B1B6B174AF8
:1007C40043F002031363154B1B6B03F002033B61FD
:1007D4003B69C0237B611223BB610023FB610323BC
:1007E4003B6204237B6207F1140319460C4800F0B2
:1007F40043FA0023FB60094B1B6C084A43F40013C3
:100804001364064B1B6C03F40013FB60FB6800BF0E
:100814002837BD4680BD00BF005400400038024068
:100824000004024080B58AB000AF786007F1140379
:1008340000221A605A609A60DA601A617B681B6849
:10084400194A93422BD100233B61184B1B6C174A66
:1008540043F400331364154B1B6C03F400333B6106
:100864003B690023FB60114B1B6B104A43F00103EF
:1008740013630E4B1B6B03F00103FB60FB680C233B
:100884007B610223BB610023FB6103233B620723DB
:100894007B6207F114031946054800F0EDF900BF27
:1008A4002837BD4680BD00BF0044004000380240E8
:1008B4000000024080B400AFFEE780B400AFFEE762
:1008C40080B400AFFEE780B400AFFEE780B400AFB1
:1008D400FEE780B400AF00BFBD465DF8047B7047FF
:1008E40080B400AF00BFBD465DF8047B704780B4A0
:1008F40000AF00BFBD465DF8047B704780B500AF14
:1009040000F090F800BF80BD80B400AF064BD3F870
:100914008830054A43F47003C2F8883000BFBD46EE
:100924005DF8047B704700BF00ED00E0DFF834D0D1
:100934000D480E490E4A002302E0D458C450043333
:10094400C4188C42F9D30B4A0B4C002301E013600A
:100954000432A242FBD3FFF7D7FF01F0C9FCFFF733
:10096400B9FD704700800120000000200C00002029
:10097400942300080C000020C4000020FEE70000BF
:1009840080B500AF0E4B1B680D4A43F4007313602F
:100994000B4B1B680A4A43F480631360084B1B68C3
:1009A400074A43F480731360032000F031F90F20E9
:1009B40000F008F8FFF7C6FE0023184680BD00BF0C
:1009C400003C024080B582B000AF7860124B1A68D8
:1009D400124B1B7819464FF47A73B3FBF1F3B2FB55
:1009E400F3F3184600F03BF90346002B01D0012332
:1009F4000EE07B680F2B0AD8002279684FF0FF3095
:100A040000F011F9064A7B681360002300E001231B
:100A140018460837BD4680BD0000002008000020AD
:100A24000400002080B400AF064B1B781A46064B26
:100A34001B681344044A136000BFBD465DF8047B81
:100A4400704700BF08000020C000002080B400AF41
:100A5400034B1B681846BD465DF8047B704700BF16
:100A6400C000002080B584B000AF7860FFF7EEFFCF
:100A7400B8607B68FB60FB68B3F1FF3F05D00A4BAD
:100A84001B781A46FB681344FB6000BFFFF7DEFFC8
:100A94000246BB68D31AFA689A42F7D800BF00BF6F
:100AA4001037BD4680BD00BF0800002080B485B06B
:100AB40000AF78607B6803F00703FB600C4BDB68D6
:100AC400BB60BA684FF6FF031340BB60FB681A02B1
:100AD400BB68134343F0BF6343F40033BB60044A71
:100AE400BB68D36000BF1437BD465DF8047B704714
:100AF40000ED00E080B400AF044BDB681B0A03F098
:100B040007031846BD465DF8047B704700ED00E01E
:100B140080B483B000AF03463960FB7197F90730A6
:100B2400002B0ADB3B68DAB20C4997F90730120153
:100B3400D2B20B4483F800230AE03B68DAB20849D6
:100B4400FB7903F00F03043B1201D2B20B441A7673
:100B540000BF0C37BD465DF8047B704700E100E040
:100B640000ED00E080B489B000AFF860B9607A604D
:100B7400FB6803F00703FB61FB69C3F10703042B64
:100B840028BF0423BB61FB690433062B02D9FB692C
:100B9400033B00E000237B614FF0FF32BB6902FAA4
:100BA40003F3DA43BB681A407B699A404FF0FF3184
:100BB4007B6901FA03F3D9437B680B40134318465E
:100BC4002437BD465DF8047B7047000080B582B0D1
:100BD40000AF78607B68013BB3F1807F01D30123D0
:100BE4000FE00A4A7B68013B53600F214FF0FF304E
:100BF400FFF78EFF054B00229A60044B07221A6010
:100C0400002318460837BD4680BD00BF10E000E051
:100C140080B582B000AF78607868FFF747FF00BF07
:100C24000837BD4680BD80B586B000AF0346B960C5
:100C34007A60FB7300237B61FFF75CFF78617A685D
:100C4400B9687869FFF78EFF024697F90F301146AD
:100C54001846FFF75DFF00BF1837BD4680BD80B55D
:100C640082B000AF78607868FFF7B0FF034618469B
:100C74000837BD4680BD000080B489B000AF7860FD
:100C8400396000237B6100233B610023BB610023A7
:100C9400FB6159E10122FB6902FA03F37B613B68C2
:100CA4001B687A6913403B613A697B699A4240F058
:100CB40048813B685B6803F00303012B05D03B6864
:100CC4005B6803F00303022B30D17B689B68BB6134
:100CD400FB695B00032202FA03F3DB43BA691340A6
:100CE400BB613B68DA68FB695B0002FA03F3BA692B
:100CF4001343BB617B68BA699A607B685B68BB61BC
:100D04000122FB6902FA03F3DB43BA691340BB61B6
:100D14003B685B681B0903F00102FB6902FA03F3F9
:100D2400BA691343BB617B68BA695A603B685B6804
:100D340003F00303032B17D07B68DB68BB61FB69FB
:100D44005B00032202FA03F3DB43BA691340BB617D
:100D54003B689A68FB695B0002FA03F3BA691343C0
:100D6400BB617B68BA69DA603B685B6803F00303C4
:100D7400022B23D1FB69DA087B68083253F822304E
:100D8400BB61FB6903F007039B000F2202FA03F324
:100D9400DB43BA691340BB613B681A69FB6903F022
:100DA40007039B0002FA03F3BA691343BB61FB69AF
:100DB400DA087B680832B96943F822107B681B683B
:100DC400BB61FB695B00032202FA03F3DB43BA69EC
:100DD4001340BB613B685B6803F00302FB695B0083
:100DE40002FA03F3BA691343BB617B68BA691A60F8
:100DF4003B685B6803F44033002B00F0A2800023BF
:100E0400FB60574B5B6C564A43F480435364544B2A
:100E14005B6C03F48043FB60FB68524AFB699B08EC
:100E2400023352F82330BB61FB6903F003039B00D8
:100E34000F2202FA03F3DB43BA691340BB617B68F8
:100E4400494A934219D07B68484A934213D07B683D
:100E5400474A93420DD07B68464A934207D07B6849
:100E6400454A934201D1042308E0072306E0032303
:100E740004E0022302E0012300E00023FA6902F007
:100E8400030292009340BA691343BB613549FB697D
:100E94009B080233BA6941F82320384B9B68BB6135
:100EA4003B69DB43BA691340BB613B685B6803F48D
:100EB4008013002B03D0BA693B691343BB612F4AEB
:100EC400BB6993602D4BDB68BB613B69DB43BA694B
:100ED4001340BB613B685B6803F40013002B03D031
:100EE400BA693B691343BB61244ABB69D360234B92
:100EF4005B68BB613B69DB43BA691340BB613B6818
:100F04005B6803F40033002B03D0BA693B691343D5
:100F1400BB611A4ABB695360184B1B68BB613B69D0
:100F2400DB43BA691340BB613B685B6803F48033FD
:100F3400002B03D0BA693B691343BB610F4ABB69F9
:100F44001360FB690133FB61FB690F2B7FF6A2AED3
:100F540000BF00BF2437BD465DF8047B704700BF67
:100F64000038024000380140000002400004024002
:100F740000080240000C024000100240003C014006
:100F840080B483B000AF78600B467B8013467B70DF
:100F94007B78002B03D07A887B689A6103E07B8896
:100FA4001A047B689A6100BF0C37BD465DF8047B68
:100FB4007047000080B584B000AF78607B68002B78
:100FC40001D101232BE17B6893F83D30DBB2002B88
:100FD40006D17B68002283F83C207868FFF7DAFBAF
:100FE4007B68242283F83D207B681B681A687B6831
:100FF4001B6822F001021A607B681B681A687B6810
:101004001B6842F400421A607B681B681A687B689C
:101014001B6822F400421A6000F080FDF8607B68CF
:101024005B68814A934207D8FB68804A934294BF25
:1010340001230023DBB206E0FB687D4A934294BFA0
:1010440001230023DBB2002B01D00123E7E0FB687E
:10105400784AA2FB03239B0CBB607B681B685B681C
:1010640023F03F017B681B68BA680A435A607B68B7
:101074001B681B6A23F03F017B685B686A4A9342E2
:1010840002D8BB68013309E0BB684FF4967202FBD7
:1010940003F3694AA2FB03239B0901337A681268AC
:1010A4000B4313627B681B68DB6923F44F4222F015
:1010B400FF027B685B685C498B4219D8FB68591E48
:1010C4007B685B685B00B1FBF3F3591C40F6FC736F
:1010D4000B40002B0AD0FB68591E7B685B685B00E1
:1010E400B1FBF3F30133C3F30B0351E004234FE0EB
:1010F4007B689B68002B11D1FB68581E7B6859687C
:101104000B465B000B44B0FBF3F30133C3F30B0357
:10111400002B0CBF01230023DBB212E0FB68581E36
:101124007B6859680B469B000B4499000B44B0FB49
:10113400F3F30133C3F30B03002B0CBF0123002390
:10114400DBB2002B01D0012322E07B689B68002BDB
:101154000ED1FB68581E7B6859680B465B000B4434
:10116400B0FBF3F30133C3F30B0343F400430FE089
:10117400FB68581E7B6859680B469B000B4499001A
:101184000B44B0FBF3F30133C3F30B0343F44043C9
:10119400796809681343CB617B681B681B6823F07B
:1011A400C0017B68DA697B681B6A1A437B681B6829
:1011B4000A431A607B681B689B6823F4034323F08B
:1011C400FF037A6811697A68D26811437A681268F1
:1011D4000B4393607B681B68DB6823F0FF017B682B
:1011E4005A697B689B691A437B681B680A43DA6007
:1011F4007B681B681A687B681B6842F001021A60EE
:101204007B6800221A647B68202283F83D207B6877
:1012140000221A637B68002283F83E2000231846CC
:101224001037BD4680BD00BFA08601007F841E002C
:10123400FF083D0083DE1B43D34D621080B586B0AA
:1012440000AF78607B68002B01D1012367E27B68E3
:101254001B6803F00103002B75D0884B9B6803F0D7
:101264000C03042B0CD0854B9B6803F00C03082B58
:1012740012D1824B5B6803F48003B3F5800F0BD16A
:101284007E4B1B6803F40033002B5BD07B685B68E8
:10129400002B57D1012342E27B685B68B3F5803FA2
:1012A40006D1764B1B68754A43F4803313601DE006
:1012B4007B685B68B3F5A02F0CD1704B1B686F4A39
:1012C40043F4802313606D4B1B686C4A43F48033F2
:1012D40013600BE0694B1B68684A23F48033136086
:1012E400664B1B68654A23F4802313607B685B6844
:1012F400002B13D0FFF7AAFB386108E0FFF7A6FB29
:1013040002463B69D31A642B01D9032307E25B4BE2
:101314001B6803F40033002BF0D014E0FFF796FBB6
:10132400386108E0FFF792FB02463B69D31A642B4D
:1013340001D90323F3E1514B1B6803F40033002B61
:10134400F0D100E000BF7B681B6803F00203002BB0
:1013540063D04A4B9B6803F00C03002B0BD0474B24
:101364009B6803F00C03082B1CD1444B5B6803F40B
:101374008003002B16D1414B1B6803F00203002BA2
:1013840005D07B68DB68012B01D00123C7E13B4B0F
:101394001B6823F0F8027B681B69DB0037491343A1
:1013A4000B603AE07B68DB68002B20D0344B0122D1
:1013B4001A60FFF74BFB386108E0FFF747FB024672
:1013C4003B69D31A022B01D90323A8E12B4B1B68D9
:1013D40003F00203002BF0D0284B1B6823F0F80223
:1013E4007B681B69DB00254913430B6015E0244B24
:1013F40000221A60FFF72AFB386108E0FFF726FB9A
:1014040002463B69D31A022B01D9032387E11B4B04
:101414001B6803F00203002BF0D17B681B6803F008
:101424000803002B36D07B685B69002B16D0154B64
:1014340001221A60FFF70AFB386108E0FFF706FB98
:1014440002463B69D31A022B01D9032367E10B4BF4
:101454005B6F03F00203002BF0D01BE0094B00226A
:101464001A60FFF7F3FA38610EE0FFF7EFFA02466D
:101474003B69D31A022B07D9032350E100380240F9
:1014840000004742800E4742884B5B6F03F0020323
:10149400002BEAD17B681B6803F00403002B00F0E7
:1014A40097800023FB75814B1B6C03F08053002B4A
:1014B4000FD10023BB607D4B1B6C7C4A43F08053EF
:1014C40013647A4B1B6C03F08053BB60BB6801232D
:1014D400FB75774B1B6803F48073002B18D1744B96
:1014E4001B68734A43F480731360FFF7AFFA3861E3
:1014F40008E0FFF7ABFA02463B69D31A022B01D985
:1015040003230CE16A4B1B6803F48073002BF0D0B7
:101514007B689B68012B06D1644B1B6F634A43F0C5
:10152400010313671CE07B689B68052B0CD15F4BA0
:101534001B6F5E4A43F0040313675C4B1B6F5B4AEB
:1015440043F0010313670BE0584B1B6F574A23F01A
:1015540001031367554B1B6F544A23F004031367AD
:101564007B689B68002B15D0FFF770FA38610AE09E
:10157400FFF76CFA02463B69D31A41F28832934270
:1015840001D90323CBE0494B1B6F03F00203002B6B
:10159400EED014E0FFF75AFA38610AE0FFF756FA82
:1015A40002463B69D31A41F28832934201D903239C
:1015B400B5E03E4B1B6F03F00203002BEED1FB7D25
:1015C400012B05D1394B1B6C384A23F0805313642B
:1015D4007B689B69002B00F0A180344B9B6803F06F
:1015E4000C03082B5CD07B689B69022B41D1314BE7
:1015F40000221A60FFF72AFA386108E0FFF726FA9A
:1016040002463B69D31A022B01D9032387E0274BF7
:101614001B6803F00073002BF0D17B68DA697B68E8
:101624001B6A1A437B685B6A9B011A437B689B6A4B
:101634005B08013B1B041A437B68DB6A1B061B49DE
:1016440013434B601B4B01221A60FFF7FFF938610B
:1016540008E0FFF7FBF902463B69D31A022B01D9D4
:1016640003235CE0114B1B6803F00073002BF0D0E4
:1016740054E0104B00221A60FFF7E8F9386108E0E3
:10168400FFF7E4F902463B69D31A022B01D903237D
:1016940045E0064B1B6803F00073002BF0D13DE0DE
:1016A4007B689B69012B07D1012338E00038024095
:1016B40000700040600047421B4B5B68FB607B6826
:1016C4009B69012B28D0FB6803F480027B68DB69EB
:1016D4009A4221D1FB6803F03F027B681B6A9A425D
:1016E4001AD1FA6847F6C07313407A68526A9201B5
:1016F400934211D1FB6803F440327B689B6A5B0818
:10170400013B1B049A4207D1FB6803F070627B68BB
:10171400DB6A1B069A4201D0012300E0002318462D
:101724001837BD4680BD00BF0038024080B584B084
:1017340000AF786039607B68002B01D10123CCE0D5
:10174400684B1B6803F007033A689A420CD9654B4F
:101754003A68D2B21A70634B1B6803F007033A6805
:101764009A4201D00123B8E07B681B6803F00203AE
:10177400002B20D07B681B6803F00403002B05D0EA
:10178400594B9B68584A43F4E05393607B681B6849
:1017940003F00803002B05D0534B9B68524A43F4D3
:1017A40060439360504B9B6823F0F0027B689B6816
:1017B4004D4913438B607B681B6803F00103002BC6
:1017C40044D07B685B68012B07D1474B1B6803F44B
:1017D4000033002B19D101237FE07B685B68022B67
:1017E40003D07B685B68032B07D13F4B1B6803F076
:1017F4000073002B09D101236FE03B4B1B6803F0FE
:101804000203002B01D1012367E0374B9B6823F0CF
:1018140003027B685B68344913438B60FFF716F956
:10182400F8600AE0FFF712F90246FB68D31A41F2A6
:101834008832934201D903234FE02B4B9B6803F07A
:101844000C027B685B689B009A42EBD1254B1B68BA
:1018540003F007033A689A420CD2224B3A68D2B298
:101864001A70204B1B6803F007033A689A4201D0B0
:10187400012332E07B681B6803F00403002B08D0CB
:10188400194B9B6823F4E0527B68DB6816491343C9
:101894008B607B681B6803F00803002B09D0124B94
:1018A4009B6823F460427B681B69DB000E49134389
:1018B4008B6000F021F802460B4B9B681B0903F078
:1018C4000F030A49CB5C22FA03F3094A1360094B5C
:1018D4001B681846FFF776F8002318461037BD46F4
:1018E40080BD00BF003C0240003802406C23000869
:1018F40000000020040000202DE9B04F94B000AF98
:1019040000237B640023FB6400233B640023BB644B
:10191400794B9B6803F00C03082B0DD0082B00F2C5
:10192400E180002B02D0042B03D0DBE0734BBB64BB
:10193400DBE0734BBB64D8E06F4B5B6803F03F03A1
:101944007B646D4B5B6803F48003002B63D06A4BAC
:101954005B689B090022BB63FA63BB6BC3F3080398
:101964003B6300237B63D7E90C4522462B464FF0AB
:1019740000004FF00001590141EAD26150010246D2
:101984000B462146511A3961294663EB01037B61F9
:101994004FF000024FF00003D7E904AB59468B0126
:1019A400514643EA916351468A015146B2EB01081C
:1019B400594663EB01094FF000024FF000034FEA70
:1019C400C90343EA58734FEAC8029046994623462E
:1019D40018EB0303BB602B4649EB0303FB604FF09A
:1019E40000024FF00003D7E9024529464B02214685
:1019F40043EAD15321464A02104619467B6C002221
:101A0400BB62FA62D7E90A23FEF7E2FB02460B4601
:101A14001346FB6458E0384B5B689B090022184668
:101A24001146C0F308033B6200237B62D7E90889AF
:101A340042464B464FF000004FF00001590141EA85
:101A4400D261500102460B464146B2EB010A4946B7
:101A540063EB010B4FF000024FF000034FEA8B13CE
:101A640043EA9A634FEA8A12B2EB0A0463EB0B056A
:101A74004FF000024FF00003EB0043EA5473E2001E
:101A840014461D464346E3183B604B4645EB0303AF
:101A94007B604FF000024FF00003D7E90045294670
:101AA4008B02214643EA915321468A021046194685
:101AB4007B6C0022BB61FA61D7E90623FEF788FB41
:101AC40002460B461346FB640B4B5B681B0C03F08E
:101AD400030301335B003B64FA6C3B6CB2FBF3F32E
:101AE400BB6402E0054BBB6400BFBB6C18465037B7
:101AF400BD46BDE8B08F00BF003802400024F400AA
:101B040000127A0080B400AF034B1B681846BD4630
:101B14005DF8047B704700BF0000002080B500AF73
:101B2400FFF7F0FF0246054B9B689B0A03F007038F
:101B34000349CB5C22FA03F3184680BD0038024007
:101B44007C23000880B500AFFFF7DCFF0246054B9D
:101B54009B685B0B03F007030349CB5C22FA03F396
:101B6400184680BD003802407C23000880B582B04E
:101B740000AF78607B68002B01D101233FE07B68D4
:101B840093F83D30DBB2002B06D17B68002283F84A
:101B94003C207868FEF746FE7B68242283F83D20CB
:101BA4007B681B68DA687B681B6822F40052DA6081
:101BB400786800F029F97B681B681A697B681B68E0
:101BC40022F490421A617B681B685A697B681B681F
:101BD40022F02A025A617B681B68DA687B681B68FA
:101BE40042F40052DA607B6800221A647B68202287
:101BF40083F83D207B68202283F83E20002318468A
:101C04000837BD4680BD80B58AB002AFF860B960C0
:101C14003B601346FB8000237B61FB6893F83D30F7
:101C2400DBB2202B7CD1BB68002B02D0FB88002BBD
:101C340001D1012375E0FB6893F83C30012B01D1FD
:101C440002236EE0FB68012283F83C20FB6800223B
:101C54001A64FB68212283F83D20FEF7F7FE7861C1
:101C6400FB68FA889A84FB68FA88DA84FB689B68C4
:101C7400B3F5805F08D1FB681B69002B04D10023F6
:101C8400FB61BB68BB6103E0BB68FB610023BB6114
:101C9400FB68002283F83C202AE03B6800937B69C0
:101CA40000228021F86800F040F80346002B01D0A0
:101CB400032336E0FB69002B0BD1BB691B881A4652
:101CC400FB681B68C2F308025A60BB690233BB613C
:101CD40007E0FB691A78FB681B685A60FB690133EB
:101CE400FB61FB68DB8C9BB2013B9AB2FB68DA8434
:101CF400FB68DB8C9BB2002BCFD13B6800937B69E4
:101D040000224021F86800F010F80346002B01D0AF
:101D1400032306E0FB68202283F83D20002300E033
:101D2400022318462037BD4680BD80B590B000AF71
:101D3400F860B9603B601346FB7150E0BB6CB3F1D3
:101D4400FF3F4CD0BB6C002B07D0FEF77FFE024652
:101D54003B68D31ABA6C9A4241D2FB681B680C33B5
:101D6400BB62BB6A53E8003F7B627B6A23F4D07397
:101D7400FB63FB681B680C33FA6B7A633B63396B58
:101D84007A6B41E80023FB62FB6A002BE5D1FB6818
:101D94001B6814337B617B6953E8003F3B613B69FB
:101DA40023F00103BB63FB681B681433BA6B3A620C
:101DB400FB61F9693A6A41E80023BB61BB69002B06
:101DC400E5D1FB68202283F83D20FB68202283F8BC
:101DD4003E20FB68002283F83C2003230FE0FB68CD
:101DE4001B681A68BB681340BA689A420CBF012387
:101DF4000023DBB21A46FB799A429FD0002318468F
:101E04004037BD4680BD00002DE9B04FC0B000AFE3
:101E1400C7F8F400D7F8F4301B681B6923F440506A
:101E2400D7F8F430D968D7F8F4301A6840EA0103D7
:101E34001361D7F8F4309A68D7F8F4301B691A4361
:101E4400D7F8F4305B691A43D7F8F430DB691343ED
:101E5400C7F8F830D7F8F4301B68DB6823F4164170
:101E640021F00C01D7F8F4301A68D7F8F8300B4396
:101E7400D360D7F8F4301B685B6923F44070D7F85B
:101E8400F4309969D7F8F4301A6840EA01035361D1
:101E9400D7F8F4301A688F4B9A4205D0D7F8F4304B
:101EA4001A688D4B9A4204D1FFF74CFEC7F8FC0028
:101EB40003E0FFF733FEC7F8FC00D7F8F430DB6922
:101EC400B3F5004F40F00C81D7F8FC300022C7F87E
:101ED400E830C7F8EC20D7E93A4522462B4691185A
:101EE400B9655B41FB65D7E91623214612EB01086E
:101EF400294643EB01094FF000024FF000034FEA7B
:101F0400C90343EA58734FEAC802904699462346E8
:101F140018EB0303C7F8E0302B4649EB0303C7F87B
:101F2400E430D7F8F4305B680022C7F8D830C7F83B
:101F3400DC20D7E936120B46DB183B65134642EB2F
:101F440003037B65D7E91423D7E93801FEF740F989
:101F540002460B46614BA3FB02235B091C01D7F825
:101F6400FC300022C7F8D030C7F8D420D7E9348930
:101F740042464B469118B9645B41FB64D7E912238E
:101F8400414612EB010A494643EB010B4FF00002B4
:101F94004FF000034FEACB0343EA5A734FEACA02F5
:101FA40092469B4643461AEB0303C7F8C8304B4698
:101FB4004BEB0303C7F8CC30D7F8F4305B6800224E
:101FC400C7F8C030C7F8C420D7E930120B46DB1875
:101FD4003B64134642EB03037B64D7E91023D7E940
:101FE4003201FEF7F5F802460B4611463B4BA3FBC4
:101FF40001235B09642202FB03F3CB1ADB0003F128
:102004003202364BA3FB02235B095B0003F4F87333
:102014001C44D7F8FC300022C7F8B830C7F8BC20FD
:10202400D7E92E8942464B469118B9635B41FB635D
:10203400D7E90E2341465118396349464B417B6326
:102044004FF000024FF00003D7E90CAB5946CB0028
:10205400514643EA51735146CA0010461946034695
:1020640042469B18C7F8B0304B460A4642EB03037E
:10207400C7F8B430D7F8F4305B680022C7F8A8304A
:10208400C7F8AC20D7E92A120B46DB18BB6213460B
:1020940042EB0303FB62D7E90A23D7E92C01FEF7DD
:1020A40097F802460B460D4BA3FB02135B09642110
:1020B40001FB03F3D31ADB003233084AA2FB0323E8
:1020C4005B0903F00702D7F8F4301B6822449A60D6
:1020D40005E100BF00100140001401401F85EB51D1
:1020E400D7F8FC300022C7F8A030C7F8A420D7E9FD
:1020F400288942464B46911839625B417B62D7E995
:10210400082341465418494643EB01054FF00002A9
:102114004FF00003EB0043EA5473E20014461D46FB
:102124004346E318C7F898304B4645EB0303C7F81A
:102134009C30D7F8F4305B680022C7F89030C7F8B9
:1021440094204FF000024FF00003D7E924452946BC
:102154008B00214643EA917321468A00D7E9260180
:10216400FEF736F802460B46604BA3FB02235B09DD
:102174001C01D7F8FC300022C7F88830C7F88C203F
:10218400D7E9228942464B469118B9615B41FB610C
:10219400D7E9062341465118396149464B417B61D1
:1021A4004FF000024FF00003D7E904AB5946CB00CF
:1021B400514643EA51735146CA0010461946034634
:1021C40042469B18C7F880304B460A4642EB03034D
:1021D400C7F88430D7F8F4305B680022BB67FA672D
:1021E4004FF000024FF00003D7E91E8949468B00E7
:1021F400414643EA917341468A00D7E92001FDF73D
:10220400E7FF02460B46394BA3FB02135B0964212B
:1022140001FB03F3D31A1B013233344AA2FB032319
:102224005B0903F0F0031C44D7F8FC3000223B6741
:102234007A67D7E91C8942464B469118B9605B41DD
:10224400FB60D7E9022341465118396049464B41A6
:102254007B604FF000024FF00003D7E900AB594612
:10226400CB00514643EA51735146CA001046194601
:10227400034642469B18BB664B460A4642EB0303A1
:10228400FB66D7F8F4305B6800223B667A664FF051
:1022940000024FF00003D7E9188949468B004146F4
:1022A40043EA917341468A00D7E91A01FDF790FF8A
:1022B40002460B460D4BA3FB02135B09642101FB91
:1022C40003F3D31A1B013233084AA2FB03235B092D
:1022D40003F00F02D7F8F4301B6822449A6000BF61
:1022E40007F58077BD46BDE8B08F00BF1F85EB5171
:1022F40070B50D4D0D4C641BA4100026A64209D1E7
:102304000B4D0C4C00F020F8641BA4100026A642D0
:1023140005D170BD55F8043B98470136EEE755F8F2
:10232400043B98470136F2E78C2300088C2300080D
:102334008C2300089023000802440346934200D1F2
:10234400704703F8011BF9E7F8B500BFF8BC08BCF7
:102354009E467047F8B500BFF8BC08BC9E4670475F
:1023640048656C6C6F0D0A0000000000000000005E
:102374000102030406070809000000000102030427
:0823840080DEFF7F0100000074
:04238C00B90100088B
:0423900095010008AB
:0C2394000024F400100000000100000014
:0400000508000931B5
:00000001FF
