:020000040800F2
:1000000000500020C50D0008690D00086F0D0008A4
:10001000750D00087B0D0008810D00080000000030
:10002000000000000000000000000000870D000834
:10003000930D0008000000009F0D0008AB0D0008A4
:100040000D0E00080D0E00080D0E00080D0E000824
:100050000D0E00080D0E00080D0E00080D0E000814
:100060000D0E00080D0E00080D0E00080D0E000804
:100070000D0E00080D0E00080D0E00080D0E0008F4
:100080000D0E00080D0E00080D0E00080D0E0008E4
:100090000D0E00080D0E00080D0E00080D0E0008D4
:1000A0000D0E00080D0E00080D0E00080D0E0008C4
:1000B0000D0E00080D0E00080D0E00080D0E0008B4
:1000C0000D0E00080D0E00080D0E00080D0E0008A4
:1000D0000D0E00080D0E00080D0E00080D0E000894
:1000E0000D0E00080D0E00080D0E000800000000A7
:1000F0000000000000000000000000000000000000
:0C01000000000000000000005FF808F1A3
:10010C0010B5054C237833B9044B13B10448AFF345
:10011C0000800123237010BD24000020000000008B
:10012C000C21000808B5034B1BB103490348AFF37E
:10013C00008008BD00000000280000200C210008F1
:10014C0080B500AF00221021024801F049F900BF30
:10015C0080BD00BF0008014080B500AF0122102116
:10016C00024801F03DF900BF80BD00BF000801400E
:10017C0080B500AF00220121064801F031F90520BD
:10018C0000F0A2FE01220121024801F029F900BF72
:10019C0080BD00BF000C014080B582B000AF0346AB
:1001AC00FB7100220221074801F01AF9F91D4FF0EA
:1001BC00FF330122044801F08DFD00BF0837BD4616
:1001CC0080BD00BF000C01404000002080B584B011
:1001DC0000AF7860396001220221114801F000F96A
:1001EC0015E03B68B3F5004F28BF4FF40043FB818B
:1001FC00FA894FF0FF3379680A4801F06BFDFB89EF
:10020C007A6813447B60FB893A68D31A3B603B687D
:10021C00002BE6D100BF00BF1037BD4680BD00BF2C
:10022C00000C01404000002090B585B000AF0446A2
:10023C00084611461A462346FB800346BB800B46F4
:10024C007B8013463B802A20FFF7A6FFFB881B0A06
:10025C009BB2DBB23B73FB88DBB27B737B881B0AE4
:10026C009BB2DBB2BB737B88DBB2FB7307F10C0375
:10027C0004211846FFF7AAFF2B20FFF78DFFBB8840
:10028C001B0A9BB2DBB23B72BB88DBB27B723B8836
:10029C001B0A9BB2DBB2BB723B88DBB2FB7207F171
:1002AC00080304211846FFF791FF2C20FFF774FF79
:1002BC0000BF1437BD4690BD90B59BB000AFFFF7A3
:1002CC003FFFFFF755FF0120FFF766FF4FF47A70F1
:1002DC0000F0FAFDCB20FFF75FFF874A07F16003C0
:1002EC0092E8030018600433197007F160030521CC
:1002FC001846FFF76BFFCF20FFF74EFF7F4A07F141
:10030C005C031268114619800233120C1A7007F143
:10031C005C0303211846FFF759FFE820FFF73CFF69
:10032C00774A07F158031268114619800233120CF0
:10033C001A7007F1580303211846FFF747FFEA200C
:10034C00FFF72AFF0023A7F8543007F154030221CA
:10035C001846FFF73BFFED20FFF71EFF694B3B658F
:10036C0007F1500304211846FFF730FFF720FFF781
:10037C0013FF202387F84C3007F14C03012118465A
:10038C00FFF724FFC020FFF707FF232387F848302F
:10039C0007F1480301211846FFF718FFC120FFF7AA
:1003AC00FBFE102387F8443007F144030121184663
:1003BC00FFF70CFFC520FFF7EFFE42F63E03A7F850
:1003CC00403007F1400302211846FFF7FFFEC7201B
:1003DC00FFF7E2FE862387F83C3007F13C0301214E
:1003EC001846FFF7F3FE3620FFF7D6FE482387F8B2
:1003FC00383007F1380301211846FFF7E7FE3A20A1
:10040C00FFF7CAFE552387F8343007F13403012176
:10041C001846FFF7DBFEB120FFF7BEFE4FF4C053CA
:10042C003B8607F1300302211846FFF7CFFEB620BA
:10043C00FFF7B2FE344A07F12C03126811461980FB
:10044C000233120C1A7007F12C0303211846FFF724
:10045C00BDFEF220FFF7A0FE002387F8283007F13D
:10046C00280301211846FFF7B1FE2620FFF794FE62
:10047C00012387F8243007F1240301211846FFF7E4
:10048C00A5FEE020FFF788FE204B07F114040FCBEC
:10049C0007C4238002341B0C237007F114030F21B3
:1004AC001846FFF793FEE120FFF776FE184B3C1D34
:1004BC000FCB07C4238002341B0C23703B1D0F2170
:1004CC001846FFF783FE1120FFF766FE782000F038
:1004DC00FBFC2920FFF760FE3620FFF75DFE48236A
:1004EC003B703B4601211846FFF770FEFFF734FEC8
:1004FC0000BF6C37BD4690BD242100082C2100089C
:10050C0030210008640312813421000838210008CE
:10051C004821000880B584B000AF0346FB800B4631
:10052C00BB8013467B80FB88EF2B20D8BB88B3F5B0
:10053C00A07F1CD2FFF704FEFB8801339AB2BB8864
:10054C0001339BB2B988F888FFF76EFE7B881B0AD3
:10055C009BB2DBB23B737B88DBB27B7307F10C0382
:10056C0002211846FFF732FEFFF7F6FD00E000BF50
:10057C001037BD4680BD82B090B589B000AF7B63AB
:10058C000346FB800B46BB801346FB7097F8343058
:10059C009AB2FB8813449BB2013B9CB297F835305E
:1005AC009AB2BB8813449BB2013B9BB2B988F888C2
:1005BC002246FFF739FE0023FB6143E0BA6BFB7860
:1005CC00203B97F8351001FB03F31946FB690B44EC
:1005DC005B0013441B887B610023BB6129E07A69B3
:1005EC00BB6902FA03F303F40043002B0ED0BB8F5C
:1005FC001B0A9BB2DBB23B74BB8FDBB27B7407F183
:10060C00100302211846FFF7E1FD0FE0B7F8403068
:10061C001B0A9BB2DBB23B73B7F84030DBB27B7387
:10062C0007F10C0302211846FFF7D0FDBB6901331B
:10063C00BB6197F834301A46BB699342CFD3FB6940
:10064C000133FB6197F835301A46FB699342B5D3F9
:10065C0000BF00BF2437BD46BDE8904002B07047D4
:10066C0082B080B586B004AF3A607B610346FB80F4
:10067C000B46BB80FFF764FD2EE0FB883A7D1344EC
:10068C00EF2B14DD0023FB807B7D9AB2BB881344D7
:10069C00BB80BB887A7D1344B3F5A07F21DA3B681D
:1006AC001B78202B03D13B6801333B6014E03B6883
:1006BC001A78B988F8883B8C0293BB8B0193BB6981
:1006CC0000937B69FFF757FF3B7D9AB2FB8813447D
:1006DC00FB803B6801333B603B681B78002BCCD123
:1006EC0000E000BFFFF738FD00BF0837BD46BDE88E
:1006FC00804002B07047000090B585B000AF044652
:10070C00084611461A462346FB800346BB800B461F
:10071C007B8013463B80FB88EF2B53D8BB88B3F50B
:10072C00A07F4FD2FA887B881344F02B03DDFB8823
:10073C00C3F1F0037B80BA883B881344B3F5A07FE8
:10074C0003DDBB88C3F5A0733B80FFF7F9FCFA8887
:10075C007B8813449BB2013B9CB2BA883B88134400
:10076C009BB2013B9BB2B988F8882246FFF75CFD2F
:10077C003B8C1B0A9BB2DBB23B733B8CDBB27B73B7
:10078C0001220221114800F02BFE3B88BB8013E0B4
:10079C007B88FB800AE007F10C014FF0FF3302224B
:1007AC000B4801F097FAFB88013BFB80FB88002B80
:1007BC00F1D1BB88013BBB80BB88002BE8D1FFF794
:1007CC00CBFC00E000BF1437BD4690BD000C0140CF
:1007DC004000002080B584B002AF0346FB80FB884C
:1007EC0000934FF4A073F02200210020FFF784FF48
:1007FC0000BF0837BD4680BD80B582B000AF034650
:10080C00FB71FFF79DFCFB79002B01D0212300E04D
:10081C0020231846FFF7C0FCFFF79EFC00BF0837EB
:10082C00BD4680BD80B500AF01224FF48061024807
:10083C0000F0D6FD00BF80BD0008014080B500AFC0
:10084C00FFF78AFCFFF7EEFFFFF736FD00BF80BD18
:10085C0080B586B004AF0020FFF7BCFF00237B609F
:10086C0013E07B689BB24FF4784200211846FFF7E7
:10087C0051FE7B689BB24FF4784240F23F11184610
:10088C00FFF748FE7B6801337B607B68EF2BE8DD6C
:10089C0000233B6012E03B689BB24FF47842194650
:1008AC000020FFF737FE3B689BB24FF478421946A5
:1008BC00EF20FFF72FFE3B6801333B603B68B3F53D
:1008CC00A07FE8DB4FF47A7000F0FEFA0020FFF70F
:1008DC0081FF784B002202924FF4784201925A68C1
:1008EC0000921B68744A00210020FFF7B9FE734B7D
:1008FC00002202924FF4FC6201925A6800921B682B
:10090C006F4A1E210020FFF7ABFE6E4B00220292B5
:10091C001F2201925A6800921B686B4A3C210020EE
:10092C00FFF79EFE4FF47A7000F0CEFA0120FFF72D
:10093C0063FF4FF47A7000F0C7FA0020FFF75CFFFA
:10094C0041F2883000F0C0FA4FF6FF70FFF742FF1B
:10095C005A4B4FF6FF720292002201925A68009293
:10096C001B685A4A00210020FFF77AFE4FF4FA70F8
:10097C0000F0AAFA1F20FFF72DFF504B1F22029206
:10098C00002201925A6800921B68514A00210020F3
:10099C00FFF766FE4FF4FA7000F096FA4FF47840C9
:1009AC00FFF718FF454B4FF4784202920022019258
:1009BC005A6800921B68474A00210020FFF750FE3E
:1009CC004FF4FA7000F080FA4FF4FC60FFF702FF6E
:1009DC003A4B4FF4FC620292002201925A68009248
:1009EC001B683D4A00210020FFF73AFE4FF4FA70D5
:1009FC0000F06AFA40F2FF70FFF7ECFE2F4B40F26A
:100A0C00FF720292002201925A6800921B68334ACC
:100A1C0000210020FFF724FE4FF4FA7000F054FA86
:100A2C004FF61F00FFF7D6FE244B4FF61F02029223
:100A3C00002201925A6800921B68294A002100206A
:100A4C00FFF70EFE4FF4FA7000F03EFA4FF6E0702E
:100A5C00FFF7C0FE194B4FF6E07202920022019292
:100A6C005A6800921B681F4A00210020FFF7F8FD0E
:100A7C004FF4FA7000F028FA0020FFF7ABFE0F4B92
:100A8C00002202924FF6FF7201925A6800921B6884
:100A9C00154A00210020FFF7E3FD4FF4FA7000F037
:100AAC0013FA40F6B83000F00FFA00BF0837BD4615
:100ABC0080BD00BF00000020582100080800002065
:100ACC006C210008100000208021000894210008EF
:100ADC009C210008A4210008A8210008B0210008CE
:100AEC00B8210008C0210008C821000880B500AF5B
:100AFC0000F088F900F009F800F078F800F040F800
:100B0C00FFF79CFEFFF7A4FEFCE780B590B000AFAA
:100B1C0007F1180328220021184601F0E9FA3B1DC1
:100B2C0000221A605A609A60DA601A610223BB6173
:100B3C000123BB621023FB6200237B6307F11803C4
:100B4C00184600F065FC0346002B01D000F0A0F81D
:100B5C000F237B600023BB600023FB6000233B6101
:100B6C0000237B613B1D0021184600F0D3FE034699
:100B7C00002B01D000F08CF800BF4037BD4680BD83
:100B8C0080B500AF174B184A1A60164B4FF482729F
:100B9C005A60144B00229A60124B0022DA60114BFF
:100BAC0000221A610F4B00225A610E4B4FF4007257
:100BBC009A610C4B2822DA610A4B00221A62094B0B
:100BCC0000225A62074B00229A62064B0A22DA6212
:100BDC00044800F0FBFF0346002B01D000F058F84E
:100BEC0000BF80BD400000200030014080B586B0C1
:100BFC0000AF07F1080300221A605A609A60DA60AD
:100C0C00204B9B691F4A43F0040393611D4B9B6966
:100C1C0003F004037B607B681A4B9B69194A43F011
:100C2C0008039361174B9B6903F008033B603B6817
:100C3C0000221021144800F0D3FB0022032113489A
:100C4C0000F0CEFB1023BB600123FB6000233B6153
:100C5C0002237B6107F1080319460B4800F03CFAAC
:100C6C000323BB600123FB6000233B6102237B61F8
:100C7C0007F108031946054800F02EFA00BF183793
:100C8C00BD4680BD0010024000080140000C014030
:100C9C0080B400AF72B600BFFEE7000080B483B032
:100CAC0000AF0E4B9B690D4A43F0010393610B4B54
:100CBC009B6903F001037B607B68084BDB69074A87
:100CCC0043F08053D361054BDB6903F080533B60E9
:100CDC003B6800BF0C37BD4680BC7047001002401B
:100CEC0080B588B000AF786007F1100300221A605D
:100CFC005A609A60DA607B681B68154A934223D16C
:100D0C00144B9B69134A43F480539361114B9B69B9
:100D1C0003F48053FB60FB680E4B9B690D4A43F058
:100D2C00040393610B4B9B6903F00403BB60BB682A
:100D3C00A0233B6102237B610323FB6107F11003BA
:100D4C001946054800F0C8F900BF2037BD4680BDE4
:100D5C0000300140001002400008014080B400AF98
:100D6C00FEE780B400AFFEE780B400AFFEE780B4CE
:100D7C0000AFFEE780B400AFFEE780B400AF00BF69
:100D8C00BD4680BC704780B400AF00BFBD4680BC80
:100D9C00704780B400AF00BFBD4680BC704780B5C3
:100DAC0000AF00F075F800BF80BD80B400AF00BF8D
:100DBC00BD4680BC70470000FFF7F7FF0B480C499D
:100DCC000C4A002302E0D458C4500433C4188C429B
:100DDC00F9D3094A094C002301E013600432A24202
:100DEC00FBD301F061F9FFF781FE70470000002092
:100DFC0024000020104A0008240000209C00002041
:100E0C00FEE7000080B500AF084B1B68074A43F0B3
:100E1C0010031360032000F02BF90F2000F008F8EA
:100E2C00FFF73CFF0023184680BD00BF00200240A6
:100E3C0080B582B000AF7860124B1A68124B1B78E9
:100E4C0019464FF47A73B3FBF1F3B2FBF3F3184684
:100E5C0000F035F90346002B01D001230EE07B682E
:100E6C000F2B0AD8002279684FF0FF3000F00BF9F5
:100E7C00064A7B681360002300E0012318460837FC
:100E8C00BD4680BD18000020200000201C00002062
:100E9C0080B400AF054B1B781A46054B1B681344F6
:100EAC00034A136000BFBD4680BC70472000002081
:100EBC009800002080B400AF024B1B681846BD465A
:100ECC0080BC70479800002080B584B000AF78607B
:100EDC00FFF7F0FFB8607B68FB60FB68B3F1FF3F86
:100EEC0005D00A4B1B781A46FB681344FB6000BF05
:100EFC00FFF7E0FF0246BB68D31AFA689A42F7D8AC
:100F0C0000BF00BF1037BD4680BD00BF20000020D1
:100F1C0080B485B000AF78607B6803F00703FB609A
:100F2C000C4BDB68BB60BA684FF6FF031340BB6029
:100F3C00FB681A02BB68134343F0BF6343F40033EE
:100F4C00BB60044ABB68D36000BF1437BD4680BC8D
:100F5C00704700BF00ED00E080B400AF044BDB68CD
:100F6C001B0A03F007031846BD4680BC704700BF40
:100F7C0000ED00E080B483B000AF03463960FB7134
:100F8C0097F90730002B0ADB3B68DAB20C4997F96A
:100F9C0007301201D2B20B4483F800230AE03B68FD
:100FAC00DAB20849FB7903F00F03043B1201D2B209
:100FBC000B441A7600BF0C37BD4680BC704700BF8F
:100FCC0000E100E000ED00E080B489B000AFF86013
:100FDC00B9607A60FB6803F00703FB61FB69C3F13E
:100FEC000703042B28BF0423BB61FB690433062BC6
:100FFC0002D9FB69033B00E000237B614FF0FF3219
:10100C00BB6902FA03F3DA43BB681A407B699A4066
:10101C004FF0FF317B6901FA03F3D9437B680B4036
:10102C00134318462437BD4680BC704780B582B048
:10103C0000AF78607B68013BB3F1807F01D3012363
:10104C000FE00A4A7B68013B53600F214FF0FF30E1
:10105C00FFF790FF054B00229A60044B07221A60A1
:10106C00002318460837BD4680BD00BF10E000E0E5
:10107C0080B582B000AF78607868FFF749FF00BF99
:10108C000837BD4680BD80B586B000AF0346B96059
:10109C007A60FB7300237B61FFF75EFF78617A68EF
:1010AC00B9687869FFF790FF024697F90F3011463F
:1010BC001846FFF75FFF00BF1837BD4680BD80B5EF
:1010CC0082B000AF78607868FFF7B0FF034618462F
:1010DC000837BD4680BD000080B48BB000AF78608F
:1010EC00396000237B6200233B6269E101227B6A49
:1010FC0002FA03F3FB613B681B68FA691340BB619E
:10110C00BA69FB699A4240F058813B685B689A4A1D
:10111C0093425ED0984A934275D8984A934258D0DD
:10112C00964A93426FD8964A934252D0944A93422D
:10113C0069D8944A93424CD0924A934263D8924ACB
:10114C00934246D0904A93425DD8122B2AD8122B48
:10115C0059D801A252F823F0DF110008B911000888
:10116C00CB1100080D12000813120008131200080E
:10117C0013120008131200081312000813120008AF
:10118C00131200081312000813120008131200089F
:10119C00131200081312000813120008C1110008E2
:1011AC00D5110008794A934213D02CE03B68DB68D8
:1011BC003B6229E03B68DB6804333B6224E03B681C
:1011CC00DB6808333B621FE03B68DB680C333B6237
:1011DC001AE03B689B68002B02D104233B6213E0AE
:1011EC003B689B68012B05D108233B627B68FA693D
:1011FC001A6109E008233B627B68FA695A6103E0D3
:10120C0000233B6200E000BFBB69FF2B01D87B6869
:10121C0001E07B6804337B61BB69FF2B02D87B6ADE
:10122C009B0002E07B6A083B9B003B617B691A6870
:10123C000F213B6901FA03F3DB431A40396A3B691E
:10124C0001FA03F31A437B691A603B685B6803F08D
:10125C008053002B00F0B1804D4B9B694C4A43F0FE
:10126C00010393614A4B9B6903F00103BB60BB68AC
:10127C00484A7B6A9B08023352F82330FB607B6A36
:10128C0003F003039B000F2202FA03F3DB43FA681B
:10129C001340FB607B68404A934213D07B683F4A03
:1012AC0093420DD07B683E4A934207D07B683D4AFF
:1012BC00934201D1032306E0042304E0022302E05D
:1012CC00012300E000237A6A02F0030292009340AB
:1012DC00FA681343FB602F497B6A9B080233FA6858
:1012EC0041F823203B685B6803F48013002B06D085
:1012FC002D4B9A682C49BB6913438B6006E02A4B33
:10130C009A68BB69DB43284913408B603B685B6878
:10131C0003F40013002B06D0234BDA682249BB6977
:10132C001343CB6006E0204BDA68BB69DB431E49F4
:10133C001340CB603B685B6803F40033002B06D092
:10134C00194B5A681849BB6913434B6006E0164B9E
:10135C005A68BB69DB43144913404B603B685B68BC
:10136C0003F48033002B21D00F4B1A680E49BB6954
:10137C0013430B6021E000BF00003210000031105D
:10138C0000002210000021100000121000001110AB
:10139C00001002400000014000080140000C014018
:1013AC000010014000140140000401400B4B1A686E
:1013BC00BB69DB43094913400B607B6A01337B62D9
:1013CC003B681A687B6A22FA03F3002B7FF48EAE1B
:1013DC0000BF00BF2C37BD4680BC704700040140E5
:1013EC0080B483B000AF78600B467B8013467B7073
:1013FC007B78002B03D07A887B681A6103E07B88AA
:10140C001A047B681A6100BF0C37BD4680BC70475C
:10141C0080B586B000AF78607B68002B01D10123CA
:10142C0072E27B681B6803F00103002B00F08780DD
:10143C00924B5B6803F00C03042B0CD08F4B5B6856
:10144C0003F00C03082B12D18C4B5B6803F4803334
:10145C00B3F5803F0BD1894B1B6803F40033002B91
:10146C006CD07B685B68002B68D101234CE27B68F5
:10147C005B68B3F5803F06D1804B1B687F4A43F411
:10148C00803313602EE07B685B68002B0CD17B4BA8
:10149C001B687A4A23F480331360784B1B68774AB5
:1014AC0023F4802313601DE07B685B68B3F5A02FE9
:1014BC000CD1724B1B68714A43F4802313606F4B41
:1014CC001B686E4A43F4803313600BE06B4B1B6854
:1014DC006A4A23F480331360684B1B68674A23F411
:1014EC00802313607B685B68002B13D0FFF7E2FC52
:1014FC00386108E0FFF7DEFC02463B69D31A642B27
:10150C0001D9032300E25D4B1B6803F40033002B6D
:10151C00F0D014E0FFF7CEFC386108E0FFF7CAFC0E
:10152C0002463B69D31A642B01D90323ECE1534BDC
:10153C001B6803F40033002BF0D100E000BF7B6884
:10154C001B6803F00203002B63D04C4B5B6803F069
:10155C000C03002B0BD0494B5B6803F00C03082BDE
:10156C001CD1464B5B6803F48033002B16D1434BE4
:10157C001B6803F00203002B05D07B681B69012B51
:10158C0001D00123C0E13D4B1B6823F0F8027B68BE
:10159C005B69DB00394913430B603AE07B681B69DC
:1015AC00002B20D0364B01221A60FFF783FC3861E8
:1015BC0008E0FFF77FFC02463B69D31A022B01D9E6
:1015CC000323A1E12D4B1B6803F00203002BF0D089
:1015DC002A4B1B6823F0F8027B685B69DB00274908
:1015EC0013430B6015E0264B00221A60FFF762FCD8
:1015FC00386108E0FFF75EFC02463B69D31A022B08
:10160C0001D9032380E11D4B1B6803F00203002B5F
:10161C00F0D17B681B6803F00803002B3AD07B6881
:10162C009B69002B19D0174B01221A60FFF742FC63
:10163C00386108E0FFF73EFC02463B69D31A022BE7
:10164C0001D9032360E10D4B5B6A03F00203002B0D
:10165C00F0D0012000F09CFA1CE00A4B00221A602A
:10166C00FFF728FC38610FE0FFF724FC02463B69CA
:10167C00D31A022B08D9032346E100BF0010024005
:10168C000000424280044242924B5B6A03F0020328
:10169C00002BE9D17B681B6803F00403002B00F0DE
:1016AC00A6800023FB758B4BDB6903F08053002B6A
:1016BC000DD1884BDB69874A43F08053D361854B4E
:1016CC00DB6903F08053BB60BB680123FB75824B65
:1016DC001B6803F48073002B18D17F4B1B687E4A68
:1016EC0043F480731360FFF7E5FB386108E0FFF704
:1016FC00E1FB02463B69D31A642B01D9032303E1B6
:10170C00754B1B6803F48073002BF0D07B68DB688F
:10171C00012B06D16F4B1B6A6E4A43F00103136217
:10172C002DE07B68DB68002B0CD16A4B1B6A694A85
:10173C0023F001031362674B1B6A664A23F0040310
:10174C0013621CE07B68DB68052B0CD1614B1B6AB8
:10175C00604A43F0040313625E4B1B6A5D4A43F01C
:10176C00010313620BE05B4B1B6A5A4A23F0010323
:10177C001362584B1B6A574A23F0040313627B68AD
:10178C00DB68002B15D0FFF795FB38610AE0FFF7FB
:10179C0091FB02463B69D31A41F28832934201D93C
:1017AC000323B1E04B4B1B6A03F00203002BEED07A
:1017BC0014E0FFF77FFB38610AE0FFF77BFB024682
:1017CC003B69D31A41F28832934201D903239BE03F
:1017DC00404B1B6A03F00203002BEED1FB7D012B67
:1017EC0005D13C4BDB693B4A23F08053D3617B68CA
:1017FC00DB69002B00F08780364B5B6803F00C0331
:10180C00082B61D07B68DB69022B46D1334B00225D
:10181C001A60FFF74FFB386108E0FFF74BFB0246FD
:10182C003B69D31A022B01D903236DE0294B1B68AA
:10183C0003F00073002BF0D17B681B6AB3F5803F7B
:10184C0008D1244B5B6823F400327B689B682149E8
:10185C0013434B601F4B5B6823F474127B68196A4B
:10186C007B685B6A0B431B4913434B601B4B012288
:10187C001A60FFF71FFB386108E0FFF71BFB0246FD
:10188C003B69D31A022B01D903233DE0114B1B6892
:10189C0003F00073002BF0D035E0104B00221A60DF
:1018AC00FFF708FB386108E0FFF704FB02463B69D1
:1018BC00D31A022B01D9032326E0064B1B6803F035
:1018CC000073002BF0D11EE07B68DB69012B07D184
:1018DC00012319E0001002400070004060004242F9
:1018EC000B4B5B68FB60FB6803F480327B681B6A04
:1018FC009A4206D1FB6803F470127B685B6A9A42C9
:10190C0001D0012300E0002318461837BD4680BDE6
:10191C000010024080B584B000AF786039607B68FD
:10192C00002B01D10123D0E06A4B1B6803F00703A5
:10193C003A689A4210D9674B1B6823F00702654935
:10194C003B6813430B60634B1B6803F007033A6857
:10195C009A4201D00123B8E07B681B6803F00203B4
:10196C00002B20D07B681B6803F00403002B05D0F0
:10197C00594B5B68584A43F4E06353607B681B68BF
:10198C0003F00803002B05D0534B5B68524A43F419
:10199C0060535360504B5B6823F0F0027B689B688C
:1019AC004D4913434B607B681B6803F00103002B0C
:1019BC0040D07B685B68012B07D1474B1B6803F455
:1019CC000033002B15D101237FE07B685B68022B71
:1019DC0007D1414B1B6803F00073002B09D1012385
:1019EC0073E03D4B1B6803F00203002B01D1012374
:1019FC006BE0394B5B6823F003027B685B6836490C
:101A0C0013434B60FFF756FAF8600AE0FFF752FAFF
:101A1C000246FB68D31A41F28832934201D9032360
:101A2C0053E02D4B5B6803F00C027B685B689B00FA
:101A3C009A42EBD1274B1B6803F007033A689A4292
:101A4C0010D2244B1B6823F0070222493B68134336
:101A5C000B60204B1B6803F007033A689A4201D0D5
:101A6C00012332E07B681B6803F00403002B08D0D1
:101A7C00194B5B6823F4E0627B68DB6816491343FF
:101A8C004B607B681B6803F00803002B09D0124BDA
:101A9C005B6823F460527B681B69DB000E491343BF
:101AAC004B6000F021F802460B4B5B681B0903F0FE
:101ABC000F030A49CB5C22FA03F3094A1360094B62
:101ACC001B681846FFF7B4F9002318461037BD46BB
:101ADC0080BD00BF0020024000100240E449000815
:101AEC00180000201C00002080B487B000AF002339
:101AFC00FB600023BB6000237B6100237B60002321
:101B0C003B611E4B5B68FB60FB6803F00C03042B12
:101B1C0002D0082B03D027E0194B3B6127E0FB6870
:101B2C009B0C03F00F03174AD35C7B60FB6803F438
:101B3C008033002B10D0114B5B685B0C03F001035E
:101B4C00114AD35CBB607B680D4A03FB02F2BB6895
:101B5C00B2FBF3F37B6104E07B680C4A02FB03F3FA
:101B6C007B617B693B6102E0054B3B6100BF3B69DC
:101B7C0018461C37BD4680BC704700BF00100240A1
:101B8C0000127A00F4490008044A000800093D00DC
:101B9C0080B485B000AF78600A4B1B680A4AA2FB80
:101BAC0003235B0A7A6802FB03F3FB6000BFFB684C
:101BBC005A1EFA60002BF9D100BF00BF1437BD4686
:101BCC0080BC704718000020D34D621080B582B0E5
:101BDC0000AF78607B68002B01D1012376E07B6835
:101BEC005B6A002B08D17B685B68B3F5827F09D0F8
:101BFC007B680022DA6105E07B6800221A617B6851
:101C0C0000225A617B6800229A627B6893F85130FB
:101C1C00DBB2002B06D17B68002283F85020786859
:101C2C00FFF75EF87B68022283F851207B681B6803
:101C3C001A687B681B6822F040021A607B685B683C
:101C4C0003F482727B689B6803F404431A437B6839
:101C5C00DB6803F400631A437B681B6903F002031F
:101C6C001A437B685B6903F001031A437B689B6929
:101C7C0003F400731A437B68DB6903F038031A43DF
:101C8C007B681B6A03F0800342EA03017B689B6A52
:101C9C0003F400527B681B680A431A607B689B69DB
:101CAC001A0C7B681B6802F004025A607B681B6884
:101CBC00DA697B681B6822F40062DA617B680022B7
:101CCC005A657B68012283F8512000231846083797
:101CDC00BD4680BD80B588B000AFF860B9603B6090
:101CEC001346FB800023FB77FB6893F85030012BE5
:101CFC0001D102232DE1FB68012283F85020FFF76C
:101D0C00D9F8B861FB88FB82FB6893F85130DBB2E1
:101D1C00012B02D00223FB7716E1BB68002B02D00B
:101D2C00FB88002B02D10123FB770DE1FB6803221A
:101D3C0083F85120FB6800225A65FB68BA681A6365
:101D4C00FB68FA889A86FB68FA88DA86FB680022B8
:101D5C009A63FB6800229A87FB680022DA87FB688B
:101D6C0000225A64FB6800221A64FB689B68B3F576
:101D7C00004F0FD1FB681B681A68FB681B6822F0C8
:101D8C0040021A60FB681B681A68FB681B6842F407
:101D9C0080421A60FB681B681B6803F04003402BF1
:101DAC0007D0FB681B681A68FB681B6842F040028E
:101DBC001A60FB68DB68B3F5006F4FD1FB685B689A
:101DCC00002B02D0FB8A012B42D1FB681B6B1A88BB
:101DDC00FB681B68DA60FB681B6B9A1CFB681A6358
:101DEC00FB68DB8E9BB2013B9AB2FB68DA862FE074
:101DFC00FB681B689B6803F00203022B12D1FB6883
:101E0C001B6B1A88FB681B68DA60FB681B6B9A1CDF
:101E1C00FB681A63FB68DB8E9BB2013B9AB2FB68D2
:101E2C00DA8615E0FFF746F80246BB69D31A3A6822
:101E3C009A4203D83B68B3F1FF3F02D13B68002BB9
:101E4C0006D10323FB77FB68012283F851207BE04A
:101E5C00FB68DB8E9BB2002BCAD150E0FB685B6841
:101E6C00002B02D0FB8A012B44D1FB681A6BFB6858
:101E7C001B680C3312781A70FB681B6B5A1CFB68BE
:101E8C001A63FB68DB8E9BB2013B9AB2FB68DA8665
:101E9C0030E0FB681B689B6803F00203022B13D134
:101EAC00FB681A6BFB681B680C3312781A70FB68A2
:101EBC001B6B5A1CFB681A63FB68DB8E9BB2013BE5
:101ECC009AB2FB68DA8615E0FEF7F4FF0246BB69AE
:101EDC00D31A3A689A4203D83B68B3F1FF3F02D158
:101EEC003B68002B06D10323FB77FB68012283F8A8
:101EFC00512029E0FB68DB8E9BB2002BC9D1BA695B
:101F0C003968F86800F0B2F80346002B02D0FB6881
:101F1C0020225A65FB689B68002B0AD100233B6189
:101F2C00FB681B68DB683B61FB681B689B683B615B
:101F3C003B69FB685B6D002B02D00123FB7703E050
:101F4C00FB68012283F85120FB68002283F85020A3
:101F5C00FB7F18462037BD4680BD000080B588B099
:101F6C0000AFF860B9603B601346FB71FEF7A2FF4F
:101F7C000246BB6A9B1A3A681344FB61FEF79AFF50
:101F8C00B861394B1B685B011B0DFA6902FB03F34B
:101F9C007B6154E03B68B3F1FF3F50D0FEF78AFF02
:101FAC000246BB69D31AFA699A4202D9FB69002B23
:101FBC003DD1FB681B685A68FB681B6822F0E00285
:101FCC005A60FB685B68B3F5827F11D1FB689B6834
:101FDC00B3F5004F04D0FB689B68B3F5806F07D155
:101FEC00FB681B681A68FB681B6822F040021A60C9
:101FFC00FB689B6AB3F5005F0FD1FB681B681A681E
:10200C00FB681B6822F400521A60FB681B681A6894
:10201C00FB681B6842F400521A60FB68012283F8CB
:10202C005120FB68002283F85020032317E07B69C2
:10203C00002B01D10023FB617B69013B7B61FB68B9
:10204C001B689A68BB681340BA689A420CBF01239C
:10205C000023DBB21A46FB799A429BD10023184627
:10206C002037BD4680BD00BF1800002080B586B06B
:10207C0002AFF860B9607A607B680093BB6800229D
:10208C008021F868FFF76AFF0346002B07D0FB6836
:10209C005B6D43F02002FB685A65032300E00023CC
:1020AC0018461037BD4680BD70B500260C4D0D4C42
:1020BC00641BA410A64209D100F022F800260A4D98
:1020CC000A4C641BA410A64205D170BD55F8043B04
:1020DC0098470136EEE755F8043B98470136F2E78E
:1020EC00084A0008084A0008084A00080C4A000878
:1020FC0003460244934200D1704703F8011BF9E7F1
:10210C00F8B500BFF8BC08BC9E467047F8B500BFD8
:08211C00F8BC08BC9E467047A8
:10212400392C00340200000000C130008500780022
:10213400088227000F312B0C0E084EF137071003CD
:102144000E090000000E1403110731C148080F0CDA
:1021540031360F00466F6E745F377831302C20486B
:10216400454C4C4F00000000466F6E745F3131786F
:1021740031382C48454C4C4F00000000466F6E74BB
:102184005F31367832362C48454C4C4F0000000005
:102194005748495445000000424C55450000000092
:1021A40052454400475245454E0000004359414EB4
:1021B400000000004D4147454E54410059454C4CE8
:1021C4004F570000424C41434B0000000000000008
:1021D40000000000000000000000000000000000FB
:1021E400001000100010001000100010000000107B
:1021F4000000000000280028002800000000000063
:10220400000000000000000000240024007C0024E2
:102214000048007C004800480000000000380054DA
:10222400005000380014005400540038001000001E
:102234000020005400580030002800540014000806
:10224400000000000010002800280010003400489E
:1022540000480034000000000010001000100000CE
:102264000000000000000000000000000008001052
:102274000020002000200020002000200010000882
:1022840000200010000800080008000800080008EA
:10229400001000200010003800100028000000008A
:1022A400000000000000000000000000001000100A
:1022B400007C00100010000000000000000000007E
:1022C40000000000000000000000001000100010DA
:1022D40000000000000000000000003800000000C2
:1022E40000000000000000000000000000000000EA
:1022F400000000100000000000080008001000109A
:1023040000100010002000200000000000380044ED
:10231400004400540044004400440038000000001D
:1023240000100030005000100010001000100010C9
:1023340000000000003800440044000400080010BD
:102344000020007C00000000003800440004001855
:1023540000040004004400380000000000080018D5
:10236400002800280048007C000800080000000045
:10237400007C004000400078000400040044003861
:10238400000000000038004400400078004400448D
:102394000044003800000000007C00040008001025
:1023A400001000200020002000000000003800443D
:1023B4000044003800440044004400380000000099
:1023C4000038004400440044003C00040044003849
:1023D40000000000000000000010000000000000E9
:1023E40000000010000000000000000000000010C9
:1023F40000000000000000100010001000000000A9
:10240400000C003000400030000C00000000000010
:10241400000000000000007C0000007C00000000C0
:102424000000000000000000006000180004001814
:1024340000600000000000000038004400040008B0
:1024440000100010000000100000000000380044DC
:10245400004C0054005C00400040003800000000C4
:1024640000100028002800280028007C00440044B4
:102474000000000000780044004400780044004458
:102484000044007800000000003800440040004090
:102494000040004000440038000000000070004884
:1024A4000044004400440044004800700000000060
:1024B400007C00400040007C004000400040007C64
:1024C40000000000007C0040004000780040004014
:1024D400004000400000000000380044004000407C
:1024E400005C004400440038000000000044004444
:1024F4000044007C00440044004400440000000008
:1025040000380010001000100010001000100038F7
:10251400000000000004000400040004000400049F
:1025240000440038000000000044004800500060EF
:1025340000500048004800440000000000400040F3
:1025440000400040004000400040007C00000000CB
:102554000044006C006C00540044004400440044F7
:102564000000000000440064006400540054004C67
:10257400004C0044000000000038004400440044C3
:102584000044004400440038000000000078004487
:102594000044004400780040004000400000000077
:1025A400003800440044004400440044005400380F
:1025B400000400000078004400440044007800480F
:1025C400004800440000000000380044004000308F
:1025D400000800040044003800000000007C0010E3
:1025E4000010001000100010001000100000000087
:1025F40000440044004400440044004400440038C3
:102604000000000000440044004400280028002882
:102614000010001000000000004400440054005466
:102624000054006C0028002800000000004400282A
:1026340000280010001000280028004400000000BA
:10264400004400440028002800100010001000106E
:1026540000000000007C00040008001000100020AE
:102664000040007C00000000001800100010001062
:1026740000100010001000100010001800200020AE
:1026840000100010001000100008000800000000F6
:102694000030001000100010001000100010001096
:1026A4000010003000100028002800440000000042
:1026B4000000000000000000000000000000000016
:1026C4000000000000000000000000FE00200010D8
:1026D40000000000000000000000000000000000F6
:1026E4000000000000380044003C0044004C00346A
:1026F4000000000000400040005800640044004412
:10270400006400580000000000000000003800448D
:1027140000400040004400380000000000040004B1
:102724000034004C00440044004C0034000000001D
:102734000000000000380044007C004000440038E1
:1027440000000000000C0010007C001000100010BD
:102754000010001000000000000000000034004CD5
:1027640000440044004C0034000400780040004061
:102774000058006400440044004400440000000089
:102784000010000000700010001000100010001075
:102794000000000000100000007000100010001085
:1027A40000100010001000E00040004000480050FD
:1027B4000060005000480044000000000070001059
:1027C40000100010001000100010001000000000A5
:1027D40000000000007800540054005400540054D9
:1027E40000000000000000000058006400440044A1
:1027F40000440044000000000000000000380044D1
:1028040000440044004400380000000000000000C0
:102814000058006400440044006400580040004034
:10282400000000000034004C00440044004C00341C
:102834000004000400000000005800640040004050
:102844000040004000000000000000000038004488
:102854000030000800440038000000000020002080
:102864000078002000200020002000180000000054
:10287400000000000044004400440044004C0034C4
:10288400000000000000000000440044002800286C
:102894000028001000000000000000000054005454
:1028A4000054006C00280028000000000000000014
:1028B400004400280010001000280044000000001C
:1028C400000000000044004400280028001000100C
:1028D4000010006000000000007C000800100020D0
:1028E4000040007C000000000018001000100010E0
:1028F400002000200010001000100018001000102C
:102904000010001000100010001000100010001043
:102914000030001000100010000800080010001023
:10292400001000300000000000000074004C0000A3
:102934000000000000000000000000000000000093
:102944000000000000000000000000000000000083
:102954000000000000000000000000000000000C67
:10296400000C000C000C000C000C000C000C000C03
:10297400000C000C0000000C000C00000000000023
:102984000000001B001B001B001B001B00000000BC
:102994000000000000000000000000000000000033
:1029A4000000000000008019801980198019C07F80
:1029B400C07F80190033C07FC07F003300330033F1
:1029C40000330000000000000000001E003F80757E
:1029D40080650074003C001E0007800580658065EA
:1029E4008075003F001E0004000400000000007019
:1029F40000D840D8C0D880D900730006000C801BD2
:102A0400C036C066C046C006800300000000000057
:102A14000000001E003F003300330033001E000C92
:102A2400C03CC066806380618063C03E801C00003F
:102A3400000000000000000C000C000C000C000C56
:102A44000000000000000000000000000000000082
:102A540000000000000000008000000100030006E8
:102A640000060004000C000C000C000C000C000C10
:102A7400000400060006000300018000002000108E
:102A84000018000C000C00040006000600060006F6
:102A9400000600060004000C000C001800100020C2
:102AA4000000000C002D003F001E00330000000059
:102AB4000000000000000000000000000000000012
:102AC40000000000000000000000000C000C000CDE
:102AD400000CC0FFC0FF000C000C000C000C000038
:102AE40000000000000000000000000000000000E2
:102AF40000000000000000000000000000000000D2
:102B04000000000C000C0004000400080000000099
:102B14000000000000000000000000000000001E93
:102B2400001E000000000000000000000000000083
:102B34000000000000000000000000000000000091
:102B440000000000000000000000000C000C000069
:102B5400000000000000000300030003000600065C
:102B640000060006000C000C000C000C00180018F5
:102B740000180000000000000000001E003F0033A9
:102B8400806180618061806D806D80618061806121
:102B94000033003F001E000000000000000000069B
:102BA400000E001E00360026000600060006000681
:102BB40000060006000600060006000000000000F3
:102BC4000000001E003F807380618061800100036B
:102BD4000006000C001800300060807F807F000039
:102BE400000000000000001C003E006300630003BE
:102BF400000E000E00038001800180618073003F9D
:102C0400001E00000000000000000006000E000E80
:102C1400001E001E0016003600360066807F807F8E
:102C24000006000600060000000000000000007F0F
:102C3400007F006000600060006E007F80638001A0
:102C4400800180618073003F001E000000000000CE
:102C54000000001E003F803380610060006E007F32
:102C640080738061806180618033003F001E0000BA
:102C7400000000000000807F807F800100030003CB
:102C840000060006000C000C000C000800180018D8
:102C940000180000000000000000001E003F8063D8
:102CA400806180610021001E003F8061806180613D
:102CB4008061003F001E0000000000000000001EB4
:102CC400003F00738061806180618073803F801D5C
:102CD400800180610073003F001E000000000000BE
:102CE40000000000000000000000000C000C0000C8
:102CF40000000000000000000000000C000C0000B8
:102D040000000000000000000000000000000000BF
:102D1400000C000C00000000000000000000000C8B
:102D2400000C000400040008000000000000000083
:102D340080008003000E003800600038000E80031D
:102D440080000000000000000000000000000000FF
:102D5400000000000000807F807F00000000807F72
:102D6400807F000000000000000000000000000060
:102D7400000000000000000000400070001C00077C
:102D840080010007001C00700040000000000000EB
:102D9400000000000000001F803FC071C060C00040
:102DA400C00180030007000E000C000C0000000CA2
:102DB400000C0000000000000000001E003F8031F5
:102DC40080718063806F806D806D806F806700602C
:102DD4000032003E001C0000000000000000000E55
:102DE400000E001B001B001B001B80318031803F44
:102DF400803F8031C060C060C060000000000000FF
:102E04000000007C007E0063006300630063007EBA
:102E1400007E0063806180618063007F007E00002B
:102E2400000000000000001E003F8031806100604F
:102E34000060006000600060006080618031003FDD
:102E4400001E0000000000000000007C007F006302
:102E540080638061806180618061806180610063E2
:102E64000063007E007C0000000000000000807F02
:102E7400807F0060006000600060007F007F006071
:102E8400006000600060807F807F00000000000020
:102E94000000807F807F0060006000600060007F31
:102EA400007F00600060006000600060006000005F
:102EB400000000000000001E003F803180610060BF
:102EC4000060006080638063806180618031803F46
:102ED400001E00000000000000008061806180612D
:102EE400806180618061807F807F8061806180619A
:102EF4008061806180610000000000000000003FEC
:102F0400003F000C000C000C000C000C000C000C2A
:102F1400000C000C000C003F003F0000000000000B
:102F24000000800180018001800180018001800116
:102F340080018001806180618073003F001E000079
:102F4400000000000000C06080610063006600664D
:102F5400006C0078007C006600660063806180611C
:102F6400C06000000000000000000060006000601D
:102F7400006000600060006000600060006000604D
:102F84000060807F807F0000000000000000C071AE
:102F9400C071C07BC07AC06AC06AC06EC064C060C1
:102FA400C060C060C060C060C0600000000000007D
:102FB400000080718071807980798079806D806D66
:102FC400806D8065806780678067806380630000B0
:102FD400000000000000001E003F0033806180619B
:102FE4008061806180618061806180610033003F25
:102FF400001E0000000000000000007E007F8063CF
:103004008061806180618063007F007E0060006079
:103014000060006000600000000000000000001E6E
:10302400003F0033806180618061806180618061E4
:10303400806580670033803F401E00000000000070
:103044000000007E007F8063806180618063007F78
:10305400007E00660063006380618061C0600000E0
:10306400000000000000000E001F8031803100309D
:103074000038001E00078003806180618031003FBA
:10308400001E0000000000000000C0FFC0FF000C94
:10309400000C000C000C000C000C000C000C000CCC
:1030A400000C000C000C0000000000000000806117
:1030B4008061806180618061806180618061806104
:1030C400806180618073003F001E000000000000EA
:1030D4000000C060C060C060803180318031001B5E
:1030E400001B001B001B000E000E000E000400005D
:1030F400000000000000C0C0C0C0C0C0C0C0C0C04C
:10310400C0CC804C804C805E805280528073806141
:1031140080610000000000000000C0C08060806189
:103124000033003B001E000C000C001E001F003B7F
:1031340080718061C0C00000000000000000C0C0B9
:103144008061806100330033001E001E000C000CFF
:10315400000C000C000C000C000C0000000000002F
:103164000000803F803F8001000300030006000C44
:10317400000C0018001800300060807F807F000081
:1031840000000000000F000F000C000C000C000CED
:10319400000C000C000C000C000C000C000C000CCB
:1031A400000C000C000F000F00000018001800189D
:1031B400000C000C000C000C0006000600060006C3
:1031C400000300030003000000000000001E001EB6
:1031D40000060006000600060006000600060006BB
:1031E400000600060006000600060006001E001E7B
:1031F4000000000C000C001E00120033003380613C
:1032040080610000000000000000000000000000D9
:1032140000000000000000000000000000000000AA
:10322400000000000000000000000000000000009A
:1032340000000000E0FF0000000000380018000C4F
:10324400000000000000000000000000000000007A
:10325400000000000000000000000000000000006A
:10326400000000000000001F803F80618001801F7B
:10327400803F80618063807FC038000000000000D0
:1032840000000060006000600060006E007F8073DA
:1032940080618061806180618073007F006E0000C6
:1032A4000000000000000000000000000000001EFC
:1032B400003F807380610060006080618073003F24
:1032C400001E000000000000000080018001800159
:1032D4008001801D803F8073806180618061806196
:1032E4008073803F801D000000000000000000008B
:1032F400000000000000001E003F00738061807F1A
:10330400807F00608071003F001E0000000000000C
:103314000000C007C00F000C000C807F807F000CF1
:10332400000C000C000C000C000C000C000C000045
:10333400000000000000000000000000801D803F2D
:10334400807380618061806180618073803F801DB3
:1033540080018063007F003E000000600060006028
:103364000060006F807F8071806180618061806116
:1033740080618061806100000000000000000006A0
:10338400000600000000003E003E000600060006A5
:10339400000600060006000600060000000000000B
:1033A4000006000600000000003E003E0006000685
:1033B4000006000600060006000600060006004699
:1033C400007E003C000000600060006000608061DE
:1033D40000630066006C007C00760063006380611B
:1033E400C0600000000000000000003E003E000637
:1033F4000006000600060006000600060006000699
:1034040000060006000600000000000000000000A6
:1034140000000000000080DDC0FFC0CEC0CCC0CCE6
:10342400C0CCC0CCC0CCC0CCC0CC000000000000DC
:1034340000000000000000000000006F807F807129
:103444008061806180618061806180618061000051
:103454000000000000000000000000000000001E4A
:10346400003F807380618061806180618073003F70
:10347400001E00000000000000000000000000002A
:10348400006E007F807380618061806180618073E1
:10349400007F006E006000600060006000000000BB
:1034A40000000000801D803F807380618061806126
:1034B40080618073803F801D8001800180018001D4
:1034C400000000000000000000000067803F003999
:1034D4000030003000300030003000300030000098
:1034E4000000000000000000000000000000001EBA
:1034F400803F80610060007F803F80018061007FA9
:10350400001E000000000000000000000008001879
:103514000018007F007F0018001800180018001819
:103524000018801F800F0000000000000000000051
:103534000000000000008061806180618061806122
:10354400806180618063807F803D00000000000016
:1035540000000000000000000000C06080318031E5
:103564008031001B001B001B000E000E0006000033
:10357400000000000000000000000000000080DDEA
:1035840080DD80DD0055005500550077007700226E
:103594000022000000000000000000000000000005
:1035A4000000806100330033001E000C000C001E7C
:1035B40000330033806100000000000000000000C0
:1035C4000000000080618061803100330033001B03
:1035D400001B001B000E000E000E001C007C00707F
:1035E40000000000000000000000C07FC07F8001D8
:1035F40000030006000C00180030C07FC07F0000EC
:103604000000000080038007000600060006000694
:103614000006000E001C001C000E0006000600063A
:103624000006000680078003000600060006000668
:103634000006000600060006000600060006000656
:103644000006000600060006000600060038003CDE
:10365400000C000C000C000C000C000E000700070E
:10366400000E000C000C000C000C000C003C003898
:10367400000000000000000000000000000080388E
:10368400807F0047000000000000000000000000F0
:103694000000000000000000000000000000000026
:1036A4000000000000000000000000000000000016
:1036B4000000000000000000000000000000000006
:1036C4000000000000000000E003E003E003E0036A
:1036D400E003E003E003E003C003C003C001C00152
:1036E400C001C001C001000000000000E003E003CD
:1036F400E003000000000000000000003C1E3C1E2F
:103704003C1E3C1E3C1E3C1E3C1E000000000000F3
:1037140000000000000000000000000000000000A5
:103724000000000000000000000000000000000095
:10373400CE01CE03DE039E039C039C07FF3FFF7F65
:103744003807380F780F780F780EFFFFFFFFF01E51
:10375400F01CE01CE03CE03DE0390000000000000B
:1037640000000000FC03FE0FEE1FE01EE01EE01E42
:10377400E01EE01FE00FE007F003FC01FE01FE0184
:10378400FE01FE01FE01FE01FE3DFC3FF00FE001E3
:10379400E001000000000000033E07F78FE78EE71A
:1037A4009EE3BCE3B8E7F8E7F0F7E03FC001FF03AE
:1037B400FF07F307F30FF31EF33CF338F3787FF0BE
:1037C4003FE000000000000000000000E007F80FE8
:1037D400780F781F781F781F780FF00FE00F801F85
:1037E400C37FC3FBE7F3F7F1F7F0FFF07FF03EF898
:1037F4007F7CFF3FEF1F000000000000000000007E
:10380400E003E003E003E003E003C003C0010000C1
:1038140000000000000000000000000000000000A4
:103824000000000000000000000000000000000094
:10383400000000003F007C00F001E001C003C0076D
:1038440080078007800F000F000F000F000F000F8C
:10385400000F800F80078007C007C003E001F0015C
:103864007C003F000F000000007E001FC007C00363
:10387400E001F001F000F000F80078007800780032
:10388400780078007800F800F000F000F001E00122
:10389400C003C007001F007E00780000E003C003DF
:1038A400C001CE39FF3F7F3F20037003F807780F34
:1038B4003C1F38060000000000000000000000006B
:1038C40000000000000000000000000000000000F4
:1038D400000000000000000000000000C001C00162
:1038E400C001C001C001C001C001FFFFFFFFC00152
:1038F400C001C001C001C001C001000000000000FF
:1039040000000000000000000000000000000000B3
:1039140000000000000000000000000000000000A3
:10392400000000000000E003E003E003E003E00126
:10393400E001E001C001800300000000000000007D
:103944000000000000000000000000000000FE3F36
:10395400FE3F000000000000000000000000000026
:103964000000000000000000000000000000000053
:103974000000000000000000000000000000000043
:103984000000000000000000000000000000E00350
:10399400E003E003E003000000000000000000007A
:1039A4000F000F001E001E003C003C007800780051
:1039B400F000F000E001E001C003C00380078007CD
:1039C400000F000F001E001E003C003C0078007831
:1039D40000F00000F007F80F7C1F3E3E1E3C1F7CE9
:1039E4001F7C0F780F780F780F780F780F780F7887
:1039F4001F7C1F7C1E3C3E3E7C1FF80FF00700001E
:103A04000000000000000000F000F007F03FF03F6D
:103A1400F001F001F001F001F001F001F001F0011A
:103A2400F001F001F001F001F001F001F001FF3FBD
:103A3400FF3F00000000000000000000E00FF83F1E
:103A44007C3C3C003E003E003E003C003C007C00D0
:103A5400F800F001E003C0078007000F001E003EDD
:103A6400003CFE3FFE3F000000000000000000009C
:103A7400F00FF81F7C1C3E003E003E003C003C0062
:103A8400F800F00FF80F7C003E001E001E001E0020
:103A94001E003E007C1CF81FE01F00000000000018
:103AA400000000007800F800F800F801F803F807B7
:103AB400F807780F781E781E783C78787878FFFFBE
:103AC400FFFF780078007800780078007800000024
:103AD4000000000000000000FC1FFC1FFC1F001E73
:103AE400001E001E001E001EE01FF81FFC007C00CC
:103AF4003E003E001E003E003E003C007C1CF81FC1
:103B0400E01F00000000000000000000FC01FE07B0
:103B14008E0F001F001E003E003C003CF83DFC3FA1
:103B24003E7F1F7E0F3C0F3C0F3C0F3C0F3E1F1E81
:103B34003E1FFC0FF0030000000000000000000026
:103B4400FF3FFF3FFF3F0F001E001E003C003800F8
:103B54007800F000F000E001E001C003C00380073A
:103B6400800F800F000F001F001F000000000000E6
:103B740000000000F807FC0F3E1F1E1E1E3E1E3EE6
:103B84001E1E3C1FF80FF007F80FFC1E3E3E1F3CA4
:103B94001F7C0F7C0F7C1F3C3E3FFC1FF007000086
:103BA4000000000000000000F007F80F7C1E3E3CFF
:103BB4001E3C1F7C1F7C1F7C1F7C1F3C3F3EFF1F45
:103BC400EF071F001E001E003E003C00F838F03FC7
:103BD400E01F0000000000000000000000000000E2
:103BE4000000000000000000E003E003E003E00345
:103BF4000000000000000000000000000000E003DE
:103C0400E003E003E0030000000000000000000007
:103C1400000000000000000000000000E003E003DA
:103C2400E003E003000000000000000000000000CA
:103C34000000E003E003E003E003E001E001E00151
:103C4400C00380030000000000000000000000002A
:103C540003000F003F00FC00F003C00F003F00FE14
:103C6400003FC00FF003FC003F000F000300000002
:103C74000000000000000000000000000000000040
:103C8400000000000000000000000000FFFFFFFF34
:103C9400000000000000FFFFFFFF00000000000024
:103CA4000000000000000000000000000000000010
:103CB400000000000000000000E000F8007E801F0B
:103CC400E007F8017E001F007E00F801E007801F76
:103CD400007E00F800E0000000000000000000008A
:103CE400F01FFC3F3E381F381F381E001E003C00EA
:103CF4007800F000E001C003C003C007C007000063
:103D040000000000C007C007C0070000000000005A
:103D140000000000F803FE0F1E1F0F3E7F3CFF78DB
:103D2400EF79C773C7F38FF38FF38FF39FF39FF389
:103D3400FF73FF7BF779003C1C1FFC0FF8030000A6
:103D44000000000000000000000000000000E0038C
:103D5400E003F007F007F007780F780F7C0E3C1EA5
:103D64003C1E3E3CFE3FFF3F1F780F780FF007F0EC
:103D740007F0000000000000000000000000000048
:103D84000000F83FFC3F3E3C1E3C1E3C1E3C3E3CBB
:103D94007C3CF03FF83F7E3C1F3C1F3C0F3C0F3CFB
:103DA4001F3CFE3FF83F0000000000000000000040
:103DB400000000000000FF01FF07871F003E003CD9
:103DC400007C00780078007800780078007C007C23
:103DD400003E003F831FFF07FF01000000000000BA
:103DE40000000000000000000000F07FFC7F7E78EF
:103DF4001F781F780F780F780F780F780F780F7867
:103E04000F780F781F781E787E78F87FE07F0000A7
:103E14000000000000000000000000000000FF3F60
:103E2400FF3F003E003E003E003E003E003EFE3F9F
:103E3400FE3F003E003E003E003E003E003EFF3F8F
:103E4400FF3F000000000000000000000000000030
:103E54000000FF1FFF1F001E001E001E001E001E8C
:103E6400001EFF1FFF1F001E001E001E001E001E5E
:103E7400001E001E001E00000000000000000000E4
:103E8400000000000000FE03FF0F871F003E007CBF
:103E9400007C007800F800F87FF87FF80F780F7C3A
:103EA4000F7C0F3E8F1FFF0FFE0300000000000079
:103EB400000000000000000000001F7C1F7C1F7C2D
:103EC4001F7C1F7C1F7C1F7C1F7CFF7FFF7F1F7C50
:103ED4001F7C1F7C1F7C1F7C1F7C1F7C1F7C0000A1
:103EE4000000000000000000000000000000FF3F90
:103EF400FF3FE003E003E003E003E003E003E0034B
:103F0400E003E003E003E003E003E003E003FF3F3A
:103F1400FF3F00000000000000000000000000005F
:103F24000000FC1FFC1F7C007C007C007C007C00EB
:103F34007C007C007C007C007C007C0078007800A5
:103F4400F838F03FC03F000000000000000000000F
:103F54000000000000001F3C1E3C3C3C783CF03C50
:103F6400E03DE03FC03F803FC03FE03FF03DF03CDC
:103F7400783C7C3C3E3C1F3C0F3C000000000000B1
:103F840000000000000000000000003E003E003E73
:103F9400003E003E003E003E003E003E003E003E2D
:103FA400003E003E003E003E003EFF3FFF3F00005B
:103FB40000000000000000000000000000001FF8E6
:103FC4001FFC1FFC3FFE3FFE3FFE7FFF77FF77FF96
:103FD400F7F7E7F7E7F3E7F3C7F307F007F007F0BE
:103FE40007F00000000000000000000000000000D6
:103FF40000000F7C0F7C0F7E0F7F0F7F8F7F8F7FE2
:10400400CF7FEF7BEF79FF79FF78FF787F783F7878
:104014003F781F781F7800000000000000000000B7
:10402400000000000000F007FC1F3E3E1F7C0F78DC
:104034000F780FF80FF80FF80FF80FF80FF80F7844
:104044000F781F7C3E3EFC1FF007000000000000BC
:1040540000000000000000000000FC3FFF3F1F3E86
:104064000F3E0F3E0F3E0F3E1F3E3F3EFC3FF03FD4
:10407400003E003E003E003E003E003E003E00008A
:104084000000000000000000000000000000F00735
:10409400FC1F3E3E1F7C0F780F780FF80FF80FF8C7
:1040A4000FF80FF80FF80F780F781F7C3E3EFC1FB7
:1040B400F8077C003F000F00030000000000000030
:1040C4000000F03FFC3F7E3C3E3C1E3C1E3C3E3C20
:1040D4003C3CFC3CF03FE03FF03DF83C7C3C3E3C4B
:1040E4001E3C1F3C0F3C00000000000000000000CC
:1040F400000000000000FC07FE1F0E3E003C003CD8
:10410400003C003EC01FF80FFE037F001F000F009D
:104114000F001F203E3CFC3FF01F00000000000089
:1041240000000000000000000000FFFFFFFFE003AC
:10413400E003E003E003E003E003E003E003E00363
:10414400E003E003E003E003E003E003E003000036
:1041540000000000000000000000000000000F7CD0
:104164000F7C0F7C0F7C0F7C0F7C0F7C0F7C0F7CF3
:104174000F7C0F7C0F7C0F7C1E3C1E3C3E3EFC1FC4
:10418400F007000000000000000000000000000034
:10419400000007F007F007F80F780F7C1E3C1E3C68
:1041A4001E3E3C1E3C1F781F780FF80FF007F007E7
:1041B400F007E003E003000000000000000000003E
:1041C40000000000000003E003F003F007F0E7F351
:1041D400E7F3E7F3E773F77BF77FFF7F7F7F7F7F6B
:1041E4007E7F7E3F3E3E3E3E3E3E0000000000009D
:1041F4000000000000000000000007F80F7C1E3ED5
:104204003E3E3C1FF80FF007E007E003E003F00731
:10421400F80F7C0F7C1E3E3C1F780F780FF00000D7
:10422400000000000000000000000000000007F88B
:1042340007780F7C1E3C1E3E3C1F780FF80FF007DA
:10424400E003E003E003E003E003E003E003E00352
:10425400E003000000000000000000000000000077
:104264000000FF7FFF7F0F001F003E007C00F8006E
:10427400F000E001E003C007800F000F001E003EC5
:10428400007CFF7FFF7F00000000000000000000B2
:10429400FF07800780078007800780078007800763
:1042A40080078007800780078007800780078007D2
:1042B4008007800780078007800780078007FF0743
:1042C400FF07000000780078003C003C001E001E40
:1042D400000F000F80078007C003C003E001E00166
:1042E400F000F000780078003C003C001E001E0046
:1042F4000F000F0007000000F07FF000F000F00056
:10430400F000F000F000F000F000F000F000F00029
:10431400F000F000F000F000F000F000F000F00019
:10432400F000F000F000F07FF07F0000C000C0015A
:10433400C001E003E003F007F0077807780F380FB7
:104344003C1E3C1E1E3C1E3C0F380F7807780000B4
:104354000000000000000000000000000000000059
:104364000000000000000000000000000000000049
:104374000000000000000000000000000000000039
:1043840000000000000000000000FFFFFFFF00002D
:1043940000000000F0000000000000000000000029
:1043A4000000000000000000000000000000000009
:1043B40000000000000000000000000000000000F9
:1043C40000000000000000000000000000000000E9
:1043D40000000000F80FFC3F7C3C3E003E003E0025
:1043E400FE07FE1F3E3E3E7C3E783E7C7E7CFF3FC9
:1043F400CF1F00000000000000000000003C003C53
:10440400003C003C003C003CF83DFE3F3E3F1F3E6C
:104414000F3C0F3C0F3C0F3C0F3C0F3C1F3C1E3C21
:104424003E3FFC3FF03B00000000000000000000A5
:10443400000000000000000000000000FE03FF0F69
:10444400871F003E003E003C007C007C007C003C5A
:10445400003E003E871FFF0FFE0300000000000027
:10446400000000001F001F001F001F001F001F008E
:10447400FF07FF1F3F3E1F3C1F7C1F7C1F7C1F78D4
:104484001F781F7C1F7C3F3C7F3EFF1FDF0F000017
:104494000000000000000000000000000000000018
:1044A40000000000F803FC0F3E1F1E3E1F3C1F7C53
:1044B400FF7FFF7F007C007C003C003E071FFF0F56
:1044C400FE0300000000000000000000FF01E10303
:1044D400C003C007C007C007FF7FFF7FC007C00736
:1044E400C007C007C007C007C007C007C007C00790
:1044F400C007C007C0070000000000000000000063
:10450400000000000000000000000000EF07FF1F93
:104514007F3E1F3C1F7C1F7C1F781F781F781F7CE9
:104524001F7C3F3C7F3EFF1FDF0F1E001E001E004E
:104534007C38F83F003C003C003C003C003C003C24
:10454400FC3DFE3F9E3F1F3F1F3E1F3C1F3C1F3C48
:104554001F3C1F3C1F3C1F3C1F3C1F3C1F3C0000DA
:104564000000000000000000F001F0010000000065
:1045740000000000E07FE07FE001E001E001E001F5
:10458400E001E001E001E001E001E001E001E0011F
:10459400E00100000000000000000000F800F80046
:1045A4000000000000000000F83FF83FF800F800A9
:1045B400F800F800F800F800F800F800F800F80037
:1045C400F800F800F800F800F800F000F071E07F5F
:1045D400003C003C003C003C003C003C1F3C3E3C9A
:1045E4007C3CF83CF03DE03DC03FC03FE03FF03D47
:1045F400F83C7C3C3E3C1F3C1F3C0000000000009B
:1046040000000000F07FF001F001F001F001F00182
:10461400F001F001F001F001F001F001F001F0010E
:10462400F001F001F001F001F001F001F0010000EF
:104634000000000000000000000000000000000076
:10464400000000009EF7FFFFFFFFFFFFE7FBE7F915
:10465400C7F1C7F1C7F1C7F1C7F1C7F1C7F1C7F196
:10466400C7F100000000000000000000000000008E
:104674000000000000000000FC3DFE3F9E3F1F3F85
:104684001F3E1F3C1F3C1F3C1F3C1F3C1F3C1F3C4C
:104694001F3C1F3C1F3C0000000000000000000005
:1046A400000000000000000000000000F007FC1FF4
:1046B4003E3E1F3C1F7C0F780F780F780F780F78E1
:1046C4001F7C1F3C3E3EFC1FF00700000000000062
:1046D40000000000000000000000000000000000D6
:1046E400F83DFE3F3E3F1F3E0F3C0F3C0F3C0F3C4E
:1046F4000F3C0F3C1F3C1E3E3E3FFC3FF83F003C3E
:10470400003C003C003C003C0000000000000000B5
:1047140000000000EE07FE1F7E3E1E3C1E7C1E783D
:104724001E781E781E781E781E7C3E7C7E3EFE1F00
:10473400DE0F1E001E001E001E001E0000000000F2
:1047440000000000000000007F1FFF1FE71FC71FBD
:10475400871F001F001F001F001F001F001F001FD6
:10476400001F001F001F00000000000000000000E8
:10477400000000000000000000000000FC07FE1F15
:104784000E1E003E003E003FE01FFC07FE003E0000
:104794001E001E003E3CFC3FF01F00000000000015
:1047A4000000000000000000000080078007800770
:1047B400FF7FFF7F800780078007800780078007CF
:1047C4008007800780078007C007FF03FF01000000
:1047D40000000000000000000000000000000000D5
:1047E400000000001E3C1E3C1E3C1E3C1E3C1E3CA9
:1047F4001E3C1E3C1E3C1E3C3E3C7E3CFE3EFE1FC0
:10480400DE0F0000000000000000000000000000B7
:10481400000000000000000007F00F780F781E3C35
:104824001E3C1E3E3C1E3C1E780F780FF00FF00716
:10483400F007E003E00300000000000000000000B7
:1048440000000000000000000000000003F0E3F19D
:10485400E3F3E7F3F7F3F7F3F77F777F7F7F7F7F68
:104864007F7F3E3E3E3E3E3E3E3E00000000000056
:104874000000000000000000000000000000000034
:104884000F7C1E3E3C3E3C1FF80FF007F007E00390
:10489400F007F807F80F7C1E3E3E1F3C1F7800000F
:1048A4000000000000000000000000000000000004
:1048B4000000000007F80F780F7C1E3C1E3C3C1ED5
:1048C4003C1E3C1F780FF80FF007F007E003E003ED
:1048D400C003C003C0038007800F007F00000000F6
:1048E4000000000000000000FF3FFF3F1F003E00EB
:1048F4007C00F800F001E003C007800F001F001ED9
:10490400003CFF7FFF7F000000000000000000006B
:10491400FE01E003C003C003C003C003E001E001E3
:10492400E001C001C003803F803FC003C001E0013B
:10493400E001E001C003C003C003C003E003FE01C3
:104944007E000000C001C001C001C001C001C0015F
:10495400C001C001C001C001C001C001C001C0014B
:10496400C001C001C001C001C001C001C001C0013B
:10497400C001C001C0010000C03FE003E001E0014C
:10498400E001E001C001C003C003C001E001FE007A
:10499400FE00E001C001C003C003C001E001E0016A
:1049A400E001E001E003C03F003F00000000000020
:1049B40000000000000000000000000000000000F3
:1049C4000000073FC77FE773FFF17EF0000000009F
:1049D40000000000000000000000000000000000D3
:1049E400000000000000000001020304060708099B
:1049F40002030405060708090A0B0C0D0E0F10101C
:044A040001020000AB
:044A08003101000870
:044A0C000D01000890
:104A1000070A0000D02100080B1200003C29000802
:104A2000101A0000983600080024F400100000005E
:044A30000100000081
:0400000508000DC51D
:00000001FF
