:020000040800F2
:1000000000800120CD0800082D08000833080008F2
:10001000390800083F0800084508000800000000F3
:100020000000000000000000000000004B08000875
:10003000590800080000000067080008750800085B
:100040001D0900081D0900081D0900081D090008F8
:100050001D0900081D0900081D0900081D090008E8
:100060001D0900081D0900081D0900081D090008D8
:100070001D0900081D0900081D0900081D090008C8
:100080001D0900081D0900081D09000800000000E6
:100090000000000000000000000000001D09000832
:1000A0001D0900081D0900081D0900081D09000898
:1000B0001D0900081D0900081D0900088108000825
:1000C000950800081D0900081D0900081D09000801
:1000D0001D0900081D0900081D0900080000000096
:1000E0001D0900081D0900081D0900080000000086
:1000F0000000000000000000000000001D090008D2
:10010000000000001D0900081D0900081D09000865
:1001100000000000000000000000000000000000DF
:100120001D0900081D0900081D0900081D09000817
:100130001D09000800000000000000000000000091
:100140000000000000000000000000001D09000881
:100150001D0900081D0900081D0900081D090008E7
:100160001D0900081D090008000000000000000033
:10017000000000000000000000000000000000007F
:10018000000000001D090008000000000000000041
:040190001D0900083D
:1001940010B5054C237833B9044B13B10448AFF3BD
:1001A40000800123237010BD140000200000000013
:1001B400B83B000808B5034B1BB103490348AFF330
:1001C400008008BD0000000018000020B83B0008B3
:1001D40053B94AB9002908BF00281CBF4FF0FF31AA
:1001E4004FF0FF3000F074B9ADF1080C6DE904CEA6
:1001F40000F006F8DDF804E0DDE9022304B07047FE
:100204002DE9F047089D04468E46002B4DD18A42C5
:10021400944669D9B2FA82F252B101FA02F3C2F1F8
:10022400200120FA01F10CFA02FC41EA030E944089
:100234004FEA1C48210CBEFBF8F61FFA8CF708FBAA
:1002440016E341EA034306FB07F199420AD91CEB82
:10025400030306F1FF3080F01F81994240F21C81B4
:10026400023E63445B1AA4B2B3FBF8F008FB1033FC
:1002740044EA034400FB07F7A7420AD91CEB040431
:1002840000F1FF3380F00A81A74240F20781644401
:10029400023840EA0640E41B00261DB1D440002386
:1002A400C5E900433146BDE8F0878B4209D9002DEA
:1002B40000F0EF800026C5E9000130463146BDE874
:1002C400F087B3FA83F6002E4AD18B4202D38242DE
:1002D40000F2F980841A61EB030301209E46002D8D
:1002E400E0D0C5E9004EDDE702B9FFDEB2FA82F2E2
:1002F400002A40F09280A1EB0C014FEA1C471FFA40
:100304008CFE0126200CB1FBF7F307FB131140EA26
:1003140001410EFB03F0884208D91CEB010103F1F3
:10032400FF3802D2884200F2CB804346091AA4B2B5
:10033400B1FBF7F007FB101144EA01440EFB00FE89
:10034400A64508D91CEB040400F1FF3102D2A645EE
:1003540000F2BB800846A4EB0E0440EA03409CE78D
:10036400C6F12007B34022FA07FC4CEA030C20FA3A
:1003740007F401FA06F31C43F9404FEA1C4900FA5A
:1003840006F3B1FBF9F8200C1FFA8CFE09FB1811D7
:1003940040EA014108FB0EF0884202FA06F20BD94A
:1003A4001CEB010108F1FF3A80F08880884240F29A
:1003B4008580A8F102086144091AA4B2B1FBF9F0DE
:1003C40009FB101144EA014100FB0EFE8E4508D9D9
:1003D4001CEB010100F1FF346CD28E456AD902385E
:1003E400614440EA0840A0FB0294A1EB0E01A14243
:1003F400C846A64656D353D05DB1B3EB080261EBB1
:100404000E0101FA07F722FA06F3F1401F43C5E98A
:10041400007100263146BDE8F087C2F12003D840C0
:100424000CFA02FC21FA03F3914001434FEA1C4702
:100434001FFA8CFEB3FBF7F007FB10360B0C43EAF4
:10044400064300FB0EF69E4204FA02F408D91CEBA4
:10045400030300F1FF382FD29E422DD902386344A2
:100464009B1B89B2B3FBF7F607FB163341EA034142
:1004740006FB0EF38B4208D91CEB010106F1FF3891
:1004840016D28B4214D9023E6144C91A46EA004688
:1004940038E72E46284605E70646E3E61846F8E61A
:1004A4004B45A9D2B9EB020864EB0C0E0138A3E763
:1004B4004646EAE7204694E74046D1E7D0467BE744
:1004C400023B614432E7304609E76444023842E7BC
:1004D400704700BF80B582B002AF00F01FFA00F091
:1004E40017F800F0ADF800F07DF84FF0FF330093FB
:1004F4000523054A2421054800F0CAFE4FF47A700A
:1005040000F07EFAF1E700BF000000203000002078
:1005140080B594B000AF07F12003302200211846C3
:1005240003F040FB07F10C0300221A605A609A6042
:10053400DA601A610023BB60284B1B6C274A43F026
:1005440080531364254B1B6C03F08053BB60BB6862
:1005540000237B60224B1B6823F44043204A43F46E
:10056400004313601E4B1B6803F440437B607B68AD
:1005740001233B624FF480337B620223BB634FF45D
:100584008003FB6304233B6440237B640223BB643A
:100594000723FB6407F12003184602F05BFE0346C1
:1005A400002B01D000F0BAF80F23FB6002233B615B
:1005B400A0237B614FF48053BB610023FB6107F1EF
:1005C4000C030021184603F0BDF80346002B01D0AC
:1005D40000F0A4F800BF5037BD4680BD003802408B
:1005E4000070004080B500AF124B134A1A60114BE3
:1005F400124A5A600F4B00229A600E4B0022DA60B6
:100604000C4B4FF480421A610A4B00225A61094B89
:1006140000229A61074B0022DA61064B00221A621B
:10062400044800F0F1FC0346002B01D000F076F8FA
:1006340000BF80BD3000002000540040A0860100AF
:1006440080B58AB000AF07F1140300221A605A6023
:100654009A60DA601A6100233B612D4B1B6B2C4AB4
:1006640043F0040313632A4B1B6B03F004033B6145
:100674003B690023FB60264B1B6B254A43F0800338
:100684001363234B1B6B03F08003FB60FB680023A5
:10069400BB601F4B1B6B1E4A43F0010313631C4BCF
:1006A4001B6B03F00103BB60BB6800237B60184B2A
:1006B4001B6B174A43F002031363154B1B6B03F0C8
:1006C40002037B607B6800222021124800F082FC38
:1006D4004FF400537B614FF48813BB610023FB612B
:1006E40007F1140319460C4800F0F0FA20237B614B
:1006F4000123BB610023FB6100233B6207F1140368
:100704001946044800F0E2FA00BF2837BD4680BD10
:1007140000380240000002400008024080B400AFEC
:1007240072B600BFFEE7000080B582B000AF0023C0
:100734007B60104B5B6C0F4A43F4804353640D4B56
:100744005B6C03F480437B607B6800233B60094B54
:100754001B6C084A43F080531364064B1B6C03F074
:1007640080533B603B68072000F03EFA00BF083727
:10077400BD4680BD0038024080B58AB000AF7860C5
:1007840007F1140300221A605A609A60DA601A6151
:100794007B681B68214A93423BD100233B61204B79
:1007A4001B6B1F4A43F0020313631D4B1B6B03F0C7
:1007B40002033B613B69C0237B611223BB610023BD
:1007C400FB6103233B6204237B6207F11403194694
:1007D400144800F07BFA0023FB60114B1B6C104A99
:1007E40043F4001313640E4B1B6C03F40013FB60FF
:1007F400FB68002200211F2000F001FA1F2000F0F6
:100804001AFA00220021202000F0F9F9202000F03B
:1008140012FA00BF2837BD4680BD00BF0054004017
:10082400003802400004024080B400AFFEE780B408
:1008340000AFFEE780B400AFFEE780B400AFFEE790
:1008440080B400AFFEE780B400AF00BFBD465DF8E2
:10085400047B704780B400AF00BFBD465DF8047BE5
:10086400704780B400AF00BFBD465DF8047B70479D
:1008740080B500AF00F0A4F800BF80BD80B500AF24
:10088400024800F003FE00BF80BD00BF300000201E
:1008940080B500AF024800F06AFF00BF80BD00BF12
:1008A4003000002080B400AF064BD3F88830054AEE
:1008B40043F47003C2F8883000BFBD465DF8047B82
:1008C400704700BF00ED00E0DFF834D00D480E495A
:1008D4000E4A002302E0D458C4500433C4188C4296
:1008E400F9D30B4A0B4C002301E013600432A242FB
:1008F400FBD3FFF7D7FF03F031F9FFF7EBFD7047A8
:10090400008001200000002014000020F83B0008B3
:100914001400002088000020FEE7000080B500AF2E
:100924000E4B1B680D4A43F4007313600B4B1B689A
:100934000A4A43F480631360084B1B68074A43F474
:1009440080731360032000F04FF9002000F008F8D2
:10095400FFF7EAFE0023184680BD00BF003C0240BA
:1009640080B582B000AF7860124B1A68124B1B78C6
:1009740019464FF47A73B3FBF1F3B2FBF3F3184661
:1009840000F067F90346002B01D001230EE07B68D9
:100994000F2B0AD8002279684FF0FF3000F02FF9AE
:1009A400064A7B681360002300E0012318460837D9
:1009B400BD4680BD08000020100000200C0000206F
:1009C40080B400AF064B1B781A46064B1B681344D1
:1009D400044A136000BFBD465DF8047B704700BF46
:1009E400100000208400002080B400AF034B1B687B
:1009F4001846BD465DF8047B704700BF84000020A4
:100A040080B584B000AF7860FFF7EEFFB8607B6814
:100A1400FB60FB68B3F1FF3F05D00A4B1B781A4615
:100A2400FB681344FB6000BFFFF7DEFF0246BB68B0
:100A3400D31AFA689A42F7D800BF00BF1037BD46F0
:100A440080BD00BF1000002080B485B000AF786086
:100A54007B6803F00703FB600C4BDB68BB60BA6880
:100A64004FF6FF031340BB60FB681A02BB681343D5
:100A740043F0BF6343F40033BB60044ABB68D360F4
:100A840000BF1437BD465DF8047B704700ED00E0FD
:100A940080B400AF044BDB681B0A03F0070318465D
:100AA400BD465DF8047B704700ED00E080B483B080
:100AB40000AF0346FB7197F90730002B0BDBFB7982
:100AC40003F01F02074997F907305B09012000FA78
:100AD40002F241F8232000BF0C37BD465DF8047BC9
:100AE400704700BF00E100E080B483B000AF03466C
:100AF4003960FB7197F90730002B0ADB3B68DAB2E7
:100B04000C4997F907301201D2B20B4483F8002341
:100B14000AE03B68DAB20849FB7903F00F03043BAF
:100B24001201D2B20B441A7600BF0C37BD465DF8F1
:100B3400047B704700E100E000ED00E080B489B080
:100B440000AFF860B9607A60FB6803F00703FB61EB
:100B5400FB69C3F10703042B28BF0423BB61FB69B2
:100B64000433062B02D9FB69033B00E000237B61BD
:100B74004FF0FF32BB6902FA03F3DA43BB681A4051
:100B84007B699A404FF0FF317B6901FA03F3D94343
:100B94007B680B40134318462437BD465DF8047B3D
:100BA4007047000080B582B000AF78607B68013B7D
:100BB400B3F1807F01D301230FE00A4A7B68013B34
:100BC40053600F214FF0FF30FFF78EFF054B0022DB
:100BD4009A60044B07221A60002318460837BD4662
:100BE40080BD00BF10E000E080B582B000AF786047
:100BF4007868FFF729FF00BF0837BD4680BD80B580
:100C040086B000AF0346B9607A60FB7300237B6152
:100C1400FFF73EFF78617A68B9687869FFF78EFF5D
:100C2400024697F90F3011461846FFF75DFF00BFE3
:100C34001837BD4680BD80B582B000AF0346FB7156
:100C440097F907301846FFF731FF00BF0837BD4654
:100C540080BD80B582B000AF78607868FFF7A2FFEE
:100C6400034618460837BD4680BD80B483B000AF44
:100C740078607B6893F83530DBB2022B04D07B6854
:100C840080225A6501230CE07B68052283F8352015
:100C94007B681B681A687B681B6822F001021A6073
:100CA400002318460C37BD465DF8047B704780B4BA
:100CB40083B000AF78607B6893F83530DBB21846B8
:100CC4000C37BD465DF8047B7047000080B489B0E2
:100CD40000AF7860396000237B6100233B6100230F
:100CE400BB610023FB6159E10122FB6902FA03F3B2
:100CF4007B613B681B687A6913403B613A697B6995
:100D04009A4240F048813B685B6803F00303012B7F
:100D140005D03B685B6803F00303022B30D17B688A
:100D24009B68BB61FB695B00032202FA03F3DB43AC
:100D3400BA691340BB613B68DA68FB695B0002FA7D
:100D440003F3BA691343BB617B68BA699A607B6831
:100D54005B68BB610122FB6902FA03F3DB43BA69F6
:100D64001340BB613B685B681B0903F00102FB692C
:100D740002FA03F3BA691343BB617B68BA695A6028
:100D84003B685B6803F00303032B17D07B68DB68C5
:100D9400BB61FB695B00032202FA03F3DB43BA691C
:100DA4001340BB613B689A68FB695B0002FA03F37A
:100DB400BA691343BB617B68BA69DA603B685B68F4
:100DC40003F00303022B23D1FB69DA087B680832A2
:100DD40053F82230BB61FB6903F007039B000F2229
:100DE40002FA03F3DB43BA691340BB613B681A6937
:100DF400FB6903F007039B0002FA03F3BA69134388
:100E0400BB61FB69DA087B680832B96943F82210D0
:100E14007B681B68BB61FB695B00032202FA03F376
:100E2400DB43BA691340BB613B685B6803F00302B0
:100E3400FB695B0002FA03F3BA691343BB617B6885
:100E4400BA691A603B685B6803F44033002B00F016
:100E5400A2800023FB60574B5B6C564A43F48043EB
:100E64005364544B5B6C03F48043FB60FB68524A4D
:100E7400FB699B08023352F82330BB61FB6903F022
:100E840003039B000F2202FA03F3DB43BA69134006
:100E9400BB617B68494A934219D07B68484A9342B4
:100EA40013D07B68474A93420DD07B68464A9342ED
:100EB40007D07B68454A934201D1042308E0072305
:100EC40006E0032304E0022302E0012300E0002300
:100ED400FA6902F0030292009340BA691343BB61BA
:100EE4003549FB699B080233BA6941F82320384B22
:100EF4009B68BB613B69DB43BA691340BB613B68D8
:100F04005B6803F48013002B03D0BA693B69134375
:100F1400BB612F4ABB6993602D4BDB68BB613B69A6
:100F2400DB43BA691340BB613B685B6803F400139D
:100F3400002B03D0BA693B691343BB61244ABB69E4
:100F4400D360234B5B68BB613B69DB43BA691340E5
:100F5400BB613B685B6803F40033002B03D0BA69C0
:100F64003B691343BB611A4ABB695360184B1B6846
:100F7400BB613B69DB43BA691340BB613B685B6897
:100F840003F48033002B03D0BA693B691343BB617C
:100F94000F4ABB691360FB690133FB61FB690F2BCB
:100FA4007FF6A2AE00BF00BF2437BD465DF8047BC8
:100FB400704700BF00380240003801400000024082
:100FC4000004024000080240000C024000100240ED
:100FD400003C014080B483B000AF78600B467B8056
:100FE40013467B707B78002B03D07A887B689A61E8
:100FF40003E07B881A047B689A6100BF0C37BD4606
:101004005DF8047B7047000080B584B000AF786061
:101014007B68002B01D101232BE17B6893F83D30E1
:10102400DBB2002B06D17B68002283F83C20786871
:10103400FFF7A2FB7B68242283F83D207B681B68B2
:101044001A687B681B6822F001021A607B681B68BF
:101054001A687B681B6842F400421A607B681B684C
:101064001A687B681B6822F400421A6002F062FD71
:10107400F8607B685B68814A934207D8FB68804AC2
:10108400934294BF01230023DBB206E0FB687D4A50
:10109400934294BF01230023DBB2002B01D0012330
:1010A400E7E0FB68784AA2FB03239B0CBB607B68E8
:1010B4001B685B6823F03F017B681B68BA680A43BE
:1010C4005A607B681B681B6A23F03F017B685B687E
:1010D4006A4A934202D8BB68013309E0BB684FF403
:1010E400967202FB03F3694AA2FB03239B090133B3
:1010F4007A6812680B4313627B681B68DB6923F40C
:101104004F4222F0FF027B685B685C498B4219D82E
:10111400FB68591E7B685B685B00B1FBF3F3591CE9
:1011240040F6FC730B40002B0AD0FB68591E7B6809
:101134005B685B00B1FBF3F30133C3F30B0351E0D2
:1011440004234FE07B689B68002B11D1FB68581E79
:101154007B6859680B465B000B44B0FBF3F3013327
:10116400C3F30B03002B0CBF01230023DBB212E0FB
:10117400FB68581E7B6859680B469B000B4499001A
:101184000B44B0FBF3F30133C3F30B03002B0CBF8D
:1011940001230023DBB2002B01D0012322E07B6872
:1011A4009B68002B0ED1FB68581E7B6859680B4660
:1011B4005B000B44B0FBF3F30133C3F30B0343F4C1
:1011C40000430FE0FB68581E7B6859680B469B0080
:1011D4000B4499000B44B0FBF3F30133C3F30B034B
:1011E40043F44043796809681343CB617B681B6807
:1011F4001B6823F0C0017B68DA697B681B6A1A43A9
:101204007B681B680A431A607B681B689B6823F42D
:10121400034323F0FF037A6811697A68D2681143A3
:101224007A6812680B4393607B681B68DB6823F061
:10123400FF017B685A697B689B691A437B681B685A
:101244000A43DA607B681B681A687B681B6842F093
:1012540001021A607B6800221A647B68202283F8EA
:101264003D207B6800221A637B68002283F83E20BD
:10127400002318461037BD4680BD00BFA08601007C
:101284007F841E00FF083D0083DE1B43D34D6210A4
:1012940080B588B002AFF8607A601A460B467B814D
:1012A40013463B81FFF7A0FB7861FB6893F83D3060
:1012B400DBB2202B40F0E0807B69009319230122EC
:1012C4007049F86801F0F2FD0346002B01D00223B7
:1012D400D3E0FB6893F83C30012B01D10223CCE02E
:1012E400FB68012283F83C20FB681B681B6803F041
:1012F4000103012B07D0FB681B681A68FB681B6895
:1013040042F001021A60FB681B681A68FB681B68DC
:1013140022F400621A60FB68212283F83D20FB68F6
:10132400102283F83E20FB6800221A64FB687A6866
:101334005A62FB683A895A85FB685B8D9AB2FB68EE
:101344001A85FB68504ADA6279897B693A6AF868D7
:1013540001F082FC0346002B01D001238DE0002321
:101364003B61FB681B685B693B61FB681B689B69AD
:101374003B613B6966E07A69396AF86801F06CFEA2
:101384000346002B0DD0FB681B6C042B07D1FB68B4
:101394001B681A68FB681B6842F400721A60012318
:1013A4006BE0FB685B6A1A78FB681B681A61FB6870
:1013B4005B6A5A1CFB685A62FB685B8D9BB2013BFB
:1013C4009AB2FB685A85FB681B8D013B9AB2FB6895
:1013D4001A85FB681B685B6903F00403042B1BD1AB
:1013E400FB681B8D002B17D0FB685B6A1A78FB68BF
:1013F4001B681A61FB685B6A5A1CFB685A62FB68CB
:101404005B8D9BB2013B9AB2FB685A85FB681B8DCE
:10141400013B9AB2FB681A857A69396AF86801F067
:101424005CFE0346002B0DD0FB681B6C042B07D11C
:10143400FB681B681A68FB681B6842F400721A6038
:1014440001231AE0FB681B8D002B94D1FB681B68F9
:101454001A68FB681B6842F400721A60FB68202259
:1014640083F83D20FB68002283F83E20FB680022BD
:1014740083F83C20002300E0022318461837BD46B9
:1014840080BD00BF020010000000FFFF80B588B0DF
:1014940000AF78600023BB617B681B685B687B617D
:1014A4007B68DB6A3B617B6893F83E30FB737B6847
:1014B40093F83D30BB73FB7B102B03D0FB7B402B9D
:1014C40040F0C1807B681B689B69BB617B681B68BB
:1014D4005B69FB61FB6903F00103002B0DD13B69E0
:1014E400B3F52A0F03D03B69B3F12A4F01D101238D
:1014F40000E00023012B00F03281FB6903F00103BB
:10150400002B0CD07B695B0A03F00103002B06D08F
:10151400786801F084FE786800F083FD92E0FB694E
:10152400DB0803F00103002B09D07B695B0A03F09D
:101534000103002B03D0786800F0F9FD82E0FB6919
:101544005B0803F00103002B09D07B695B0A03F0FD
:101554000103002B03D0786800F013FE72E0BB692E
:101564009B0803F00103002B3BD07B681B685B687E
:1015740003F40063B3F5006F00F0F380FB69DB094B
:1015840003F00103002B0FD07B699B0A03F00103D6
:10159400002B09D0FB699B0803F00103002B03D146
:1015A400786800F0F3F94DE0FB699B0803F0010350
:1015B400002B00F0D6807B695B0A03F00103002B4B
:1015C40000F0CF80BB7B212B03D1786800F07AFA3E
:1015D400C7E0FB7B402B40F0C480786800F0E8FA59
:1015E400BFE07B681B685B6803F40063B3F5006FBE
:1015F40000F0B780FB699B0903F00103002B0FD0B7
:101604007B699B0A03F00103002B09D0FB699B084B
:1016140003F00103002B03D1786800F05DFB11E0B7
:10162400FB699B0803F00103002B00F09A807B699F
:101634005B0A03F00103002B00F09380786800F04C
:1016440006FC8EE08DE07B681B6C002B04D07B686D
:101654001B685B69FB6107E07B681B689B69BB6176
:101664007B681B685B69FB61FB695B0803F0010332
:10167400002B12D07B695B0A03F00103002B0CD012
:101684007B681B6C002B03D07B681B689B69BB6168
:10169400B969786800F0C4FF66E0FB691B0903F0D0
:1016A4000103002B09D07B695B0A03F00103002BC3
:1016B40003D0786800F0FEFF56E0BB7B212B02D0FC
:1016C400BB7B292B25D1FB69DB0903F00103002B2C
:1016D4000FD07B699B0A03F00103002B09D0FB693F
:1016E4009B0803F00103002B03D1786800F0DAFEB5
:1016F40039E0FB699B0803F00103002B33D07B69BD
:101704005B0A03F00103002B2DD0786800F007FF7B
:1017140029E0FB699B0903F00103002B0FD07B69CF
:101724009B0A03F00103002B09D0FB699B0803F01B
:101734000103002B03D1786800F012FF14E0FB6969
:101744009B0803F00103002B0ED07B695B0A03F0B6
:101754000103002B08D0786800F040FF04E000BFCC
:1017640002E000BF00E000BF2037BD4680BD80B569
:101774008AB000AF78607B681B685B693B627B68FA
:101784001B685B68FB6100237B627B6893F83E30D7
:10179400FB763B6A1B0A03F00103002B0ED0FB69A6
:1017A4001B0A03F00103002B08D07B6A43F00103FA
:1017B4007B627B681B686FF480725A613B6A5B0AC8
:1017C40003F00103002B0ED0FB691B0A03F0010395
:1017D400002B08D07B6A43F002037B627B681B68A2
:1017E4006FF400725A613B6A9B0A03F00103002BF9
:1017F4003FD0FB691B0A03F00103002B39D0FB7EA9
:10180400BB767B685B8D9BB27B617B6893F83D30D4
:10181400FB747B681B6BFB60BB7E202B12D17B6946
:10182400002B0FD1FB7C212B08D0FB7C292B05D06E
:10183400FB7C282B06D1FB68212B03D1786801F0AF
:1018440069F816E07B681B686FF480625A617B6AF2
:1018540043F004037B62FB7E102B02D0FB7E402B03
:1018640007D17B681B681A687B681B6842F40072A6
:101874001A603B6ADB0A03F00103002B0ED0FB69FC
:101884001B0A03F00103002B08D07B6A43F0080312
:101894007B627B681B686FF400625A617B6A002B71
:1018A40008D07B681A6C7B6A1A437B681A64786870
:1018B40001F0A0F800BF2837BD4680BD80B483B0D6
:1018C40000AF786000BF0C37BD465DF8047B7047FD
:1018D40080B483B000AF786000BF0C37BD465DF8BC
:1018E400047B704780B483B000AF786000BF0C37CE
:1018F400BD465DF8047B704780B483B000AF786068
:1019040000BF0C37BD465DF8047B704780B483B0DC
:1019140000AF78600B46FB7013463B8000BF0C376A
:10192400BD465DF8047B704780B483B000AF786037
:1019340000BF0C37BD465DF8047B704780B483B0AC
:1019440000AF786000BF0C37BD465DF8047B70477C
:1019540080B483B000AF786000BF0C37BD465DF83B
:10196400047B704780B483B000AF786000BF0C374D
:10197400BD465DF8047B704780B483B000AF7860E7
:1019840000BF0C37BD465DF8047B704780B584B05A
:1019940000AF78607B6893F83D30FB737B6893F805
:1019A4003E30BB737B68DB6ABB607B681B8D002B9E
:1019B40050D1FB7B212B4DD1BB68082B1DD0BB68BC
:1019C400202B1AD0BB6813F5803F16D07B681B68A8
:1019D4005A687B681B6822F4E0625A607B681122B3
:1019E4001A637B68002283F83E207B68202283F8F8
:1019F4003D207868FFF762FF60E07B681B685A68E7
:101A04007B681B6822F4E0625A607B681B681A6872
:101A14007B681B6842F400721A607B6800221A63B8
:101A24007B68202283F83D207B6893F83E30DBB24C
:101A3400402B07D17B68002283F83E207868FFF7AB
:101A44007DFF3BE07B68002283F83E207868FFF747
:101A540035FF33E0FB7B212B05D0BB7B402B2DD105
:101A6400FB7B222B2AD17B685B8D9BB2002B08D198
:101A74007B681B685A687B681B6822F480625A6022
:101A84001CE07B6893F83E30DBB2402B03D17868CE
:101A940000F08EF812E07B685B6A1A787B681B683A
:101AA4001A617B685B6A5A1C7B685A627B685B8D2F
:101AB4009BB2013B9AB27B685A85FFE700BF10379F
:101AC400BD4680BD80B584B000AF78607B68DB6ABA
:101AD400FB607B6893F83D30DBB2212B64D17B68DB
:101AE4005B8D9BB2002B12D07B685B6A1A787B6893
:101AF4001B681A617B685B6A5A1C7B685A627B6844
:101B04005B8D9BB2013B9AB27B685A854CE0FB68C3
:101B1400082B1DD0FB68202B1AD0FB6813F5803FDF
:101B240016D07B681B685A687B681B6822F4E062E5
:101B34005A607B6811221A637B68002283F83E2076
:101B44007B68202283F83D207868FFF7B7FE2BE0FE
:101B54007B681B685A687B681B6822F4E0625A60E1
:101B64007B681B681A687B681B6842F400721A6001
:101B74007B6800221A637B68202283F83D207B68FF
:101B840093F83E30DBB2402B07D17B68002283F808
:101B94003E207868FFF7D2FE06E07B68002283F8D7
:101BA4003E207868FFF78AFE00BF1037BD4680BD2F
:101BB40080B584B000AF78607B6893F83D30FB73E8
:101BC4007B681B6D002B1DD17B68DB6C012B0BD15B
:101BD4007B689B6CDAB27B681B681A617B681B6D3F
:101BE4009A1C7B681A6573E07B689B6C9BB21B1222
:101BF400DAB27B681B681A617B681B6D5A1C7B68B0
:101C04001A6565E07B681B6D012B0BD17B689B6CAF
:101C1400DAB27B681B681A617B681B6D5A1C7B688F
:101C24001A6555E07B681B6D022B51D1FB7B222B7F
:101C34000DD17B681B681A687B681B6842F480724C
:101C44001A607B681B6D5A1C7B681A6540E07B68D0
:101C54005B8D9BB2002B15D0FB7B212B12D17B68B3
:101C64005B6A1A787B681B681A617B685B6A5A1C1A
:101C74007B685A627B685B8D9BB2013B9AB27B683E
:101C84005A8525E07B685B8D9BB2002B20D1FB7BC2
:101C9400212B1DD17B681B685A687B681B6822F462
:101CA400E0625A607B681B681A687B681B6842F4B0
:101CB40000721A607B6800221A637B68202283F812
:101CC4003D207B68002283F83E207868FFF736FECB
:101CD40000BF1037BD4680BD80B584B000AF7860CA
:101CE4007B6893F83D30DBB2222B40F0AC807B68FC
:101CF4005B8D9BB2FB60FB68032B21D97B681B685F
:101D04001A697B685B6AD2B21A707B685B6A5A1C78
:101D14007B685A627B685B8D9BB2013B9AB27B689D
:101D24005A857B685B8D9BB2032B40F08C807B686B
:101D34001B685A687B681B6822F480625A6082E0E0
:101D44007B68DB6A022B75D0FB68012B02D0FB6831
:101D5400002B6FD1786801F001FA0346002B42D1C1
:101D64007B681B681A687B681B6822F480621A60AF
:101D74007B681B685A687B681B6822F4E0625A60BF
:101D84007B681B681A697B685B6AD2B21A707B68CD
:101D94005B6A5A1C7B685A627B685B8D9BB2013B11
:101DA4009AB27B685A857B68202283F83D207B6841
:101DB40093F83E30DBB2402B0AD17B68002283F8D3
:101DC4003E207B6800221A637868FFF7C1FD3AE081
:101DD4007B68002283F83E207B6812221A637868AD
:101DE400FFF776FD2FE07B681B685A687B681B68E9
:101DF40022F4E0625A607B681B681A697B685B6A3C
:101E0400D2B21A707B685B6A5A1C7B685A627B6820
:101E14005B8D9BB2013B9AB27B685A857B6820221A
:101E240083F83D207B68002283F83E207868FFF722
:101E340099FD08E07B681B685A687B681B6822F47C
:101E440080625A60FFE700BF1037BD4680BD80B591
:101E540084B000AF78607B68DB6AFB607B685B8D75
:101E64009BB2042B1BD17B681B685A687B681B6878
:101E740022F480625A607B681B681A697B685B6A1B
:101E8400D2B21A707B685B6A5A1C7B685A627B68A0
:101E94005B8D9BB2013B9AB27B685A85BDE07B683F
:101EA4005B8D9BB2032B29D17B681B685A687B68C6
:101EB4001B6822F480625A60FB68042B0AD0FB681A
:101EC400022B07D07B681B681A687B681B6822F4A6
:101ED40080621A607B681B681A697B685B6AD2B28D
:101EE4001A707B685B6A5A1C7B685A627B685B8DDC
:101EF4009BB2013B9AB27B685A858EE07B685B8D0E
:101F04009BB2022B76D1FB68012B02D0FB68102B0D
:101F140008D17B681B681A687B681B6822F480629E
:101F24001A6019E0FB68042B02D0FB68022B08D16D
:101F34007B681B681A687B681B6842F480621A60BD
:101F44000AE0FB68102B07D07B681B681A687B6863
:101F54001B6842F400721A607B681B681A697B680C
:101F64005B6AD2B21A707B685B6A5A1C7B685A62DD
:101F74007B685B8D9BB2013B9AB27B685A857B6818
:101F84001B681A697B685B6AD2B21A707B685B6AE9
:101F94005A1C7B685A627B685B8D9BB2013B9AB288
:101FA4007B685A857B681B685A687B681B6822F4C7
:101FB40040725A607B68202283F83D207B6893F846
:101FC4003E30DBB2402B0AD17B68002283F83E20EE
:101FD4007B6800221A637868FFF7BAFC1DE07B680F
:101FE400002283F83E207B6812221A637868FFF788
:101FF4006FFC12E07B681B681A697B685B6AD2B26B
:102004001A707B685B6A5A1C7B685A627B685B8DBA
:102014009BB2013B9AB27B685A8500BF1037BD461C
:1020240080BD80B483B000AF78607B6893F83E30A5
:10203400DBB2402B17D17B681B6D002B09D17B6869
:102044005B6CDBB21A467B681B6802F0FE021A6105
:1020540067E07B685B6CDBB243F00103DAB27B6858
:102064001B681A615DE07B681B69B3F5804F33D14F
:102074007B6893F83D30DBB2212B09D17B685B6C24
:10208400DBB21A467B681B6802F0FE021A6108E0A4
:102094007B685B6CDBB243F00103DAB27B681B68DC
:1020A4001A617B685B6B002B04D07B685B6BDB6B1A
:1020B400002B08D17B689B6B002B32D07B689B6B19
:1020C400DB6B002B2DD07B681B685A687B681B6810
:1020D40042F400625A6024E07B681B6D002B0ED131
:1020E4007B685B6C9BB2DB11DBB203F00603DBB2F3
:1020F40063F00F03DAB27B681B681A6111E07B6836
:102104001B6D012B0DD17B685B6C9BB2DB11DBB2C9
:1021140003F00603DBB263F00E03DAB27B681B68DC
:102124001A6100BF0C37BD465DF8047B704780B46C
:1021340083B000AF78607B685B6CDAB27B681B6845
:102144001A617B685B6B002B04D07B685B6BDB6B79
:10215400002B08D17B689B6B002B0CD07B689B6B9E
:10216400DB6B002B07D07B681B685A687B681B6895
:1021740042F400625A6000BF0C37BD465DF8047B30
:10218400704780B491B000AF78607B6893F83E30BC
:1021940087F83F307B68DB6ABB637B681B6B7B63C0
:1021A4007B6893F83D30DBB2222B40F069817B6879
:1021B4001B6D002B0FD197F83F30402B0BD1002320
:1021C4003B637B681B685B693B637B681B689B693B
:1021D4003B633B6B60E17B681B6D002B1DD17B680F
:1021E4001B69B3F5404F18D10023FB627B681B6861
:1021F4005B69FB627B681B689B69FB62FB6A7B68AB
:102204001B681A687B681B6842F480721A607B68DA
:102214001B6D5A1C7B681A653EE17B685B8D9BB223
:10222400002B13D10023BB627B681B685B69BB6214
:102234007B681B689B69BB62BB6A7B681B681A6806
:102244007B681B6842F400721A6015E17B685B8D41
:102254009BB2012B40F08A80BB6B13F5803F37D1D2
:102264007B681B681A687B681B6822F480621A60AA
:102274007B681B685B6803F40063B3F5006F13D1DC
:102284007B681B681A687B681B6822F480621A608A
:1022940000237B627B681B685B697B627B681B68CD
:1022A4009B697B627B6AE7E000233B627B681B6877
:1022B4005B693B627B681B689B693B623B6A7B682A
:1022C4001B681A687B681B6842F400721A60D3E0CA
:1022D400BB6B082B2ED0BB6B202B2BD07B6B122B14
:1022E40002D1BB6B012B25D1BB6B042B0ED0BB6B76
:1022F400022B0BD0BB6B102B08D07B681B681A68B1
:102304007B681B6822F480621A6007E07B681B68A4
:102314001A687B681B6842F480621A600023FB61C0
:102324007B681B685B69FB617B681B689B69FB615D
:10233400FB69A1E07B681B681A687B681B6822F450
:1023440080621A600023BB617B681B685B69BB61A8
:102354007B681B689B69BB61BB697B681B681A68E7
:102364007B681B6842F400721A6085E07B685B8DB1
:102374009BB2022B4DD1BB6B042B16D0BB6B022B33
:1023840013D0BB6B102B10D07B681B681A687B685A
:102394001B6822F480621A607B681B681A687B6879
:1023A4001B6842F400621A6007E07B681B681A68C5
:1023B4007B681B6842F480621A607B681B685B68F8
:1023C40003F40063B3F5006F17D1BB6B13F5803FC3
:1023D4000BD0BB6B012B08D0BB6B082B05D0BB6BA0
:1023E400102B02D0BB6B202B07D17B681B685A686B
:1023F4007B681B6842F480525A6000237B617B68CF
:102404001B685B697B617B681B689B697B617B697B
:1024140032E07B681B681A687B681B6842F4806240
:102424001A607B681B685B6803F40063B3F5006F94
:1024340017D1BB6B13F5803F0BD0BB6B012B08D0BE
:10244400BB6B082B05D0BB6B102B02D0BB6B202BB6
:1024540007D17B681B685A687B681B6842F480520A
:102464005A6000233B617B681B685B693B617B6846
:102474001B689B693B613B697B6800221A650BE022
:102484000023FB607B681B685B69FB607B681B68DF
:102494009B69FB60FB68FFE700BF4437BD465DF8FE
:1024A400047B704780B584B000AF78607B6893F894
:1024B4003D30FB737B685B8D9BB2002B2BD07B681C
:1024C4005B6A1A787B681B681A617B685B6A5A1CB2
:1024D4007B685A627B685B8D9BB2013B9AB27B68D6
:1024E4005A857B685B8D9BB2002B14D1FB7B292B17
:1024F40011D17B681B685A687B681B6822F4806270
:102504005A607B6821221A637B68282283F83D2065
:102514007868FFF7E7F900BF1037BD4680BD80B487
:1025240083B000AF78607B685B8D9BB2002B11D0C9
:102534007B685B6A1A787B681B681A617B685B6AD4
:102544005A1C7B685A627B685B8D9BB2013B9AB2D2
:102554007B685A8500BF0C37BD465DF8047B704725
:1025640080B584B000AF78607B6893F83D30FB732E
:102574007B685B8D9BB2002B2CD07B681B681A692F
:102584007B685B6AD2B21A707B685B6A5A1C7B6890
:102594005A627B685B8D9BB2013B9AB27B685A8519
:1025A4007B685B8D9BB2002B14D1FB7B2A2B11D152
:1025B4007B681B685A687B681B6822F480625A60D7
:1025C4007B6822221A637B68282283F83D2078687E
:1025D400FFF792F900BF1037BD4680BD80B483B0C9
:1025E40000AF78607B685B8D9BB2002B12D07B6858
:1025F4001B681A697B685B6AD2B21A707B685B6A73
:102604005A1C7B685A627B685B8D9BB2013B9AB211
:102614007B685A8500BF0C37BD465DF8047B704764
:1026240080B584B000AF786039600023FB737B68A9
:1026340093F83D30DBB203F02803282B27D17B68C5
:102644001B685A687B681B6822F480625A603B6886
:102654009B0803F00103002B01D10123FB733B68AA
:10266400DB0903F00103002B03D17B68DB68BB812A
:1026740002E07B689B69BB817B68002283F83C2075
:10268400BA89FB7B19467868FFF740F90EE000230E
:10269400BB607B681B685B69BB607B681B689B696C
:1026A400BB60BB687B68002283F83C2000BF103706
:1026B400BD4680BD80B584B000AF78607B6893F878
:1026C4003D30FB737B681B685A687B681B6822F487
:1026D400E0625A600023BB607B681B685B69BB6077
:1026E4007B681B681A687B681B6842F001021A60E9
:1026F400BB687B681B681A687B681B6822F480626D
:102704001A607B681B685B6803F40063B3F5006FB1
:1027140072D1FB7B222B02D0FB7B2A2B35D17B6829
:102724009B6B1B685B689AB27B685A857B685B8D80
:102734009BB2002B05D07B681B6C43F004027B68C2
:102744001A647B681B685A687B681B6822F4006201
:102754005A607B689B6B1846FEF7A9FA0346012B67
:1027640049D07B689B6B694A1A657B689B6B1846EA
:10277400FEF77BFA0346002B3DD07B689B6B1B6DF9
:102784007A68926B1046984735E07B685B6B1B68F0
:102794005B689AB27B685A857B685B8D9BB2002B21
:1027A40005D07B681B6C43F004027B681A647B6869
:1027B4001B685A687B681B6822F400625A607B6855
:1027C4005B6B1846FEF773FA0346012B14D07B6843
:1027D4005B6B4E4A1A657B685B6B1846FEF745FADD
:1027E4000346002B08D07B685B6B1B6D7A68526BC9
:1027F4001046984700E000BF7B685B8D9BB2002BBE
:102804003ED07B681B685B6903F00403042B12D180
:102814007B681B681A697B685B6AD2B21A707B6832
:102824005B6A5A1C7B685A627B685B8D9BB2013B76
:102834009AB27B685A857B681B685B6903F0400326
:10284400402B12D17B681B681A697B685B6AD2B221
:102854001A707B685B6A5A1C7B685A627B685B8D62
:102864009BB2013B9AB27B685A857B685B8D9BB2B5
:10287400002B05D07B681B6C43F004027B681A6450
:102884007B681B6C002B03D0786800F0B3F839E048
:10289400FB7B2A2B09D17B6800221A637B682822E0
:1028A40083F83D207868FFF727F87B6893F83D307C
:1028B400DBB2282B11D17B68154ADA627B680022CF
:1028C4001A637B68202283F83D207B68002283F80A
:1028D4003E207868FFF728F814E07B681B6B222BF6
:1028E40002D0FB7B222B0DD17B6800221A637B680C
:1028F400202283F83D207B68002283F83E207868FC
:10290400FEF7FAFF00BF1037BD4680BD612D0008F9
:102914000000FFFF80B584B000AF78607B6893F857
:102924003D30FB737B68DB6ABB60BB68082B02D05D
:10293400BB68202B29D1FB7B282B26D17B682C4A12
:10294400DA627B681B685A687B681B6822F4E06261
:102954005A607B681B686FF480625A617B681B68ED
:102964001A687B681B6822F480621A607B68002204
:102974001A637B68202283F83D207B68002283F859
:102984003E207868FEF7D0FF2EE0FB7B212B26D17A
:102994007B68174ADA627B6821221A637B682022EB
:1029A40083F83D207B68002283F83E207B681B6807
:1029B4005A687B681B6822F4E0625A607B681B6873
:1029C4006FF480625A617B681B681A687B681B68B5
:1029D40022F480621A607868FEF784FF04E07B6862
:1029E4001B686FF480625A6100BF1037BD4680BD1A
:1029F4000000FFFF80B584B000AF78607B6893F877
:102A04003D30FB737B6893F83E30BB73BB7B102B6C
:102A140002D0BB7B402B0AD1FB7B222B07D17B68E6
:102A24001B681A687B681B6822F400621A60FB7BCF
:102A340003F02803282B07D17B6800221A637B68E4
:102A4400282283F83D2015E07B681B685B6803F44B
:102A54000063B3F5006F0AD0FB7B602B07D07B6863
:102A6400202283F83D207B68002283F83E207B6887
:102A740000221A637B681B685B6803F40063B3F588
:102A8400006F62D17B681B685A687B681B6822F4FC
:102A940000625A607B685B6B93F83530DBB2012BC4
:102AA40020D07B685B6B6A4A1A657B685B6B18464F
:102AB400FEF7DBF80346002B00F089807B681B6877
:102AC4001A687B681B6822F001021A607B68202266
:102AD40083F83D207B685B6B1B6D7A68526B1046F4
:102AE400984774E07B689B6B594A1A657B689B6BBB
:102AF4001846FEF7BAF80346002B68D07B681B68BB
:102B04005B6903F04003402B0BD17B681B681A6997
:102B14007B685B6AD2B21A707B685B6A5A1C7B68FA
:102B24005A627B681B681A687B681B6822F0010282
:102B34001A607B68202283F83D207B689B6B1B6DA9
:102B44007A68926B1046984741E07B6893F83D3071
:102B5400DBB2602B25D17B68202283F83D207B6883
:102B640000221A647B681B685B6903F04003402BF6
:102B74000BD17B681B681A697B685B6AD2B21A70D6
:102B84007B685B6A5A1C7B685A627B681B681A689C
:102B94007B681B6822F001021A607868FEF7ECFE7D
:102BA40015E07B681B685B6903F04003402B0BD185
:102BB4007B681B681A697B685B6AD2B21A707B688F
:102BC4005B6A5A1C7B685A627868FEF7CBFE7B68A6
:102BD4001B6CBB60BB6803F00103002B0ED1BB6808
:102BE40003F00203002B09D1BB6803F00403002B9C
:102BF40004D1BB6803F00803002B07D07B681B6873
:102C04005A687B681B6822F4E0625A607B6893F818
:102C14003D30FB737B681B6C03F00403042B13D15E
:102C2400FB7B282B10D17B680A4ADA627B6800227E
:102C34001A637B68202283F83D207B68002283F896
:102C44003E207868FEF770FE00BF1037BD4680BD99
:102C5400612D00080000FFFF80B588B002AFF86066
:102C64007A603B600B467B81FB68DB6A7B617B6936
:102C7400082B06D07B69012B03D07B6913F5803FB9
:102C840008D1FB681B681A68FB681B6842F48072F1
:102C94001A600BE0FB681B6B122B07D1FB681B68E7
:102CA4001A68FB681B6842F480721A603B680093E0
:102CB4007B6800224FF00111F86800F0F7F8034632
:102CC400002B0DD0FB681B681B6803F48073B3F5FD
:102CD400807F03D1FB684FF400721A64032335E04C
:102CE400FB681B69B3F5804F08D17B89DBB21A46B8
:102CF400FB681B6802F0FE021A611BE07B89DB1192
:102D0400DBB203F00603DBB263F00F03DAB2FB6855
:102D14001B681A613B687A680E49F86800F01DF96F
:102D24000346002B01D0012310E07B89DAB2FB6853
:102D34001B681A613B687A680749F86800F00DF966
:102D44000346002B01D0012300E000231846183766
:102D5400BD4680BD080001000200010080B586B0B8
:102D640000AF78600023FB607B689B6B7B617B69B1
:102D740093F83D30FB744B4B1B68DB084A4AA2FBBB
:102D840003231A0A13469B001344DA00D31AFB6088
:102D9400FB68002B06D17B691B6C43F020027B6926
:102DA4001A640AE0FB68013BFB607B691B681B68D3
:102DB40003F40073B3F5007FEAD07B695B6B002BEF
:102DC40003D07B695B6B0022DA637B699B6B002B0E
:102DD40003D07B699B6B0022DA637B691B681A68EA
:102DE4007B691B6822F480621A607B6900225A8521
:102DF4007B695B6B002B03D07B695B6B00221A65DC
:102E04007B699B6B002B03D07B699B6B00221A654B
:102E14007B691B681A687B691B6822F001021A60CF
:102E24007B6993F83D30DBB2602B0ED17B692022A5
:102E340083F83D207B69002283F83E207B690022D1
:102E44001A647869FEF798FD27E0FB7C03F02803F9
:102E5400282B17D17B691B681A687B691B6842F0B1
:102E640001021A607B691B681A687B691B6842F45B
:102E740080621A607B6900221A637B69282283F8C6
:102E84003D2007E07B69202283F83D207B690022F6
:102E940083F83E207869FEF765FD00BF1837BD460C
:102EA40080BD00BF0800002089B5F81480B584B047
:102EB40000AFF860B9603B601346FB7125E03B68E6
:102EC400B3F1FF3F21D0FDF78FFD0246BB69D31A52
:102ED4003A689A4202D33B68002B16D1FB68002261
:102EE4001A63FB68202283F83D20FB68002283F8E4
:102EF4003E20FB681B6C43F02002FB681A64FB68ED
:102F0400002283F83C20012323E0BB681B0CDBB2C6
:102F1400012B0DD1FB681B685B69DA43BB68134066
:102F24009BB2002B0CBF01230023DBB21A460CE03A
:102F3400FB681B689B69DA43BB6813409BB2002B98
:102F44000CBF01230023DBB21A46FB799A42B6D0A8
:102F5400002318461037BD4680BD80B584B000AF4D
:102F6400F860B9607A603B6051E0FB681B685B699C
:102F740003F48063B3F5806F23D1FB681B681A6880
:102F8400FB681B6842F400721A60FB681B686FF4EC
:102F940080625A61FB6800221A63FB68202283F86E
:102FA4003D20FB68002283F83E20FB681B6C43F045
:102FB4000402FB681A64FB68002283F83C200123A6
:102FC40046E07B68B3F1FF3F21D0FDF70DFD0246DB
:102FD4003B68D31A7A689A4202D37B68002B16D1D5
:102FE400FB6800221A63FB68202283F83D20FB68FB
:102FF400002283F83E20FB681B6C43F02002FB6830
:103004001A64FB68002283F83C20012320E0BB689B
:103014001B0CDBB2012B0CD1FB681B685B69DA4328
:10302400BB6813409BB2002B14BF01230023DBB207
:103034000BE0FB681B689B69DA43BB6813409BB2D7
:10304400002B14BF01230023DBB2002B8DD10023FE
:1030540018461037BD4680BD80B584B000AFF86017
:10306400B9607A602DE0F86800F0AAF80346002BF6
:1030740001D001232DE0BB68B3F1FF3F21D0FDF760
:10308400B3FC02467B68D31ABA689A4202D3BB687F
:10309400002B16D1FB6800221A63FB68202283F8F8
:1030A4003D20FB68002283F83E20FB681B6C43F044
:1030B4002002FB681A64FB68002283F83C20012389
:1030C40007E0FB681B685B6903F08003802BCAD1AF
:1030D400002318461037BD4680BD80B584B000AFCC
:1030E400F860B9607A602DE0F86800F069F803468A
:1030F400002B01D001232DE0BB68B3F1FF3F21D0A9
:10310400FDF772FC02467B68D31ABA689A4202D36E
:10311400BB68002B16D1FB6800221A63FB682022CF
:1031240083F83D20FB68002283F83E20FB681B6C7B
:1031340043F02002FB681A64FB68002283F83C20F9
:10314400012307E0FB681B685B6903F00403042B9D
:10315400CAD1002318461037BD4680BD80B485B05F
:1031640000AF78600023FB60134B1B68DB08134A35
:10317400A2FB03231A0A13469B001344FB60FB685B
:10318400013BFB60FB68002B07D17B681B6C43F0A1
:1031940020027B681A64012308E07B681B681B68B3
:1031A40003F40073B3F5007FE9D000231846143705
:1031B400BD465DF8047B70470800002089B5F8140B
:1031C40080B483B000AF78607B681B685B6903F4EC
:1031D4008063B3F5806F1BD17B681B686FF48062DA
:1031E4005A617B6800221A637B68202283F83D20A1
:1031F4007B68002283F83E207B681B6C43F004024A
:103204007B681A647B68002283F83C20012300E079
:10321400002318460C37BD465DF8047B704780B424
:1032240083B000AF78607B68DB6AB3F52A0F03D103
:103234007B680122DA6207E07B68DB6AB3F12A4F1C
:1032440002D17B680822DA6200BF0C37BD465DF804
:10325400047B704780B586B000AF78607B68002B34
:1032640001D1012367E27B681B6803F00103002B93
:1032740075D0884B9B6803F00C03042B0CD0854B52
:103284009B6803F00C03082B12D1824B5B6803F498
:103294008003B3F5800F0BD17E4B1B6803F400331E
:1032A400002B5BD07B685B68002B57D1012342E283
:1032B4007B685B68B3F5803F06D1764B1B68754A23
:1032C40043F4803313601DE07B685B68B3F5A02F83
:1032D4000CD1704B1B686F4A43F4802313606D4B11
:1032E4001B686C4A43F4803313600BE0694B1B6822
:1032F400684A23F480331360664B1B68654A23F4E1
:10330400802313607B685B68002B13D0FDF76CFB94
:10331400386108E0FDF768FB02463B69D31A642B69
:1033240001D9032307E25B4B1B6803F40033002B32
:10333400F0D014E0FDF758FB386108E0FDF754FBCA
:1033440002463B69D31A642B01D90323F3E1514BA1
:103354001B6803F40033002BF0D100E000BF7B684E
:103364001B6803F00203002B63D04A4B9B6803F0F5
:103374000C03002B0BD0474B9B6803F00C03082B6A
:103384001CD1444B5B6803F48003002B16D1414BE2
:103394001B6803F00203002B05D07B68DB68012B5C
:1033A40001D00123C7E13B4B1B6823F0F8027B6883
:1033B4001B69DB00374913430B603AE07B68DB6829
:1033C400002B20D0344B01221A60FDF70DFB38612D
:1033D40008E0FDF709FB02463B69D31A022B01D929
:1033E4000323A8E12B4B1B6803F00203002BF0D04E
:1033F400284B1B6823F0F8027B681B69DB00254916
:1034040013430B6015E0244B00221A60FDF7ECFA1D
:10341400386108E0FDF7E8FA02463B69D31A022B4B
:1034240001D9032387E11B4B1B6803F00203002B24
:10343400F0D17B681B6803F00803002B36D07B684F
:103444005B69002B16D0154B01221A60FDF7CCFAEC
:10345400386108E0FDF7C8FA02463B69D31A022B2B
:1034640001D9032367E10B4B5B6F03F00203002BCD
:10347400F0D01BE0094B00221A60FDF7B5FA386161
:103484000EE0FDF7B1FA02463B69D31A022B07D9C5
:10349400032350E10038024000004742800E4742B7
:1034A400884B5B6F03F00203002BEAD17B681B6837
:1034B40003F00403002B00F097800023FB75814B7D
:1034C4001B6C03F08053002B0FD10023BB607D4B9A
:1034D4001B6C7C4A43F0805313647A4B1B6C03F0DF
:1034E4008053BB60BB680123FB75774B1B6803F4F7
:1034F4008073002B18D1744B1B68734A43F4807398
:103504001360FDF771FA386108E0FDF76DFA0246C1
:103514003B69D31A022B01D903230CE16A4B1B68C4
:1035240003F48073002BF0D07B689B68012B06D1D9
:10353400644B1B6F634A43F0010313671CE07B6811
:103544009B68052B0CD15F4B1B6F5E4A43F0040351
:1035540013675C4B1B6F5B4A43F0010313670BE07B
:10356400584B1B6F574A23F001031367554B1B6FCE
:10357400544A23F0040313677B689B68002B15D01F
:10358400FDF732FA38610AE0FDF72EFA02463B698C
:10359400D31A41F28832934201D90323CBE0494B39
:1035A4001B6F03F00203002BEED014E0FDF71CFAAE
:1035B40038610AE0FDF718FA02463B69D31A41F272
:1035C4008832934201D90323B5E03E4B1B6F03F0CD
:1035D4000203002BEED1FB7D012B05D1394B1B6C73
:1035E400384A23F0805313647B689B69002B00F0F6
:1035F400A180344B9B6803F00C03082B5CD07B68E0
:103604009B69022B41D1314B00221A60FDF7ECF982
:10361400386108E0FDF7E8F902463B69D31A022B4A
:1036240001D9032387E0274B1B6803F00073002BA9
:10363400F0D17B68DA697B681B6A1A437B685B6A32
:103644009B011A437B689B6A5B08013B1B041A437A
:103654007B68DB6A1B061B4913434B601B4B01222F
:103664001A60FDF7C1F9386108E0FDF7BDF90246BB
:103674003B69D31A022B01D903235CE0114B1B686D
:1036840003F00073002BF0D054E0104B00221A60BA
:10369400FDF7AAF9386108E0FDF7A6F902463B698F
:1036A400D31A022B01D9032345E0064B1B6803F010
:1036B4000073002BF0D13DE07B689B69012B07D19F
:1036C400012338E0003802400070004060004742A7
:1036D4001B4B5B68FB607B689B69012B28D0FB68F4
:1036E40003F480027B68DB699A4221D1FB6803F012
:1036F4003F027B681B6A9A421AD1FA6847F6C07384
:1037040013407A68526A9201934211D1FB6803F420
:1037140040327B689B6A5B08013B1B049A4207D1D9
:10372400FB6803F070627B68DB6A1B069A4201D077
:10373400012300E0002318461837BD4680BD00BFB2
:103744000038024080B584B000AF786039607B688F
:10375400002B01D10123CCE0684B1B6803F0070365
:103764003A689A420CD9654B3A68D2B21A70634BE4
:103774001B6803F007033A689A4201D00123B8E0BA
:103784007B681B6803F00203002B20D07B681B6856
:1037940003F00403002B05D0594B9B68584A43F4AB
:1037A400E05393607B681B6803F00803002B05D08B
:1037B400534B9B68524A43F460439360504B9B685D
:1037C40023F0F0027B689B684D4913438B607B6850
:1037D4001B6803F00103002B44D07B685B68012B5A
:1037E40007D1474B1B6803F40033002B19D1012385
:1037F4007FE07B685B68022B03D07B685B68032BEC
:1038040007D13F4B1B6803F00073002B09D1012340
:103814006FE03B4B1B6803F00203002B01D1012333
:1038240067E0374B9B6823F003027B685B6834498D
:1038340013438B60FDF7D8F8F8600AE0FDF7D4F87D
:103844000246FB68D31A41F28832934201D903231A
:103854004FE02B4B9B6803F00C027B685B689B007A
:103864009A42EBD1254B1B6803F007033A689A424E
:103874000CD2224B3A68D2B21A70204B1B6803F068
:1038840007033A689A4201D0012332E07B681B683F
:1038940003F00403002B08D0194B9B6823F4E05277
:1038A4007B68DB68164913438B607B681B6803F0F5
:1038B4000803002B09D0124B9B6823F460427B68F9
:1038C4001B69DB000E4913438B6000F021F80246AC
:1038D4000B4B9B681B0903F00F030A49CB5C22FACC
:1038E40003F3094A1360094B1B681846FDF738F8BF
:1038F400002318461037BD4680BD00BF003C02407F
:1039040000380240D03B0008080000200C000020D2
:103914002DE9B04F94B000AF00237B640023FB6417
:1039240000233B640023BB64794B9B6803F00C03C6
:10393400082B0DD0082B00F2E180002B02D0042BC1
:1039440003D0DBE0734BBB64DBE0734BBB64D8E0B8
:103954006F4B5B6803F03F037B646D4B5B6803F460
:103964008003002B63D06A4B5B689B090022BB6316
:10397400FA63BB6BC3F308033B6300237B63D7E9A0
:103984000C4522462B464FF000004FF00001590130
:1039940041EAD261500102460B462146511A39616F
:1039A400294663EB01037B614FF000024FF00003F3
:1039B400D7E904AB59468B01514643EA916351461A
:1039C4008A015146B2EB0108594663EB01094FF0F5
:1039D40000024FF000034FEAC90343EA58734FEA69
:1039E400C80290469946234618EB0303BB602B4656
:1039F40049EB0303FB604FF000024FF00003D7E9EB
:103A0400024529464B02214643EAD15321464A0244
:103A1400104619467B6C0022BB62FA62D7E90A237E
:103A2400FCF7D6FB02460B461346FB6458E0384BC2
:103A34005B689B09002218461146C0F308033B62E9
:103A440000237B62D7E9088942464B464FF00000C9
:103A54004FF00001590141EAD261500102460B4680
:103A64004146B2EB010A494663EB010B4FF00002F9
:103A74004FF000034FEA8B1343EA9A634FEA8A122A
:103A8400B2EB0A0463EB0B054FF000024FF00003A6
:103A9400EB0043EA5473E20014461D464346E31820
:103AA4003B604B4645EB03037B604FF000024FF055
:103AB4000003D7E9004529468B02214643EA915386
:103AC40021468A02104619467B6C0022BB61FA61CA
:103AD400D7E90623FCF77CFB02460B461346FB643E
:103AE4000B4B5B681B0C03F0030301335B003B646B
:103AF400FA6C3B6CB2FBF3F3BB6402E0054BBB64B2
:103B040000BFBB6C18465037BD46BDE8B08F00BF40
:103B1400003802400024F40000127A0080B400AFA0
:103B2400034B1B681846BD465DF8047B704700BF15
:103B34000800002080B500AFFFF7F0FF0246054BF8
:103B44009B689B0A03F007030349CB5C22FA03F347
:103B5400184680BD00380240E03B000870B50D4DAA
:103B64000D4C641BA4100026A64209D10B4D0C4C2D
:103B740000F020F8641BA4100026A64205D170BDF5
:103B840055F8043B98470136EEE755F8043B98474F
:103B94000136F2E7F03B0008F03B0008F03B000878
:103BA400F43B000802440346934200D1704703F8F3
:103BB400011BF9E7F8B500BFF8BC08BC9E46704786
:0C3BC400F8B500BFF8BC08BC9E46704776
:103BD00000000000000000000102030406070809BD
:083BE0000000000001020304D3
:083BE8001CC6FF7F0100000074
:043BF000B90100080F
:043BF400950100082F
:103BF80048656C6C6F0000000024F40010000000A1
:043C080001000000B7
:04000005080008CD1A
:00000001FF
