:020000040800F2
:1000000000800120C5080008390800083F080008E2
:10001000450800084B0800085108000800000000CF
:100020000000000000000000000000005708000869
:100030006508000800000000730800088108000837
:100040001509000815090008150900081509000818
:100050001509000815090008150900081509000808
:1000600015090008150900081509000815090008F8
:1000700015090008150900081509000815090008E8
:1000800015090008150900081509000800000000FE
:10009000000000000000000000000000150900083A
:1000A00015090008150900081509000815090008B8
:1000B0001509000815090008150900088D08000831
:1000C0001509000815090008150900081509000898
:1000D00015090008150900081509000800000000AE
:1000E000150900081509000815090008000000009E
:1000F00000000000000000000000000015090008DA
:10010000000000001509000815090008150900087D
:1001100000000000000000000000000000000000DF
:100120001509000815090008150900081509000837
:100130001509000800000000000000000000000099
:100140000000000000000000000000001509000889
:100150001509000815090008150900081509000807
:100160001509000815090008000000000000000043
:10017000000000000000000000000000000000007F
:100180000000000015090008000000000000000049
:040190001509000845
:1001940010B5054C237833B9044B13B10448AFF3BD
:1001A40000800123237010BD0C000020000000001B
:1001B4000439000808B5034B1BB103490348AFF3E6
:1001C400008008BD00000000100000200439000871
:1001D40053B94AB9002908BF00281CBF4FF0FF31AA
:1001E4004FF0FF3000F074B9ADF1080C6DE904CEA6
:1001F40000F006F8DDF804E0DDE9022304B07047FE
:100204002DE9F047089D04468E46002B4DD18A42C5
:10021400944669D9B2FA82F252B101FA02F3C2F1F8
:10022400200120FA01F10CFA02FC41EA030E944089
:100234004FEA1C48210CBEFBF8F61FFA8CF708FBAA
:1002440016E341EA034306FB07F199420AD91CEB82
:10025400030306F1FF3080F01F81994240F21C81B4
:10026400023E63445B1AA4B2B3FBF8F008FB1033FC
:1002740044EA034400FB07F7A7420AD91CEB040431
:1002840000F1FF3380F00A81A74240F20781644401
:10029400023840EA0640E41B00261DB1D440002386
:1002A400C5E900433146BDE8F0878B4209D9002DEA
:1002B40000F0EF800026C5E9000130463146BDE874
:1002C400F087B3FA83F6002E4AD18B4202D38242DE
:1002D40000F2F980841A61EB030301209E46002D8D
:1002E400E0D0C5E9004EDDE702B9FFDEB2FA82F2E2
:1002F400002A40F09280A1EB0C014FEA1C471FFA40
:100304008CFE0126200CB1FBF7F307FB131140EA26
:1003140001410EFB03F0884208D91CEB010103F1F3
:10032400FF3802D2884200F2CB804346091AA4B2B5
:10033400B1FBF7F007FB101144EA01440EFB00FE89
:10034400A64508D91CEB040400F1FF3102D2A645EE
:1003540000F2BB800846A4EB0E0440EA03409CE78D
:10036400C6F12007B34022FA07FC4CEA030C20FA3A
:1003740007F401FA06F31C43F9404FEA1C4900FA5A
:1003840006F3B1FBF9F8200C1FFA8CFE09FB1811D7
:1003940040EA014108FB0EF0884202FA06F20BD94A
:1003A4001CEB010108F1FF3A80F08880884240F29A
:1003B4008580A8F102086144091AA4B2B1FBF9F0DE
:1003C40009FB101144EA014100FB0EFE8E4508D9D9
:1003D4001CEB010100F1FF346CD28E456AD902385E
:1003E400614440EA0840A0FB0294A1EB0E01A14243
:1003F400C846A64656D353D05DB1B3EB080261EBB1
:100404000E0101FA07F722FA06F3F1401F43C5E98A
:10041400007100263146BDE8F087C2F12003D840C0
:100424000CFA02FC21FA03F3914001434FEA1C4702
:100434001FFA8CFEB3FBF7F007FB10360B0C43EAF4
:10044400064300FB0EF69E4204FA02F408D91CEBA4
:10045400030300F1FF382FD29E422DD902386344A2
:100464009B1B89B2B3FBF7F607FB163341EA034142
:1004740006FB0EF38B4208D91CEB010106F1FF3891
:1004840016D28B4214D9023E6144C91A46EA004688
:1004940038E72E46284605E70646E3E61846F8E61A
:1004A4004B45A9D2B9EB020864EB0C0E0138A3E763
:1004B4004646EAE7204694E74046D1E7D0467BE744
:1004C400023B614432E7304609E76444023842E7BC
:1004D400704700BF80B582B002AF00F01BFA00F095
:1004E4003FF800F0CBF800F09BF86423009301235D
:1004F400164A4021164800F0C7FE4FF47A7000F007
:100504007BFA642300930123124A4021104800F02F
:10051400BBFE4FF47A7000F06FFA6423009301235A
:100524000D4A40210A4800F0AFFE4FF47A7000F003
:1005340063FA642300930123084A4021044800F02D
:10054400A3FE4FF47A7000F057FACEE71C39000886
:100554002800002020390008243900082839000820
:1005640080B594B000AF07F1200330220021184673
:1005740003F0BEF907F10C0300221A605A609A6076
:10058400DA601A610023BB60234B1B6C224A43F0E0
:1005940080531364204B1B6C03F08053BB60BB6817
:1005A40000237B601D4B1B6823F440431B4A43F428
:1005B40000431360194B1B6803F440437B607B6862
:1005C40002233B620123FB6210233B630023BB63D2
:1005D40007F12003184602F023FD0346002B01D047
:1005E40000F0AAF80F23FB6000233B6180237B61AA
:1005F4000023BB610023FB6107F10C0300211846B3
:1006040002F086FF0346002B01D000F095F800BFEE
:100614005037BD4680BD00BF003802400070004026
:1006240080B500AF124B134A1A60114B124A5A603C
:100634000F4B00229A600E4B0022DA600C4B4FF4F1
:1006440080421A610A4B00225A61094B00229A61C6
:10065400074B0022DA61064B00221A62044800F0BC
:10066400CFFC0346002B01D000F066F800BF80BD2C
:100674002800002000540040A086010080B58AB004
:1006840000AF07F1140300221A605A609A60DA601E
:100694001A6100233B61264B1B6B254A43F004037C
:1006A4001363234B1B6B03F004033B613B6900237F
:1006B400FB601F4B1B6B1E4A43F0800313631C4BF0
:1006C4001B6B03F08003FB60FB680023BB60184BCB
:1006D4001B6B174A43F001031363154B1B6B03F0A9
:1006E4000103BB60BB6800237B60114B1B6B104A8A
:1006F40043F0020313630E4B1B6B03F002037B6096
:100704007B68002201210B4800F060FC01237B611F
:100714000123BB610023FB6100233B6207F1140347
:100724001946044800F0CEFA00BF2837BD4680BD04
:10073400003802400000024080B400AF72B600BF2F
:10074400FEE7000080B483B000AF00237B60104B51
:100754005B6C0F4A43F4804353640D4B5B6C03F4AE
:1007640080437B607B6800233B60094B1B6C084A19
:1007740043F080531364064B1B6C03F080533B60BF
:100784003B6800BF0C37BD465DF8047B704700BF73
:100794000038024080B58AB000AF786007F11403D6
:1007A40000221A605A609A60DA601A617B681B68DA
:1007B4001D4A934233D100233B611C4B1B6B1B4AE4
:1007C40043F002031363194B1B6B03F002033B61F9
:1007D4003B69C0237B611223BB610023FB610323BC
:1007E4003B6204237B6207F114031946104800F0AE
:1007F40069FA0023FB600D4B1B6C0C4A43F4001395
:1008040013640A4B1B6C03F40013FB60FB680022A7
:1008140000211F2000F0EFF91F2000F008FA00BFAC
:100824002837BD4680BD00BF005400400038024058
:100834000004024080B400AFFEE780B400AFFEE7DE
:1008440080B400AFFEE780B400AFFEE780B400AF31
:10085400FEE780B400AF00BFBD465DF8047B70477F
:1008640080B400AF00BFBD465DF8047B704780B420
:1008740000AF00BFBD465DF8047B704780B500AF94
:1008840000F09AF800BF80BD80B500AF024800F0C8
:10089400F9FD00BF80BD00BF2800002080B400AF78
:1008A400064BD3F88830054A43F47003C2F8883005
:1008B40000BFBD465DF8047B704700BF00ED00E05B
:1008C400DFF834D00D480E490E4A002302E0D45814
:1008D400C4500433C4188C42F9D30B4A0B4C002384
:1008E40001E013600432A242FBD3FFF7D7FF02F00A
:1008F400DBFFFFF7EFFD70470080012000000020C0
:100904000C000020543900080C0000208000002056
:10091400FEE7000080B500AF0E4B1B680D4A43F4A0
:10092400007313600B4B1B680A4A43F48063136023
:10093400084B1B68074A43F480731360032000F0DC
:100944004FF90F2000F008F8FFF7FCFE00231846CB
:1009540080BD00BF003C024080B582B000AF78602B
:10096400124B1A68124B1B7819464FF47A73B3FB77
:10097400F1F3B2FBF3F3184600F067F90346002BDA
:1009840001D001230EE07B680F2B0AD8002279687E
:100994004FF0FF3000F02FF9064A7B681360002304
:1009A40000E0012318460837BD4680BD0000002042
:1009B400080000200400002080B400AF064B1B7820
:1009C4001A46064B1B681344044A136000BFBD4615
:1009D4005DF8047B704700BF080000207C00002005
:1009E40080B400AF034B1B681846BD465DF8047B1A
:1009F400704700BF7C00002080B584B000AF7860F1
:100A0400FFF7EEFFB8607B68FB60FB68B3F1FF3F64
:100A140005D00A4B1B781A46FB681344FB6000BFE1
:100A2400FFF7DEFF0246BB68D31AFA689A42F7D88A
:100A340000BF00BF1037BD4680BD00BF08000020C6
:100A440080B485B000AF78607B6803F00703FB6077
:100A54000C4BDB68BB60BA684FF6FF031340BB6006
:100A6400FB681A02BB68134343F0BF6343F40033CB
:100A7400BB60044ABB68D36000BF1437BD465DF851
:100A8400047B704700ED00E080B400AF044BDB68EA
:100A94001B0A03F007031846BD465DF8047B704744
:100AA40000ED00E080B483B000AF0346FB7197F91A
:100AB4000730002B0BDBFB7903F01F02074997F982
:100AC40007305B09012000FA02F241F8232000BF3D
:100AD4000C37BD465DF8047B704700BF00E100E0C1
:100AE40080B483B000AF03463960FB7197F90730D7
:100AF400002B0ADB3B68DAB20C4997F90730120184
:100B0400D2B20B4483F800230AE03B68DAB2084906
:100B1400FB7903F00F03043B1201D2B20B441A76A3
:100B240000BF0C37BD465DF8047B704700E100E070
:100B340000ED00E080B489B000AFF860B9607A607D
:100B4400FB6803F00703FB61FB69C3F10703042B94
:100B540028BF0423BB61FB690433062B02D9FB695C
:100B6400033B00E000237B614FF0FF32BB6902FAD4
:100B740003F3DA43BB681A407B699A404FF0FF31B4
:100B84007B6901FA03F3D9437B680B40134318468E
:100B94002437BD465DF8047B7047000080B582B001
:100BA40000AF78607B68013BB3F1807F01D3012300
:100BB4000FE00A4A7B68013B53600F214FF0FF307E
:100BC400FFF78EFF054B00229A60044B07221A6040
:100BD400002318460837BD4680BD00BF10E000E082
:100BE40080B582B000AF78607868FFF729FF00BF56
:100BF4000837BD4680BD80B586B000AF0346B960F6
:100C04007A60FB7300237B61FFF73EFF78617A68AB
:100C1400B9687869FFF78EFF024697F90F301146DD
:100C24001846FFF75DFF00BF1837BD4680BD80B58D
:100C340082B000AF0346FB7197F907301846FFF7FF
:100C440031FF00BF0837BD4680BD80B582B000AF1C
:100C540078607868FFF7A2FF034618460837BD4658
:100C640080BD80B483B000AF78607B6893F8353082
:100C7400DBB2022B04D07B6880225A6501230CE08E
:100C84007B68052283F835207B681B681A687B68BB
:100C94001B6822F001021A60002318460C37BD4677
:100CA4005DF8047B704780B483B000AF78607B68E4
:100CB40093F83530DBB218460C37BD465DF8047B3B
:100CC4007047000080B489B000AF786039600023B9
:100CD4007B6100233B610023BB610023FB6159E17D
:100CE4000122FB6902FA03F37B613B681B687A69A2
:100CF40013403B613A697B699A4240F048813B6802
:100D04005B6803F00303012B05D03B685B6803F0C9
:100D14000303022B30D17B689B68BB61FB695B00DA
:100D2400032202FA03F3DB43BA691340BB613B6855
:100D3400DA68FB695B0002FA03F3BA691343BB6127
:100D44007B68BA699A607B685B68BB610122FB6956
:100D540002FA03F3DB43BA691340BB613B685B6887
:100D64001B0903F00102FB6902FA03F3BA69134396
:100D7400BB617B68BA695A603B685B6803F0030334
:100D8400032B17D07B68DB68BB61FB695B00032224
:100D940002FA03F3DB43BA691340BB613B689A6808
:100DA400FB695B0002FA03F3BA691343BB617B6816
:100DB400BA69DA603B685B6803F00303022B23D152
:100DC400FB69DA087B68083253F82230BB61FB699F
:100DD40003F007039B000F2202FA03F3DB43BA6913
:100DE4001340BB613B681A69FB6903F007039B006E
:100DF40002FA03F3BA691343BB61FB69DA087B683F
:100E04000832B96943F822107B681B68BB61FB692F
:100E14005B00032202FA03F3DB43BA691340BB61AC
:100E24003B685B6803F00302FB695B0002FA03F3AF
:100E3400BA691343BB617B68BA691A603B685B6833
:100E440003F44033002B00F0A2800023FB60574BD7
:100E54005B6C564A43F480435364544B5B6C03F419
:100E64008043FB60FB68524AFB699B08023352F8DB
:100E74002330BB61FB6903F003039B000F2202FADA
:100E840003F3DB43BA691340BB617B68494A93426D
:100E940019D07B68484A934213D07B68474A9342EF
:100EA4000DD07B68464A934207D07B68454A9342FB
:100EB40001D1042308E0072306E0032304E002230E
:100EC40002E0012300E00023FA6902F00302920029
:100ED4009340BA691343BB613549FB699B080233EC
:100EE400BA6941F82320384B9B68BB613B69DB43FB
:100EF400BA691340BB613B685B6803F48013002B41
:100F040003D0BA693B691343BB612F4ABB69936041
:100F14002D4BDB68BB613B69DB43BA691340BB61A2
:100F24003B685B6803F40013002B03D0BA693B6988
:100F34001343BB61244ABB69D360234B5B68BB6129
:100F44003B69DB43BA691340BB613B685B6803F4EC
:100F54000033002B03D0BA693B691343BB611A4ABF
:100F6400BB695360184B1B68BB613B69DB43BA69BF
:100F74001340BB613B685B6803F48033002B03D0F0
:100F8400BA693B691343BB610F4ABB691360FB69D0
:100F94000133FB61FB690F2B7FF6A2AE00BF00BFDC
:100FA4002437BD465DF8047B704700BF003802401B
:100FB40000380140000002400004024000080240E2
:100FC400000C024000100240003C014080B483B099
:100FD40000AF78600B467B8013467B707B78002BD8
:100FE40003D07A887B689A6103E07B881A047B6863
:100FF4009A6100BF0C37BD465DF8047B7047000062
:1010040080B584B000AF78607B68002B01D10123E8
:101014002BE17B6893F83D30DBB2002B06D17B6873
:10102400002283F83C207868FFF7B4FB7B68242215
:1010340083F83D207B681B681A687B681B6822F074
:1010440001021A607B681B681A687B681B6842F49B
:1010540000421A607B681B681A687B681B6822F46C
:1010640000421A6002F00CFCF8607B685B68814AFD
:10107400934207D8FB68804A934294BF012300231C
:10108400DBB206E0FB687D4A934294BF0123002350
:10109400DBB2002B01D00123E7E0FB68784AA2FB16
:1010A40003239B0CBB607B681B685B6823F03F01D8
:1010B4007B681B68BA680A435A607B681B681B6AB2
:1010C40023F03F017B685B686A4A934202D8BB689D
:1010D400013309E0BB684FF4967202FB03F3694ADB
:1010E400A2FB03239B0901337A6812680B43136242
:1010F4007B681B68DB6923F44F4222F0FF027B68A4
:101104005B685C498B4219D8FB68591E7B685B6835
:101114005B00B1FBF3F3591C40F6FC730B40002B4E
:101124000AD0FB68591E7B685B685B00B1FBF3F374
:101134000133C3F30B0351E004234FE07B689B6846
:10114400002B11D1FB68581E7B6859680B465B0065
:101154000B44B0FBF3F30133C3F30B03002B0CBFBD
:1011640001230023DBB212E0FB68581E7B68596838
:101174000B469B000B4499000B44B0FBF3F3013383
:10118400C3F30B03002B0CBF01230023DBB2002BA2
:1011940001D0012322E07B689B68002B0ED1FB6801
:1011A400581E7B6859680B465B000B44B0FBF3F395
:1011B4000133C3F30B0343F400430FE0FB68581EF1
:1011C4007B6859680B469B000B4499000B44B0FBA9
:1011D400F3F30133C3F30B0343F440437968096821
:1011E4001343CB617B681B681B6823F0C0017B68D9
:1011F400DA697B681B6A1A437B681B680A431A60B6
:101204007B681B689B6823F4034323F0FF037A681D
:1012140011697A68D26811437A6812680B43936043
:101224007B681B68DB6823F0FF017B685A697B6875
:101234009B691A437B681B680A43DA607B681B68F6
:101244001A687B681B6842F001021A607B680022FE
:101254001A647B68202283F83D207B6800221A638D
:101264007B68002283F83E20002318461037BD46D1
:1012740080BD00BFA08601007F841E00FF083D00E2
:1012840083DE1B43D34D621080B588B002AFF86093
:101294007A601A460B467B8113463B81FFF7A0FB1D
:1012A4007861FB6893F83D30DBB2202B40F0E0809E
:1012B4007B690093192301227049F86801F0DCFC72
:1012C4000346002B01D00223D3E0FB6893F83C30A3
:1012D400012B01D10223CCE0FB68012283F83C20DE
:1012E400FB681B681B6803F00103012B07D0FB6834
:1012F4001B681A68FB681B6842F001021A60FB68ED
:101304001B681A68FB681B6822F400621A60FB6899
:10131400212283F83D20FB68102283F83E20FB68DD
:1013240000221A64FB687A685A62FB683A895A8513
:10133400FB685B8D9AB2FB681A85FB68504ADA62D7
:1013440079897B693A6AF86801F06CFB0346002BE3
:1013540001D001238DE000233B61FB681B685B69BE
:101364003B61FB681B689B693B613B6966E07A698A
:10137400396AF86801F056FD0346002B0DD0FB686E
:101384001B6C042B07D1FB681B681A68FB681B687D
:1013940042F400721A6001236BE0FB685B6A1A78FE
:1013A400FB681B681A61FB685B6A5A1CFB685A621B
:1013B400FB685B8D9BB2013B9AB2FB685A85FB6864
:1013C4001B8D013B9AB2FB681A85FB681B685B693D
:1013D40003F00403042B1BD1FB681B8D002B17D0D7
:1013E400FB685B6A1A78FB681B681A61FB685B6AB6
:1013F4005A1CFB685A62FB685B8D9BB2013B9AB234
:10140400FB685A85FB681B8D013B9AB2FB681A8501
:101414007A69396AF86801F046FD0346002B0DD05D
:10142400FB681B6C042B07D1FB681B681A68FB68FC
:101434001B6842F400721A6001231AE0FB681B8DDA
:10144400002B94D1FB681B681A68FB681B6842F484
:1014540000721A60FB68202283F83D20FB6800229A
:1014640083F83E20FB68002283F83C20002300E040
:10147400022318461837BD4680BD00BF0200100085
:101484000000FFFF80B588B000AF78600023BB6127
:101494007B681B685B687B617B68DB6A3B617B689C
:1014A40093F83E30FB737B6893F83D30BB73FB7B52
:1014B400102B03D0FB7B402B40F0C1807B681B6862
:1014C4009B69BB617B681B685B69FB61FB6903F01B
:1014D4000103002B0DD13B69B3F52A0F03D03B69FF
:1014E400B3F12A4F01D1012300E00023012B00F0C6
:1014F4003281FB6903F00103002B0CD07B695B0A8A
:1015040003F00103002B06D0786801F06EFD7868C3
:1015140000F0DCFC92E0FB69DB0803F00103002B24
:1015240009D07B695B0A03F00103002B03D07868C0
:1015340000F052FD82E0FB695B0803F00103002B1D
:1015440009D07B695B0A03F00103002B03D07868A0
:1015540000F06CFD72E0BB699B0803F00103002BF3
:101564003BD07B681B685B6803F40063B3F5006FD2
:1015740000F0F380FB69DB0903F00103002B0FD0BB
:101584007B699B0A03F00103002B09D0FB699B08CC
:1015940003F00103002B03D1786800F04CF94DE00F
:1015A400FB699B0803F00103002B00F0D6807B69E4
:1015B4005B0A03F00103002B00F0CF80BB7B212BDF
:1015C40003D1786800F0D3F9C7E0FB7B402B40F0EF
:1015D400C480786800F041FABFE07B681B685B68F0
:1015E40003F40063B3F5006F00F0B780FB699B0957
:1015F40003F00103002B0FD07B699B0A03F0010366
:10160400002B09D0FB699B0803F00103002B03D1D5
:10161400786800F0B6FA11E0FB699B0803F0010357
:10162400002B00F09A807B695B0A03F00103002B16
:1016340000F09380786800F05FFB8EE08DE07B68BB
:101644001B6C002B04D07B681B685B69FB6107E0A3
:101654007B681B689B69BB617B681B685B69FB617A
:10166400FB695B0803F00103002B12D07B695B0A62
:1016740003F00103002B0CD07B681B6C002B03D000
:101684007B681B689B69BB61B969786800F01DFFC2
:1016940066E0FB691B0903F00103002B09D07B6999
:1016A4005B0A03F00103002B03D0786800F058FFB5
:1016B40056E0BB7B212B02D0BB7B292B25D1FB69B8
:1016C400DB0903F00103002B0FD07B699B0A03F0B5
:1016D4000103002B09D0FB699B0803F00103002BD5
:1016E40003D1786800F033FE39E0FB699B0803F00E
:1016F4000103002B33D07B695B0A03F00103002B49
:101704002DD0786800F060FE29E0FB699B0903F0A6
:101714000103002B0FD07B699B0A03F00103002B0C
:1017240009D0FB699B0803F00103002B03D17868FF
:1017340000F06BFE14E0FB699B0803F00103002B2F
:101744000ED07B695B0A03F00103002B08D0786894
:1017540000F099FE04E000BF02E000BF00E000BF1B
:101764002037BD4680BD80B483B000AF786000BF31
:101774000C37BD465DF8047B704780B483B000AF7E
:10178400786000BF0C37BD465DF8047B704780B4B9
:1017940083B000AF786000BF0C37BD465DF8047BB2
:1017A400704780B483B000AF786000BF0C37BD468B
:1017B4005DF8047B704780B483B000AF78600B465B
:1017C400FB7013463B8000BF0C37BD465DF8047BBD
:1017D400704780B483B000AF786000BF0C37BD465B
:1017E4005DF8047B704780B483B000AF786000BFBD
:1017F4000C37BD465DF8047B704780B483B000AFFE
:10180400786000BF0C37BD465DF8047B704780B438
:1018140083B000AF786000BF0C37BD465DF8047B31
:10182400704780B483B000AF786000BF0C37BD460A
:101834005DF8047B704780B584B000AF78607B6846
:1018440093F83D30FB737B6893F83E30BB737B6841
:10185400DB6ABB607B681B8D002B50D1FB7B212B8B
:101864004DD1BB68082B1DD0BB68202B1AD0BB6898
:1018740013F5803F16D07B681B685A687B681B6829
:1018840022F4E0625A607B6811221A637B680022AA
:1018940083F83E207B68202283F83D207868FFF798
:1018A40062FF60E07B681B685A687B681B6822F4EF
:1018B400E0625A607B681B681A687B681B6842F4A4
:1018C40000721A607B6800221A637B68202283F806
:1018D4003D207B6893F83E30DBB2402B07D17B6818
:1018E400002283F83E207868FFF77DFF3BE07B68A9
:1018F400002283F83E207868FFF735FF33E0FB7B56
:10190400212B05D0BB7B402B2DD1FB7B222B2AD155
:101914007B685B8D9BB2002B08D17B681B685A687F
:101924007B681B6822F480625A601CE07B6893F831
:101934003E30DBB2402B03D1786800F08EF812E021
:101944007B685B6A1A787B681B681A617B685B6AD0
:101954005A1C7B685A627B685B8D9BB2013B9AB2CE
:101964007B685A85FFE700BF1037BD4680BD80B550
:1019740084B000AF78607B68DB6AFB607B6893F8B7
:101984003D30DBB2212B64D17B685B8D9BB2002B95
:1019940012D07B685B6A1A787B681B681A617B6863
:1019A4005B6A5A1C7B685A627B685B8D9BB2013B05
:1019B4009AB27B685A854CE0FB68082B1DD0FB6803
:1019C400202B1AD0FB6813F5803F16D07B681B6868
:1019D4005A687B681B6822F4E0625A607B681122B3
:1019E4001A637B68002283F83E207B68202283F8F8
:1019F4003D207868FFF7B7FE2BE07B681B685A68C8
:101A04007B681B6822F4E0625A607B681B681A6872
:101A14007B681B6842F400721A607B6800221A63B8
:101A24007B68202283F83D207B6893F83E30DBB24C
:101A3400402B07D17B68002283F83E207868FFF7AB
:101A4400D2FE06E07B68002283F83E207868FFF728
:101A54008AFE00BF1037BD4680BD80B584B000AF9C
:101A640078607B6893F83D30FB737B681B6D002BBB
:101A74001DD17B68DB6C012B0BD17B689B6CDAB2CC
:101A84007B681B681A617B681B6D9A1C7B681A65EE
:101A940073E07B689B6C9BB21B12DAB27B681B6899
:101AA4001A617B681B6D5A1C7B681A6565E07B684C
:101AB4001B6D012B0BD17B689B6CDAB27B681B68B6
:101AC4001A617B681B6D5A1C7B681A6555E07B683C
:101AD4001B6D022B51D1FB7B222B0DD17B681B6824
:101AE4001A687B681B6842F480721A607B681B6DFD
:101AF4005A1C7B681A6540E07B685B8D9BB2002BA7
:101B040015D0FB7B212B12D17B685B6A1A787B682A
:101B14001B681A617B685B6A5A1C7B685A627B6823
:101B24005B8D9BB2013B9AB27B685A8525E07B684A
:101B34005B8D9BB2002B20D1FB7B212B1DD17B68BD
:101B44001B685A687B681B6822F4E0625A607B68F1
:101B54001B681A687B681B6842F400721A607B6811
:101B640000221A637B68202283F83D207B680022D0
:101B740083F83E207868FFF736FE00BF1037BD4675
:101B840080BD80B584B000AF78607B6893F83D3049
:101B9400DBB2222B40F0AC807B685B8D9BB2FB6098
:101BA400FB68032B21D97B681B681A697B685B6A15
:101BB400D2B21A707B685B6A5A1C7B685A627B6873
:101BC4005B8D9BB2013B9AB27B685A857B685B8DC7
:101BD4009BB2032B40F08C807B681B685A687B683F
:101BE4001B6822F480625A6082E07B68DB6A022B05
:101BF40075D0FB68012B02D0FB68002B6FD178688D
:101C040001F092F90346002B42D17B681B681A68E5
:101C14007B681B6822F480621A607B681B685A68C0
:101C24007B681B6822F4E0625A607B681B681A694F
:101C34007B685B6AD2B21A707B685B6A5A1C7B68E9
:101C44005A627B685B8D9BB2013B9AB27B685A8572
:101C54007B68202283F83D207B6893F83E30DBB21A
:101C6400402B0AD17B68002283F83E207B68002247
:101C74001A637868FFF7C1FD3AE07B68002283F8B5
:101C84003E207B6812221A637868FFF776FD2FE006
:101C94007B681B685A687B681B6822F4E0625A60A0
:101CA4007B681B681A697B685B6AD2B21A707B68AE
:101CB4005B6A5A1C7B685A627B685B8D9BB2013BF2
:101CC4009AB27B685A857B68202283F83D207B6822
:101CD400002283F83E207868FFF799FD08E07B68CE
:101CE4001B685A687B681B6822F480625A60FFE7AD
:101CF40000BF1037BD4680BD80B584B000AF7860AA
:101D04007B68DB6AFB607B685B8D9BB2042B1BD119
:101D14007B681B685A687B681B6822F480625A607F
:101D24007B681B681A697B685B6AD2B21A707B682D
:101D34005B6A5A1C7B685A627B685B8D9BB2013B71
:101D44009AB27B685A85BDE07B685B8D9BB2032B9E
:101D540029D17B681B685A687B681B6822F48062FF
:101D64005A60FB68042B0AD0FB68022B07D07B68FF
:101D74001B681A687B681B6822F480621A607B689F
:101D84001B681A697B685B6AD2B21A707B685B6AEB
:101D94005A1C7B685A627B685B8D9BB2013B9AB28A
:101DA4007B685A858EE07B685B8D9BB2022B76D173
:101DB400FB68012B02D0FB68102B08D17B681B68E1
:101DC4001A687B681B6822F480621A6019E0FB6859
:101DD400042B02D0FB68022B08D17B681B681A68AD
:101DE4007B681B6842F480621A600AE0FB68102B6F
:101DF40007D07B681B681A687B681B6842F4007212
:101E04001A607B681B681A697B685B6AD2B21A70B5
:101E14007B685B6A5A1C7B685A627B685B8D9BB2E9
:101E2400013B9AB27B685A857B681B681A697B6898
:101E34005B6AD2B21A707B685B6A5A1C7B685A620E
:101E44007B685B8D9BB2013B9AB27B685A857B6849
:101E54001B685A687B681B6822F440725A607B686E
:101E6400202283F83D207B6893F83E30DBB2402B80
:101E74000AD17B68002283F83E207B6800221A6323
:101E84007868FFF7BAFC1DE07B68002283F83E20E7
:101E94007B6812221A637868FFF76FFC12E07B6894
:101EA4001B681A697B685B6AD2B21A707B685B6ACA
:101EB4005A1C7B685A627B685B8D9BB2013B9AB269
:101EC4007B685A8500BF1037BD4680BD80B483B09F
:101ED40000AF78607B6893F83E30DBB2402B17D1BB
:101EE4007B681B6D002B09D17B685B6CDBB21A46E7
:101EF4007B681B6802F0FE021A6167E07B685B6C1A
:101F0400DBB243F00103DAB27B681B681A615DE05F
:101F14007B681B69B3F5804F33D17B6893F83D3000
:101F2400DBB2212B09D17B685B6CDBB21A467B6880
:101F34001B6802F0FE021A6108E07B685B6CDBB28E
:101F440043F00103DAB27B681B681A617B685B6B40
:101F5400002B04D07B685B6BDB6B002B08D17B68A8
:101F64009B6B002B32D07B689B6BDB6B002B2DD0E3
:101F74007B681B685A687B681B6842F400625A607D
:101F840024E07B681B6D002B0ED17B685B6C9BB2DD
:101F9400DB11DBB203F00603DBB263F00F03DAB24A
:101FA4007B681B681A6111E07B681B6D012B0DD1E6
:101FB4007B685B6C9BB2DB11DBB203F00603DBB224
:101FC40063F00E03DAB27B681B681A6100BF0C373A
:101FD400BD465DF8047B704780B483B000AF786081
:101FE4007B685B6CDAB27B681B681A617B685B6B2D
:101FF400002B04D07B685B6BDB6B002B08D17B6808
:102004009B6B002B0CD07B689B6BDB6B002B07D08E
:102014007B681B685A687B681B6842F400625A60DC
:1020240000BF0C37BD465DF8047B704780B491B0A7
:1020340000AF78607B6893F83E3087F83F307B6868
:10204400DB6ABB637B681B6B7B637B6893F83D3007
:10205400DBB2222B40F069817B681B6D002B0FD112
:1020640097F83F30402B0BD100233B637B681B6800
:102074005B693B637B681B689B693B633B6B60E10B
:102084007B681B6D002B1DD17B681B69B3F5404F2A
:1020940018D10023FB627B681B685B69FB627B6869
:1020A4001B689B69FB62FB6A7B681B681A687B6818
:1020B4001B6842F480721A607B681B6D5A1C7B6833
:1020C4001A653EE17B685B8D9BB2002B13D1002324
:1020D400BB627B681B685B69BB627B681B689B692E
:1020E400BB62BB6A7B681B681A687B681B6842F426
:1020F40000721A6015E17B685B8D9BB2012B40F086
:102104008A80BB6B13F5803F37D17B681B681A68E4
:102114007B681B6822F480621A607B681B685B68BA
:1021240003F40063B3F5006F13D17B681B681A686E
:102134007B681B6822F480621A6000237B627B68E0
:102144001B685B697B627B681B689B697B627B6A3B
:10215400E7E000233B627B681B685B693B627B684A
:102164001B689B693B623B6A7B681B681A687B68D7
:102174001B6842F400721A60D3E0BB6B082B2ED0AC
:10218400BB6B202B2BD07B6B122B02D1BB6B012B97
:1021940025D1BB6B042B0ED0BB6B022B0BD0BB6BBE
:1021A400102B08D07B681B681A687B681B6822F4B4
:1021B40080621A6007E07B681B681A687B681B688A
:1021C40042F480621A600023FB617B681B685B69D0
:1021D400FB617B681B689B69FB61FB69A1E07B6811
:1021E4001B681A687B681B6822F480621A600023EB
:1021F400BB617B681B685B69BB617B681B689B690F
:10220400BB61BB697B681B681A687B681B6842F406
:1022140000721A6085E07B685B8D9BB2022B4DD106
:10222400BB6B042B16D0BB6B022B13D0BB6B102BD8
:1022340010D07B681B681A687B681B6822F4806274
:102244001A607B681B681A687B681B6842F400622A
:102254001A6007E07B681B681A687B681B6842F495
:1022640080621A607B681B685B6803F40063B3F5E3
:10227400006F17D1BB6B13F5803F0BD0BB6B012BE9
:1022840008D0BB6B082B05D0BB6B102B02D0BB6BEB
:10229400202B07D17B681B685A687B681B6842F453
:1022A40080525A6000237B617B681B685B697B6199
:1022B4007B681B689B697B617B6932E07B681B6878
:1022C4001A687B681B6842F480621A607B681B682A
:1022D4005B6803F40063B3F5006F17D1BB6B13F5B0
:1022E400803F0BD0BB6B012B08D0BB6B082B05D0F8
:1022F400BB6B102B02D0BB6B202B07D17B681B68F8
:102304005A687B681B6842F480525A6000233B6120
:102314007B681B685B693B617B681B689B693B61ED
:102324003B697B6800221A650BE00023FB607B6835
:102334001B685B69FB607B681B689B69FB60FB68CF
:10234400FFE700BF4437BD465DF8047B704780B5A6
:1023540084B000AF78607B6893F83D30FB737B6892
:102364005B8D9BB2002B2BD07B685B6A1A787B68F1
:102374001B681A617B685B6A5A1C7B685A627B68BB
:102384005B8D9BB2013B9AB27B685A857B685B8DFF
:102394009BB2002B14D1FB7B292B11D17B681B68CA
:1023A4005A687B681B6822F480625A607B68212229
:1023B4001A637B68282283F83D207868FFF7E7F9E1
:1023C40000BF1037BD4680BD80B483B000AF7860D5
:1023D4007B685B8D9BB2002B11D07B685B6A1A789B
:1023E4007B681B681A617B685B6A5A1C7B685A624B
:1023F4007B685B8D9BB2013B9AB27B685A8500BFB8
:102404000C37BD465DF8047B704780B584B000AFDF
:1024140078607B6893F83D30FB737B685B8D9BB27F
:10242400002B2CD07B681B681A697B685B6AD2B26C
:102434001A707B685B6A5A1C7B685A627B685B8D86
:102444009BB2013B9AB27B685A857B685B8D9BB2D9
:10245400002B14D1FB7B2A2B11D17B681B685A6893
:102464007B681B6822F480625A607B6822221A63AC
:102474007B68282283F83D207868FFF792F900BF33
:102484001037BD4680BD80B483B000AF78607B68F0
:102494005B8D9BB2002B12D07B681B681A697B682A
:1024A4005B6AD2B21A707B685B6A5A1C7B685A6298
:1024B4007B685B8D9BB2013B9AB27B685A8500BFF7
:1024C4000C37BD465DF8047B704780B584B000AF1F
:1024D400786039600023FB737B6893F83D30DBB28E
:1024E40003F02803282B27D17B681B685A687B6874
:1024F4001B6822F480625A603B689B0803F0010366
:10250400002B01D10123FB733B68DB0903F00103BA
:10251400002B03D17B68DB68BB8102E07B689B698D
:10252400BB817B68002283F83C20BA89FB7B194677
:102534007868FFF740F90EE00023BB607B681B68F6
:102544005B69BB607B681B689B69BB60BB687B681D
:10255400002283F83C2000BF1037BD4680BD000038
:1025640080B584B000AF78607B6893F83D30FB732E
:102574007B681B685A687B681B6822F4E0625A60B7
:102584000023BB607B681B685B69BB607B681B685E
:102594001A687B681B6842F001021A60BB687B689A
:1025A4001B681A687B681B6822F480621A607B6867
:1025B4001B685B6803F40063B3F5006F72D1FB7BA7
:1025C400222B02D0FB7B2A2B35D17B689B6B1B68AB
:1025D4005B689AB27B685A857B685B8D9BB2002BE3
:1025E40005D07B681B6C43F004027B681A647B682B
:1025F4001B685A687B681B6822F400625A607B6817
:102604009B6B1846FEF74FFB0346012B49D07B68B2
:102614009B6B694A1A657B689B6B1846FEF721FB26
:102624000346002B3DD07B689B6B1B6D7A68926BD5
:102634001046984735E07B685B6B1B685B689AB211
:102644007B685A857B685B8D9BB2002B05D07B68C9
:102654001B6C43F004027B681A647B681B685A682D
:102664007B681B6822F400625A607B685B6B1846C7
:10267400FEF719FB0346012B14D07B685B6B4E4AB3
:102684001A657B685B6B1846FEF7EBFA0346002B72
:1026940008D07B685B6B1B6D7A68526B1046984759
:1026A40000E000BF7B685B8D9BB2002B3ED07B6853
:1026B4001B685B6903F00403042B12D17B681B685D
:1026C4001A697B685B6AD2B21A707B685B6A5A1CAF
:1026D4007B685A627B685B8D9BB2013B9AB27B68D4
:1026E4005A857B681B685B6903F04003402B12D159
:1026F4007B681B681A697B685B6AD2B21A707B6854
:102704005B6A5A1C7B685A627B685B8D9BB2013B97
:102714009AB27B685A857B685B8D9BB2002B05D08F
:102724007B681B6C43F004027B681A647B681B6C37
:10273400002B03D0786800F043F839E0FB7B2A2BA8
:1027440009D17B6800221A637B68282283F83D2024
:102754007868FFF726F87B6893F83D30DBB2282BC6
:1027640011D17B68154ADA627B6800221A637B68A0
:10277400202283F83D207B68002283F83E2078687D
:10278400FFF727F814E07B681B6B222B02D0FB7B3E
:10279400222B0DD17B6800221A637B68202283F8E8
:1027A4003D207B68002283F83E207868FEF7F9FF1D
:1027B40000BF1037BD4680BD2D2B00080000FFFF71
:1027C40080B584B000AF78607B6893F83D30FB73CC
:1027D4007B6893F83E30BB73BB7B102B02D0BB7B72
:1027E400402B0AD1FB7B222B07D17B681B681A681C
:1027F4007B681B6822F400621A60FB7B03F02803E9
:10280400282B07D17B6800221A637B68282283F86F
:102814003D2015E07B681B685B6803F40063B3F537
:10282400006F0AD0FB7B602B07D07B68202283F8E3
:102834003D207B68002283F83E207B6800221A63D7
:102844007B681B685B6803F40063B3F5006F62D1B7
:102854007B681B685A687B681B6822F400625A60B4
:102864007B685B6B93F83530DBB2012B20D07B683F
:102874005B6B6A4A1A657B685B6B1846FEF7F1F975
:102884000346002B00F089807B681B681A687B680C
:102894001B6822F001021A607B68202283F83D2025
:1028A4007B685B6B1B6D7A68526B1046984774E0CB
:1028B4007B689B6B594A1A657B689B6B1846FEF7CD
:1028C400D0F90346002B68D07B681B685B6903F072
:1028D4004003402B0BD17B681B681A697B685B6AD9
:1028E400D2B21A707B685B6A5A1C7B685A627B6836
:1028F4001B681A687B681B6822F001021A607B68F7
:10290400202283F83D207B689B6B1B6D7A68926B59
:102914001046984741E07B6893F83D30DBB2602B6A
:1029240025D17B68202283F83D207B6800221A642D
:102934007B681B685B6903F04003402B0BD17B6809
:102944001B681A697B685B6AD2B21A707B685B6A1F
:102954005A1C7B685A627B681B681A687B681B6810
:1029640022F001021A607868FEF75BFF15E07B68CD
:102974001B685B6903F04003402B0BD17B681B6829
:102984001A697B685B6AD2B21A707B685B6A5A1CEC
:102994007B685A627868FEF73AFF7B681B6CBB6001
:1029A400BB6803F00103002B0ED1BB6803F00203E4
:1029B400002B09D1BB6803F00403002B04D1BB68CE
:1029C40003F00803002B07D07B681B685A687B68F8
:1029D4001B6822F4E0625A607B6893F83D30FB7315
:1029E4007B681B6C03F00403042B13D1FB7B282BA3
:1029F40010D17B680A4ADA627B6800221A637B681A
:102A0400202283F83D207B68002283F83E207868EA
:102A1400FEF7DFFE00BF1037BD4680BD2D2B00083A
:102A24000000FFFF80B588B002AFF8607A603B60B9
:102A34000B467B81FB68DB6A7B617B69082B06D0D4
:102A44007B69012B03D07B6913F5803F08D1FB68B8
:102A54001B681A68FB681B6842F480721A600BE0FA
:102A6400FB681B6B122B07D1FB681B681A68FB6899
:102A74001B6842F480721A603B6800937B680022F2
:102A84004FF00111F86800F0F7F80346002B0DD061
:102A9400FB681B681B6803F48073B3F5807F03D164
:102AA400FB684FF400721A64032335E0FB681B696A
:102AB400B3F5804F08D17B89DBB21A46FB681B68EB
:102AC40002F0FE021A611BE07B89DB11DBB203F02A
:102AD4000603DBB263F00F03DAB2FB681B681A610A
:102AE4003B687A680E49F86800F01DF90346002B2C
:102AF40001D0012310E07B89DAB2FB681B681A61FC
:102B04003B687A680749F86800F00DF90346002B22
:102B140001D0012300E0002318461837BD4680BDCC
:102B2400080001000200010080B586B000AF7860A3
:102B34000023FB607B689B6B7B617B6993F83D3072
:102B4400FB744B4B1B68DB084A4AA2FB03231A0A9B
:102B540013469B001344DA00D31AFB60FB68002B76
:102B640006D17B691B6C43F020027B691A640AE07E
:102B7400FB68013BFB607B691B681B6803F4007303
:102B8400B3F5007FEAD07B695B6B002B03D07B69D4
:102B94005B6B0022DA637B699B6B002B03D07B6940
:102BA4009B6B0022DA637B691B681A687B691B686C
:102BB40022F480621A607B6900225A857B695B6B10
:102BC400002B03D07B695B6B00221A657B699B6BCE
:102BD400002B03D07B699B6B00221A657B691B6801
:102BE4001A687B691B6822F001021A607B6993F8FA
:102BF4003D30DBB2602B0ED17B69202283F83D206F
:102C04007B69002283F83E207B6900221A6478697C
:102C1400FEF707FE27E0FB7C03F02803282B17D1DF
:102C24007B691B681A687B691B6842F001021A60A1
:102C34007B691B681A687B691B6842F480621A60AE
:102C44007B6900221A637B69282283F83D2007E010
:102C54007B69202283F83D207B69002283F83E2093
:102C64007869FEF7D4FD00BF1837BD4680BD00BFAC
:102C74000000002089B5F81480B584B000AFF86076
:102C8400B9603B601346FB7125E03B68B3F1FF3F3D
:102C940021D0FDF7A5FE0246BB69D31A3A689A42D1
:102CA40002D33B68002B16D1FB6800221A63FB6831
:102CB400202283F83D20FB68002283F83E20FB6835
:102CC4001B6C43F02002FB681A64FB68002283F843
:102CD4003C20012323E0BB681B0CDBB2012B0DD18C
:102CE400FB681B685B69DA43BB6813409BB2002B2B
:102CF4000CBF01230023DBB21A460CE0FB681B68FF
:102D04009B69DA43BB6813409BB2002B0CBF0123C1
:102D14000023DBB21A46FB799A42B6D00023184648
:102D24001037BD4680BD80B584B000AFF860B9608F
:102D34007A603B6051E0FB681B685B6903F4806365
:102D4400B3F5806F23D1FB681B681A68FB681B68A6
:102D540042F400721A60FB681B686FF480625A6167
:102D6400FB6800221A63FB68202283F83D20FB687D
:102D7400002283F83E20FB681B6C43F00402FB68CE
:102D84001A64FB68002283F83C20012346E07B6838
:102D9400B3F1FF3F21D0FDF723FE02463B68D31A6F
:102DA4007A689A4202D37B68002B16D1FB68002212
:102DB4001A63FB68202283F83D20FB68002283F815
:102DC4003E20FB681B6C43F02002FB681A64FB681E
:102DD400002283F83C20012320E0BB681B0CDBB2FB
:102DE400012B0CD1FB681B685B69DA43BB68134099
:102DF4009BB2002B14BF01230023DBB20BE0FB6862
:102E04001B689B69DA43BB6813409BB2002B14BF59
:102E140001230023DBB2002B8DD100231846103789
:102E2400BD4680BD80B584B000AFF860B9607A60FB
:102E34002DE0F86800F0AAF80346002B01D0012326
:102E44002DE0BB68B3F1FF3F21D0FDF7C9FD024679
:102E54007B68D31ABA689A4202D3BB68002B16D196
:102E6400FB6800221A63FB68202283F83D20FB687C
:102E7400002283F83E20FB681B6C43F02002FB68B1
:102E84001A64FB68002283F83C20012307E0FB68F6
:102E94001B685B6903F08003802BCAD100231846AA
:102EA4001037BD4680BD80B584B000AFF860B9600E
:102EB4007A602DE0F86800F069F80346002B01D031
:102EC40001232DE0BB68B3F1FF3F21D0FDF788FD5E
:102ED40002467B68D31ABA689A4202D3BB68002BB5
:102EE40016D1FB6800221A63FB68202283F83D2078
:102EF400FB68002283F83E20FB681B6C43F0200231
:102F0400FB681A64FB68002283F83C20012307E075
:102F1400FB681B685B6903F00403042BCAD100231C
:102F240018461037BD4680BD80B485B000AF7860C8
:102F34000023FB60134B1B68DB08134AA2FB03232B
:102F44001A0A13469B001344FB60FB68013BFB60B9
:102F5400FB68002B07D17B681B6C43F020027B6865
:102F64001A64012308E07B681B681B6803F4007380
:102F7400B3F5007FE9D0002318461437BD465DF849
:102F8400047B70470000002089B5F81480B483B036
:102F940000AF78607B681B685B6903F48063B3F5FA
:102FA400806F1BD17B681B686FF480625A617B68F9
:102FB40000221A637B68202283F83D207B6800226C
:102FC40083F83E207B681B6C43F004027B681A6420
:102FD4007B68002283F83C20012300E0002318468C
:102FE4000C37BD465DF8047B704780B483B000AFF6
:102FF40078607B68DB6AB3F52A0F03D17B68012212
:10300400DA6207E07B68DB6AB3F12A4F02D17B689E
:103014000822DA6200BF0C37BD465DF8047B7047B6
:1030240080B586B000AF78607B68002B01D10123A6
:1030340067E27B681B6803F00103002B75D0884BA3
:103044009B6803F00C03042B0CD0854B9B6803F0A6
:103054000C03082B12D1824B5B6803F48003B3F595
:10306400800F0BD17E4B1B6803F40033002B5BD025
:103074007B685B68002B57D1012342E27B685B6865
:10308400B3F5803F06D1764B1B68754A43F4803311
:1030940013601DE07B685B68B3F5A02F0CD1704B07
:1030A4001B686F4A43F4802313606D4B1B686C4AA2
:1030B40043F4803313600BE0694B1B68684A23F4C4
:1030C40080331360664B1B68654A23F480231360C6
:1030D4007B685B68002B13D0FDF782FC386108E045
:1030E400FDF77EFC02463B69D31A642B01D9032306
:1030F40007E25B4B1B6803F40033002BF0D014E0B1
:10310400FDF76EFC386108E0FDF76AFC02463B6996
:10311400D31A642B01D90323F3E1514B1B6803F445
:103124000033002BF0D100E000BF7B681B6803F084
:103134000203002B63D04A4B9B6803F00C03002B63
:103144000BD0474B9B6803F00C03082B1CD1444B5A
:103154005B6803F48003002B16D1414B1B6803F01A
:103164000203002B05D07B68DB68012B01D001230F
:10317400C7E13B4B1B6823F0F8027B681B69DB004B
:10318400374913430B603AE07B68DB68002B20D09F
:10319400344B01221A60FDF723FC386108E0FDF787
:1031A4001FFC02463B69D31A022B01D90323A8E171
:1031B4002B4B1B6803F00203002BF0D0284B1B6839
:1031C40023F0F8027B681B69DB00254913430B607D
:1031D40015E0244B00221A60FDF702FC386108E078
:1031E400FDF7FEFB02463B69D31A022B01D90323E8
:1031F40087E11B4B1B6803F00203002BF0D17B68B3
:103204001B6803F00803002B36D07B685B69002B36
:1032140016D0154B01221A60FDF7E2FB386108E075
:10322400FDF7DEFB02463B69D31A022B01D90323C7
:1032340067E10B4B5B6F03F00203002BF0D01BE044
:10324400094B00221A60FDF7CBFB38610EE0FDF755
:10325400C7FB02463B69D31A022B07D9032350E16B
:103264000038024000004742800E4742884B5B6FA3
:1032740003F00203002BEAD17B681B6803F004030C
:10328400002B00F097800023FB75814B1B6C03F02F
:103294008053002B0FD10023BB607D4B1B6C7C4AF9
:1032A40043F0805313647A4B1B6C03F08053BB6070
:1032B400BB680123FB75774B1B6803F48073002BF9
:1032C40018D1744B1B68734A43F480731360FDF781
:1032D40087FB386108E0FDF783FB02463B69D31A9C
:1032E400022B01D903230CE16A4B1B6803F480739E
:1032F400002BF0D07B689B68012B06D1644B1B6FBD
:10330400634A43F0010313671CE07B689B68052B49
:103314000CD15F4B1B6F5E4A43F0040313675C4B95
:103324001B6F5B4A43F0010313670BE0584B1B6FA1
:10333400574A23F001031367554B1B6F544A23F07C
:10334400040313677B689B68002B15D0FDF748FBCB
:1033540038610AE0FDF744FB02463B69D31A41F2A7
:103364008832934201D90323CBE0494B1B6F03F00E
:103374000203002BEED014E0FDF732FB38610AE0C3
:10338400FDF72EFB02463B69D31A41F28832934281
:1033940001D90323B5E03E4B1B6F03F00203002B5E
:1033A400EED1FB7D012B05D1394B1B6C384A23F040
:1033B400805313647B689B69002B00F0A180344B1D
:1033C4009B6803F00C03082B5CD07B689B69022B81
:1033D40041D1314B00221A60FDF702FB386108E04D
:1033E400FDF7FEFA02463B69D31A022B01D90323E7
:1033F40087E0274B1B6803F00073002BF0D17B6838
:10340400DA697B681B6A1A437B685B6A9B011A430F
:103414007B689B6A5B08013B1B041A437B68DB6A7D
:103424001B061B4913434B601B4B01221A60FDF71B
:10343400D7FA386108E0FDF7D3FA02463B69D31A9C
:10344400022B01D903235CE0114B1B6803F00073CA
:10345400002BF0D054E0104B00221A60FDF7C0FAA4
:10346400386108E0FDF7BCFA02463B69D31A022B27
:1034740001D9032345E0064B1B6803F00073002BBE
:10348400F0D13DE07B689B69012B07D1012338E033
:103494000038024000700040600047421B4B5B68EC
:1034A400FB607B689B69012B28D0FB6803F48002D6
:1034B4007B68DB699A4221D1FB6803F03F027B6899
:1034C4001B6A9A421AD1FA6847F6C07313407A68A5
:1034D400526A9201934211D1FB6803F440327B6833
:1034E4009B6A5B08013B1B049A4207D1FB6803F00B
:1034F40070627B68DB6A1B069A4201D0012300E0FC
:10350400002318461837BD4680BD00BF003802406E
:1035140080B584B000AF786039607B68002B01D13E
:103524000123CCE0684B1B6803F007033A689A4216
:103534000CD9654B3A68D2B21A70634B1B6803F01E
:1035440007033A689A4201D00123B8E07B681B68FC
:1035540003F00203002B20D07B681B6803F00403F4
:10356400002B05D0594B9B68584A43F4E0539360B1
:103574007B681B6803F00803002B05D0534B9B6842
:10358400524A43F460439360504B9B6823F0F0022B
:103594007B689B684D4913438B607B681B6803F011
:1035A4000103002B44D07B685B68012B07D1474B98
:1035B4001B6803F40033002B19D101237FE07B68DF
:1035C4005B68022B03D07B685B68032B07D13F4BFE
:1035D4001B6803F00073002B09D101236FE03B4B00
:1035E4001B6803F00203002B01D1012367E0374B72
:1035F4009B6823F003027B685B68344913438B6048
:10360400FDF7EEF9F8600AE0FDF7EAF90246FB6817
:10361400D31A41F28832934201D903234FE02B4B52
:103624009B6803F00C027B685B689B009A42EBD1B9
:10363400254B1B6803F007033A689A420CD2224BCD
:103644003A68D2B21A70204B1B6803F007033A6839
:103654009A4201D0012332E07B681B6803F0040323
:10366400002B08D0194B9B6823F4E0527B68DB687D
:10367400164913438B607B681B6803F00803002B17
:1036840009D0124B9B6823F460427B681B69DB0002
:103694000E4913438B6000F021F802460B4B9B68E4
:1036A4001B0903F00F030A49CB5C22FA03F3094A0E
:1036B4001360094B1B681846FDF74EF900231846A2
:1036C4001037BD4680BD00BF003C024000380240B8
:1036D4002C39000800000020040000202DE9B04F20
:1036E40090B000AF00237B630023FB6300233B63A4
:1036F4000023BB63594B9B6803F00C03082B0DD0CC
:10370400082B00F2A180002B02D0042B03D09BE0F5
:10371400534BBB639BE0534BBB6398E04F4B5B68DD
:1037240003F03F037B634D4B5B6803F48003002B82
:1037340028D04A4B5B689B0900223B627A623B6A51
:10374400C3F308000021474B03FB01F2002300FBF5
:1037540003F31344434AA0FB0212FA620A46BA6214
:10376400FA6A1344FB627B6B0022BB61FA61D7E9FE
:103774000623D7E90A01FCF72BFD02460B46134644
:10378400FB6353E0354B5B689B0900223B617A6124
:103794003B69C3F3080A4FF0000B52465B464FF0F7
:1037A40000004FF00001590141EAD2615001024684
:1037B4000B46B2EB0A0863EB0B094FF000024FF023
:1037C40000034FEA891343EA98634FEA8812B2EB85
:1037D400080463EB09054FF000024FF00003EB000F
:1037E40043EA5473E20014461D4614EB0A033B609B
:1037F40045EB0B037B604FF000024FF00003D7E969
:10380400004529468B02214643EA915321468A0208
:10381400104619467B6B0022BB60FA60D7E902238D
:10382400FCF7D6FC02460B461346FB630B4B5B6866
:103834001B0C03F0030301335B003B63FA6B3B6B2C
:10384400B2FBF3F3BB6302E0054BBB6300BFBB6B8E
:1038540018464037BD46BDE8B08F00BF003802406F
:103864000024F40040787D0180B400AF034B1B6852
:103874001846BD465DF8047B704700BF0000002079
:1038840080B500AFFFF7F0FF0246054B9B689B0A2B
:1038940003F007030349CB5C22FA03F3184680BD07
:1038A400003802403C39000870B50D4D0D4C641BC6
:1038B400A4100026A64209D10B4D0C4C00F020F8B0
:1038C400641BA4100026A64205D170BD55F8043B24
:1038D40098470136EEE755F8043B98470136F2E77E
:1038E4004C3900084C3900084C390008503900089C
:1038F40002440346934200D1704703F8011BF9E7E1
:10390400F8B500BFF8BC08BC9E467047F8B500BFC8
:08391400F8BC08BC9E46704798
:10391C004100000042000000430000004400000091
:10392C000000000000000000010203040607080963
:08393C00000000000102030479
:08394400C0C8FF7F0100000074
:04394C00B9010008B5
:0439500095010008D5
:0C3954000024F40010000000010000003E
:04000005080008C522
:00000001FF
