:020000040800F2
:1000000000800120090F0008250E00082B0E0008B3
:10001000310E0008370E00083D0E000800000000F9
:10002000000000000000000000000000430E000877
:10003000510E0008000000005F0E00086D0E000861
:10004000590F0008590F0008590F0008590F0008F0
:10005000590F0008590F0008590F0008590F0008E0
:10006000590F0008590F0008590F0008590F0008D0
:10007000590F0008590F0008590F0008590F0008C0
:10008000590F0008590F0008590F00080000000020
:10009000000000000000000000000000590F0008F0
:1000A000590F0008590F0008590F0008590F000890
:1000B000590F0008590F0008590F0008590F000880
:1000C000590F0008590F0008590F0008590F000870
:1000D000590F0008590F0008590F000800000000D0
:1000E000590F0008590F0008590F000800000000C0
:1000F000000000000000000000000000590F000890
:1001000000000000590F0008590F0008590F00089F
:1001100000000000000000000000000000000000DF
:10012000590F0008590F0008590F0008590F00080F
:10013000590F00080000000000000000000000004F
:10014000000000000000000000000000590F00083F
:10015000590F0008590F0008590F0008590F0008DF
:10016000590F0008590F00080000000000000000AF
:10017000000000000000000000000000000000007F
:1001800000000000590F00080000000000000000FF
:04019000590F0008FB
:1001A00010B5054C237833B9044B13B10448AFF3B1
:1001B00000800123237010BD80000020000000009B
:1001C0006828000808B5034B1BB103490348AFF387
:1001D000008008BD0000000084000020682800089E
:1001E00001F0FF01102A2BDB10F0070F08D010F8E8
:1001F000013B013A8B422DD010F0070F42B3F6D1EC
:10020000F0B441EA012141EA014122F007047FF004
:1002100000070023F0E80256083C85EA010586EA5B
:10022000010685FA47F5A3FA87F586FA47F6A5FA97
:1002300087F68EB9EED1F0BC01F0FF0102F00702A3
:1002400032B110F8013B013A83EA010313B1F8D14E
:100250000020704701387047002D06BF354603382F
:10026000073815F0010F07D1013015F4807F02BF68
:10027000013015F4C03F0130F0BC0138704700BFB9
:1002800053B94AB9002908BF00281CBF4FF0FF31FD
:100290004FF0FF3000F074B9ADF1080C6DE904CEF9
:1002A00000F006F8DDF804E0DDE9022304B0704751
:1002B0002DE9F047089D04468E46002B4DD18A4219
:1002C000944669D9B2FA82F252B101FA02F3C2F14C
:1002D000200120FA01F10CFA02FC41EA030E9440DD
:1002E0004FEA1C48210CBEFBF8F61FFA8CF708FBFE
:1002F00016E341EA034306FB07F199420AD91CEBD6
:10030000030306F1FF3080F01F81994240F21C8107
:10031000023E63445B1AA4B2B3FBF8F008FB10334F
:1003200044EA034400FB07F7A7420AD91CEB040484
:1003300000F1FF3380F00A81A74240F20781644454
:10034000023840EA0640E41B00261DB1D4400023D9
:10035000C5E900433146BDE8F0878B4209D9002D3D
:1003600000F0EF800026C5E9000130463146BDE8C7
:10037000F087B3FA83F6002E4AD18B4202D3824231
:1003800000F2F980841A61EB030301209E46002DE0
:10039000E0D0C5E9004EDDE702B9FFDEB2FA82F235
:1003A000002A40F09280A1EB0C014FEA1C471FFA93
:1003B0008CFE0126200CB1FBF7F307FB131140EA7A
:1003C00001410EFB03F0884208D91CEB010103F147
:1003D000FF3802D2884200F2CB804346091AA4B209
:1003E000B1FBF7F007FB101144EA01440EFB00FEDD
:1003F000A64508D91CEB040400F1FF3102D2A64542
:1004000000F2BB800846A4EB0E0440EA03409CE7E0
:10041000C6F12007B34022FA07FC4CEA030C20FA8D
:1004200007F401FA06F31C43F9404FEA1C4900FAAD
:1004300006F3B1FBF9F8200C1FFA8CFE09FB18112A
:1004400040EA014108FB0EF0884202FA06F20BD99D
:100450001CEB010108F1FF3A80F08880884240F2ED
:100460008580A8F102086144091AA4B2B1FBF9F031
:1004700009FB101144EA014100FB0EFE8E4508D92C
:100480001CEB010100F1FF346CD28E456AD90238B1
:10049000614440EA0840A0FB0294A1EB0E01A14296
:1004A000C846A64656D353D05DB1B3EB080261EB04
:1004B0000E0101FA07F722FA06F3F1401F43C5E9DE
:1004C000007100263146BDE8F087C2F12003D84014
:1004D0000CFA02FC21FA03F3914001434FEA1C4756
:1004E0001FFA8CFEB3FBF7F007FB10360B0C43EA48
:1004F000064300FB0EF69E4204FA02F408D91CEBF8
:10050000030300F1FF382FD29E422DD902386344F5
:100510009B1B89B2B3FBF7F607FB163341EA034195
:1005200006FB0EF38B4208D91CEB010106F1FF38E4
:1005300016D28B4214D9023E6144C91A46EA0046DB
:1005400038E72E46284605E70646E3E61846F8E66D
:100550004B45A9D2B9EB020864EB0C0E0138A3E7B6
:100560004646EAE7204694E74046D1E7D0467BE797
:10057000023B614432E7304609E76444023842E70F
:10058000704700BF80B500AF00F0E8FC00F008F84D
:1005900000F066F800F07CFA00F0D6F8FCE7000006
:1005A00080B594B000AF07F1200330220021184637
:1005B00001F058FC07F10C0300221A605A609A609F
:1005C000DA601A610023BB60234B1B6C224A43F0A4
:1005D00080531364204B1B6C03F08053BB60BB68DB
:1005E00000237B601D4B1B6823F440431B4A43F4EC
:1005F00000431360194B1B6803F440437B607B6826
:1006000002233B620123FB6210233B630023BB6395
:1006100007F12003184600F0D3FF0346002B01D05A
:1006200000F0D2FB0F23FB6000233B6180237B6142
:100630000023BB610023FB6107F10C030021184676
:1006400001F036FA0346002B01D000F0BDFB00BFDD
:100650005037BD4680BD00BF0038024000700040EA
:1006600080B588B000AF07F10C0300221A605A6011
:100670009A60DA601A610023BB60304B1B6B2F4A13
:1006800043F0040313632D4B1B6B03F00403BB60A7
:10069000BB6800237B60294B1B6B284A43F0800317
:1006A0001363264B1B6B03F080037B607B68002386
:1006B0003B60224B1B6B214A43F0010313631F4B2A
:1006C0001B6B03F001033B603B6800220F211C48B9
:1006D00000F05CFF002240F2FF711A4800F056FF64
:1006E0000F23FB6001233B6100237B610023BB617F
:1006F00007F10C031946124800F0ACFD40F2FF73FD
:10070000FB6001233B6100237B610023BB6107F198
:100710000C0319460B4800F09DFDF023FB600023FD
:100720003B6100237B6107F10C031946044800F08C
:1007300091FD00BF2037BD4680BD00BF003802409C
:10074000000802400000024080B58EB000AF0023D8
:1007500087F83730002387F836300023BB86012224
:100760001021834800F012FF01222021804800F070
:100770000DFF012240217E4800F008FF0122802168
:100780007B4800F003FF802000F02EF9794800F04C
:1007900092F900F0A5F9034687F8333097F8333023
:1007A000002BF6D097F833302F2B19D997F8333028
:1007B000392B15D897F8373038333B4497F8332026
:1007C00003F81C2C97F83730013387F837308B202B
:1007D00000F00AF907F11C03184600F06CF90EE06E
:1007E00097F833303D2BD4D1002387F8373000BF42
:1007F000802000F0F9F8604800F05DF900E0C8E7FB
:1008000000F06EF9034687F8323097F83230002B4B
:10081000F6D097F832302B2B0BD097F832302D2BA7
:1008200007D097F832302A2B03D097F832302F2B8D
:10083000E6D197F8323087F83130802000F0D4F8D4
:100840004E4800F038F98B2000F0CEF897F832309F
:10085000184600F0F3F84FF47A7000F0F1FB00BF97
:10086000802000F0C1F8464800F025F900F038F982
:10087000034687F8303097F830302F2B19D997F886
:100880003030392B15D897F8363038333B4497F849
:10089000302003F8282C97F83630013387F83630AB
:1008A0008D2000F0A1F807F11003184600F003F9BD
:1008B00028E097F830303D2BD8D1002387F8363028
:1008C00000BF07F11C03184601F09EFAF86207F119
:1008D0001003184601F098FAB86297F831302A3BB5
:1008E000052B2CD801A252F823F000BF23090008E1
:1008F000070900083F090008150900083F0900081A
:1009000033090008B2E7FB6A9AB2BB6A9BB2134490
:10091000BB8615E0FB6A9AB2BB6A9BB2D31ABB8650
:100920000EE0FB6A9AB2BB6A9BB212FB03F3BB8672
:1009300006E0FA6ABB6A92FBF3F3BB8600E000BFF5
:10094000012000F051F8BA8E3B460E49184601F0DE
:1009500091FA802000F048F83B46184600F0ABF8CA
:1009600041F2883000F06CFB00BF3837BD4680BDD7
:10097000000802408028000894280008A8280008E1
:10098000B4280008C828000880B582B000AF03462C
:10099000FB71124B00221A7017E0104B1B781A469D
:1009A0000F4B33F81210FB790C4A12781341DBB26B
:1009B00003F00103DBB21A460A4800F0E7FD074BDB
:1009C0001B780133DAB2054B1A70044B1B78072BE6
:1009D000E3D900BF00BF0837BD4680BD9C000020A2
:1009E000000000200000024080B582B000AF034646
:1009F000FB71FB791846FFF7C7FF002201210E4863
:100A000000F0C4FD002202210B4800F0BFFD0122CE
:100A10000421094800F0BAFD022000F011FB002279
:100A20000421054800F0B2FD022000F009FB00BFE0
:100A30000837BD4680BD00BF0000024080B582B0CF
:100A400000AF0346FB71FB791846FFF79DFF0122BB
:100A500001210E4800F09AFD002202210B4800F00F
:100A600095FD01220421094800F090FD022000F0CC
:100A7000E7FA00220421054800F088FD022000F07A
:100A8000DFFA00BF0837BD4680BD00BF000002404E
:100A900080B500AF0120FFF7A7FF0220FFF7A4FFFA
:100AA0000620FFF7A1FF3820FFF79EFF0C20FFF77D
:100AB0009BFF00BF80BD80B582B000AF786006E0CC
:100AC0007B685A1C7A601B781846FFF7B7FF7B6873
:100AD0001B78002BF4D100BF00BF0837BD4680BD96
:100AE00080B500AF00220121B64800F04FFD012281
:100AF0000221B44800F04AFD01220421B14800F06F
:100B000045FD01220821AF4800F040FD142000F00F
:100B100097FA1021AB4800F021FD0346002B09D1C4
:100B200000BF1021A74800F019FD0346002BF8D0A4
:100B3000372344E12021A34800F010FD0346002B99
:100B400009D100BF20219F4800F008FD0346002B7B
:100B5000F8D0382333E140219A4800F0FFFC0346E7
:100B6000002B09D100BF4021964800F0F7FC034656
:100B7000002BF8D0392322E18021924800F0EEFCCE
:100B80000346002B09D100BF80218E4800F0E6FC0F
:100B90000346002BF8D02F2311E1012201218948BF
:100BA00000F0F4FC00220221864800F0EFFC012254
:100BB0000421844800F0EAFC01220821814800F069
:100BC000E5FC142000F03CFA10217E4800F0C6FC41
:100BD0000346002B09D100BF10217A4800F0BEFC6B
:100BE0000346002BF8D03423E9E02021754800F0BB
:100BF000B5FC0346002B09D100BF2021714800F04D
:100C0000ADFC0346002BF8D03523D8E040216D48D9
:100C100000F0A4FC0346002B09D100BF4021694825
:100C200000F09CFC0346002BF8D03623C7E080215F
:100C3000644800F093FC0346002B09D100BF8021DB
:100C4000604800F08BFC0346002BF8D02A23B6E066
:100C5000012201215B4800F099FC01220221594840
:100C600000F094FC00220421564800F08FFC012281
:100C70000821544800F08AFC142000F0E1F910210A
:100C8000504800F06BFC0346002B09D100BF102137
:100C90004C4800F063FC0346002BF8D031238EE073
:100CA0002021484800F05AFC0346002B09D100BF20
:100CB0002021444800F052FC0346002BF8D0322398
:100CC0007DE040213F4800F049FC0346002B09D15C
:100CD00000BF40213B4800F041FC0346002BF8D008
:100CE00033236CE08021374800F038FC0346002BAA
:100CF00009D100BF8021334800F030FC0346002BAF
:100D0000F8D02D235BE0012201212E4800F03EFCAB
:100D1000012202212B4800F039FC0122042129483C
:100D200000F034FC00220821264800F02FFC14209B
:100D300000F086F91021234800F010FC0346002B38
:100D400009D100BF10211F4800F008FC0346002B0A
:100D5000F8D0432333E020211A4800F0FFFB03467C
:100D6000002B09D100BF2021164800F0F7FB0346F5
:100D7000002BF8D0302322E04021124800F0EEFB97
:100D80000346002B09D100BF40210E4800F0E6FBCE
:100D90000346002BF8D03D2311E08021094800F0E4
:100DA000DDFB0346002B09D100BF8021054800F080
:100DB000D5FB0346002BF8D02B2300E00023184678
:100DC00080BD00BF0008024080B400AF72B600BF13
:100DD000FEE7000080B483B000AF00237B60104BBF
:100DE0005B6C0F4A43F4804353640D4B5B6C03F41C
:100DF00080437B607B6800233B60094B1B6C084A87
:100E000043F080531364064B1B6C03F080533B602C
:100E10003B6800BF0C37BD465DF8047B704700BFE0
:100E20000038024080B400AFFEE780B400AFFEE7B8
:100E300080B400AFFEE780B400AFFEE780B400AF3F
:100E4000FEE780B400AF00BFBD465DF8047B70478D
:100E500080B400AF00BFBD465DF8047B704780B42E
:100E600000AF00BFBD465DF8047B704780B500AFA2
:100E700000F0C6F800BF80BD80B586B000AF7860D6
:100E8000144A154BD31A7B617B693B61134B1B687A
:100E9000002B02D1114B124A1A60104B1A687B6862
:100EA00013443A699A4207D200F0B2FF03460C227B
:100EB0001A604FF0FF3309E0084B1B68FB60074BDB
:100EC0001A687B681344054A1360FB681846183794
:100ED000BD4680BD0080012000040000A00000206D
:100EE000B800002080B400AF064BD3F88830054A24
:100EF00043F47003C2F8883000BFBD465DF8047B40
:100F0000704700BF00ED00E0DFF834D00D480E4917
:100F10000E4A002302E0D458C4500433C4188C4253
:100F2000F9D30B4A0B4C002301E013600432A242B8
:100F3000FBD3FFF7D7FF00F071FFFFF723FB7047EC
:100F40000080012000000020800000202C2A0008E2
:100F500080000020B8000020FEE7000080B500AF50
:100F60000E4B1B680D4A43F4007313600B4B1B6858
:100F70000A4A43F480631360084B1B68074A43F432
:100F800080731360032000F031F90F2000F008F89F
:100F9000FFF720FF0023184680BD00BF003C024041
:100FA00080B582B000AF7860124B1A68124B1B7884
:100FB00019464FF47A73B3FBF1F3B2FBF3F318461F
:100FC00000F03BF90346002B01D001230EE07B68C3
:100FD0000F2B0AD8002279684FF0FF3000F011F98A
:100FE000064A7B681360002300E001231846083797
:100FF000BD4680BD10000020180000201400002015
:1010000080B400AF064B1B781A46064B1B6813448E
:10101000044A136000BFBD465DF8047B704700BF03
:1010200018000020A400002080B400AF034B1B6810
:101030001846BD465DF8047B704700BFA400002041
:1010400080B584B000AF7860FFF7EEFFB8607B68D2
:10105000FB60FB68B3F1FF3F05D00A4B1B781A46D3
:10106000FB681344FB6000BFFFF7DEFF0246BB686E
:10107000D31AFA689A42F7D800BF00BF1037BD46AE
:1010800080BD00BF1800002080B485B000AF78603C
:101090007B6803F00703FB600C4BDB68BB60BA683E
:1010A0004FF6FF031340BB60FB681A02BB68134393
:1010B00043F0BF6343F40033BB60044ABB68D360B2
:1010C00000BF1437BD465DF8047B704700ED00E0BB
:1010D00080B400AF044BDB681B0A03F0070318461B
:1010E000BD465DF8047B704700ED00E080B483B03E
:1010F00000AF03463960FB7197F90730002B0ADB1C
:101100003B68DAB20C4997F907301201D2B20B44AE
:1011100083F800230AE03B68DAB20849FB7903F060
:101120000F03043B1201D2B20B441A7600BF0C37F6
:10113000BD465DF8047B704700E100E000ED00E093
:1011400080B489B000AFF860B9607A60FB6803F0E2
:101150000703FB61FB69C3F10703042B28BF0423CA
:10116000BB61FB690433062B02D9FB69033B00E03A
:1011700000237B614FF0FF32BB6902FA03F3DA43CD
:10118000BB681A407B699A404FF0FF317B6901FAD6
:1011900003F3D9437B680B40134318462437BD46FD
:1011A0005DF8047B7047000080B582B000AF7860C6
:1011B0007B68013BB3F1807F01D301230FE00A4A32
:1011C0007B68013B53600F214FF0FF30FFF78EFF2C
:1011D000054B00229A60044B07221A600023184630
:1011E0000837BD4680BD00BF10E000E080B582B08A
:1011F00000AF78607868FFF747FF00BF0837BD464B
:1012000080BD80B586B000AF0346B9607A60FB73DD
:1012100000237B61FFF75CFF78617A68B9687869C1
:10122000FFF78EFF024697F90F3011461846FFF779
:101230005DFF00BF1837BD4680BD80B582B000AFEE
:1012400078607868FFF7B0FF034618460837BD4658
:1012500080BD000080B489B000AF786039600023A1
:101260007B6100233B610023BB610023FB6159E1EB
:101270000122FB6902FA03F37B613B681B687A6910
:1012800013403B613A697B699A4240F048813B6870
:101290005B6803F00303012B05D03B685B6803F038
:1012A0000303022B30D17B689B68BB61FB695B0049
:1012B000032202FA03F3DB43BA691340BB613B68C4
:1012C000DA68FB695B0002FA03F3BA691343BB6196
:1012D0007B68BA699A607B685B68BB610122FB69C5
:1012E00002FA03F3DB43BA691340BB613B685B68F6
:1012F0001B0903F00102FB6902FA03F3BA69134305
:10130000BB617B68BA695A603B685B6803F00303A2
:10131000032B17D07B68DB68BB61FB695B00032292
:1013200002FA03F3DB43BA691340BB613B689A6876
:10133000FB695B0002FA03F3BA691343BB617B6884
:10134000BA69DA603B685B6803F00303022B23D1C0
:10135000FB69DA087B68083253F82230BB61FB690D
:1013600003F007039B000F2202FA03F3DB43BA6981
:101370001340BB613B681A69FB6903F007039B00DC
:1013800002FA03F3BA691343BB61FB69DA087B68AD
:101390000832B96943F822107B681B68BB61FB699E
:1013A0005B00032202FA03F3DB43BA691340BB611B
:1013B0003B685B6803F00302FB695B0002FA03F31E
:1013C000BA691343BB617B68BA691A603B685B68A2
:1013D00003F44033002B00F0A2800023FB60574B46
:1013E0005B6C564A43F480435364544B5B6C03F488
:1013F0008043FB60FB68524AFB699B08023352F84A
:101400002330BB61FB6903F003039B000F2202FA48
:1014100003F3DB43BA691340BB617B68494A9342DB
:1014200019D07B68484A934213D07B68474A93425D
:101430000DD07B68464A934207D07B68454A934269
:1014400001D1042308E0072306E0032304E002237C
:1014500002E0012300E00023FA6902F00302920097
:101460009340BA691343BB613549FB699B0802335A
:10147000BA6941F82320384B9B68BB613B69DB4369
:10148000BA691340BB613B685B6803F48013002BAF
:1014900003D0BA693B691343BB612F4ABB699360B0
:1014A0002D4BDB68BB613B69DB43BA691340BB6111
:1014B0003B685B6803F40013002B03D0BA693B69F7
:1014C0001343BB61244ABB69D360234B5B68BB6198
:1014D0003B69DB43BA691340BB613B685B6803F45B
:1014E0000033002B03D0BA693B691343BB611A4A2E
:1014F000BB695360184B1B68BB613B69DB43BA692E
:101500001340BB613B685B6803F48033002B03D05E
:10151000BA693B691343BB610F4ABB691360FB693E
:101520000133FB61FB690F2B7FF6A2AE00BF00BF4A
:101530002437BD465DF8047B704700BF0038024089
:101540000038014000000240000402400008024050
:10155000000C024000100240003C014080B485B005
:1015600000AF78600B467B807B681A697B881340EC
:10157000002B02D00123FB7301E00023FB73FB7BF4
:1015800018461437BD465DF8047B704780B483B0BD
:1015900000AF78600B467B8013467B707B78002B16
:1015A00003D07A887B689A6103E07B881A047B68A1
:1015B0009A6100BF0C37BD465DF8047B70470000A0
:1015C00080B586B000AF78607B68002B01D1012325
:1015D00067E27B681B6803F00103002B75D0884B22
:1015E0009B6803F00C03042B0CD0854B9B6803F025
:1015F0000C03082B12D1824B5B6803F48003B3F514
:10160000800F0BD17E4B1B6803F40033002B5BD0A3
:101610007B685B68002B57D1012342E27B685B68E3
:10162000B3F5803F06D1764B1B68754A43F480338F
:1016300013601DE07B685B68B3F5A02F0CD1704B85
:101640001B686F4A43F4802313606D4B1B686C4A20
:1016500043F4803313600BE0694B1B68684A23F442
:1016600080331360664B1B68654A23F48023136044
:101670007B685B68002B13D0FFF7D6FC386108E06D
:10168000FFF7D2FC02463B69D31A642B01D903232E
:1016900007E25B4B1B6803F40033002BF0D014E02F
:1016A000FFF7C2FC386108E0FFF7BEFC02463B6969
:1016B000D31A642B01D90323F3E1514B1B6803F4C4
:1016C0000033002BF0D100E000BF7B681B6803F003
:1016D0000203002B63D04A4B9B6803F00C03002BE2
:1016E0000BD0474B9B6803F00C03082B1CD1444BD9
:1016F0005B6803F48003002B16D1414B1B6803F099
:101700000203002B05D07B68DB68012B01D001238D
:10171000C7E13B4B1B6823F0F8027B681B69DB00C9
:10172000374913430B603AE07B68DB68002B20D01D
:10173000344B01221A60FFF777FC386108E0FFF7AD
:1017400073FC02463B69D31A022B01D90323A8E19B
:101750002B4B1B6803F00203002BF0D0284B1B68B7
:1017600023F0F8027B681B69DB00254913430B60FB
:1017700015E0244B00221A60FFF756FC386108E0A0
:10178000FFF752FC02463B69D31A022B01D903230F
:1017900087E11B4B1B6803F00203002BF0D17B6831
:1017A0001B6803F00803002B36D07B685B69002BB5
:1017B00016D0154B01221A60FFF736FC386108E09D
:1017C000FFF732FC02463B69D31A022B01D90323EF
:1017D00067E10B4B5B6F03F00203002BF0D01BE0C3
:1017E000094B00221A60FFF71FFC38610EE0FFF77B
:1017F0001BFC02463B69D31A022B07D9032350E195
:101800000038024000004742800E4742884B5B6F21
:1018100003F00203002BEAD17B681B6803F004038A
:10182000002B00F097800023FB75814B1B6C03F0AD
:101830008053002B0FD10023BB607D4B1B6C7C4A77
:1018400043F0805313647A4B1B6C03F08053BB60EE
:10185000BB680123FB75774B1B6803F48073002B77
:1018600018D1744B1B68734A43F480731360FFF7FD
:10187000DBFB386108E0FFF7D7FB02463B69D31A70
:10188000022B01D903230CE16A4B1B6803F480731C
:10189000002BF0D07B689B68012B06D1644B1B6F3B
:1018A000634A43F0010313671CE07B689B68052BC8
:1018B0000CD15F4B1B6F5E4A43F0040313675C4B14
:1018C0001B6F5B4A43F0010313670BE0584B1B6F20
:1018D000574A23F001031367554B1B6F544A23F0FB
:1018E000040313677B689B68002B15D0FFF79CFBF4
:1018F00038610AE0FFF798FB02463B69D31A41F2D0
:101900008832934201D90323CBE0494B1B6F03F08C
:101910000203002BEED014E0FFF786FB38610AE0EB
:10192000FFF782FB02463B69D31A41F288329342A9
:1019300001D90323B5E03E4B1B6F03F00203002BDC
:10194000EED1FB7D012B05D1394B1B6C384A23F0BE
:10195000805313647B689B69002B00F0A180344B9B
:101960009B6803F00C03082B5CD07B689B69022BFF
:1019700041D1314B00221A60FFF756FB386108E075
:10198000FFF752FB02463B69D31A022B01D903230E
:1019900087E0274B1B6803F00073002BF0D17B68B6
:1019A000DA697B681B6A1A437B685B6A9B011A438E
:1019B0007B689B6A5B08013B1B041A437B68DB6AFC
:1019C0001B061B4913434B601B4B01221A60FFF798
:1019D0002BFB386108E0FFF727FB02463B69D31A6F
:1019E000022B01D903235CE0114B1B6803F0007349
:1019F000002BF0D054E0104B00221A60FFF714FBCC
:101A0000386108E0FFF710FB02463B69D31A022B4E
:101A100001D9032345E0064B1B6803F00073002B3C
:101A2000F0D13DE07B689B69012B07D1012338E0B1
:101A30000038024000700040600047421B4B5B686A
:101A4000FB607B689B69012B28D0FB6803F4800254
:101A50007B68DB699A4221D1FB6803F03F027B6817
:101A60001B6A9A421AD1FA6847F6C07313407A6823
:101A7000526A9201934211D1FB6803F440327B68B1
:101A80009B6A5B08013B1B049A4207D1FB6803F089
:101A900070627B68DB6A1B069A4201D0012300E07A
:101AA000002318461837BD4680BD00BF00380240ED
:101AB00080B584B000AF786039607B68002B01D1BD
:101AC0000123CCE0684B1B6803F007033A689A4295
:101AD0000CD9654B3A68D2B21A70634B1B6803F09D
:101AE00007033A689A4201D00123B8E07B681B687B
:101AF00003F00203002B20D07B681B6803F0040373
:101B0000002B05D0594B9B68584A43F4E05393602F
:101B10007B681B6803F00803002B05D0534B9B68C0
:101B2000524A43F460439360504B9B6823F0F002A9
:101B30007B689B684D4913438B607B681B6803F08F
:101B40000103002B44D07B685B68012B07D1474B16
:101B50001B6803F40033002B19D101237FE07B685D
:101B60005B68022B03D07B685B68032B07D13F4B7C
:101B70001B6803F00073002B09D101236FE03B4B7E
:101B80001B6803F00203002B01D1012367E0374BF0
:101B90009B6823F003027B685B68344913438B60C6
:101BA000FFF742FAF8600AE0FFF73EFA0246FB68E8
:101BB000D31A41F28832934201D903234FE02B4BD1
:101BC0009B6803F00C027B685B689B009A42EBD138
:101BD000254B1B6803F007033A689A420CD2224B4C
:101BE0003A68D2B21A70204B1B6803F007033A68B8
:101BF0009A4201D0012332E07B681B6803F00403A2
:101C0000002B08D0194B9B6823F4E0527B68DB68FB
:101C1000164913438B607B681B6803F00803002B95
:101C200009D0124B9B6823F460427B681B69DB0080
:101C30000E4913438B6000F021F802460B4B9B6862
:101C40001B0903F00F030A49CB5C22FA03F3094A8C
:101C50001360094B1B681846FFF7A2F900231846CA
:101C60001037BD4680BD00BF003C02400038024036
:101C7000D828000810000020140000202DE9B04FE3
:101C800090B000AF00237B630023FB6300233B6322
:101C90000023BB63594B9B6803F00C03082B0DD04A
:101CA000082B00F2A180002B02D0042B03D09BE074
:101CB000534BBB639BE0534BBB6398E04F4B5B685C
:101CC00003F03F037B634D4B5B6803F48003002B01
:101CD00028D04A4B5B689B0900223B627A623B6AD0
:101CE000C3F308000021474B03FB01F2002300FB74
:101CF00003F31344434AA0FB0212FA620A46BA6293
:101D0000FA6A1344FB627B6B0022BB61FA61D7E97C
:101D10000623D7E90A01FEF7B3FA02460B4613463B
:101D2000FB6353E0354B5B689B0900223B617A61A2
:101D30003B69C3F3080A4FF0000B52465B464FF075
:101D400000004FF00001590141EAD2615001024602
:101D50000B46B2EB0A0863EB0B094FF000024FF0A1
:101D600000034FEA891343EA98634FEA8812B2EB03
:101D7000080463EB09054FF000024FF00003EB008D
:101D800043EA5473E20014461D4614EB0A033B6019
:101D900045EB0B037B604FF000024FF00003D7E9E7
:101DA000004529468B02214643EA915321468A0287
:101DB000104619467B6B0022BB60FA60D7E902230C
:101DC000FEF75EFA02460B461346FB630B4B5B685D
:101DD0001B0C03F0030301335B003B63FA6B3B6BAB
:101DE000B2FBF3F3BB6302E0054BBB6300BFBB6B0D
:101DF00018464037BD46BDE8B08F00BF00380240EE
:101E00000024F40040787D010A22002100F0D4B8BB
:101E1000014B1868704700BF1C00002070B50D4DC5
:101E20000D4C641BA4100026A64209D10B4D0C4C8E
:101E300000F01AFD641BA4100026A64205D170BD57
:101E400055F8043B98470136EEE755F8043B9847B0
:101E50000136F2E7242A0008242A0008242A000870
:101E6000282A000802440346934200D1704703F831
:101E7000011BF9E70EB400B59CB01DAB02900690B3
:101E80006FF00041094807910491094953F8042B68
:101E900005910068019302A900F0F4F8029B00226A
:101EA0001A701CB05DF804EB03B070471C000020F2
:101EB0000802FFFF012B2DE9F04701D0242B06D9A2
:101EC000FFF7A6FF162303600020BDE8F087DFF8C8
:101ED000E4C00D462E4615F8014B14F80C7017F0AF
:101EE0000807F7D12D2C32D12C780127B51C002BF7
:101EF0005BD0102B09D1302C07D12C7804F0DF04F3
:101F0000582C4DD16C781023023507F1004808F1A8
:101F1000FF384FF0000CB8FBF3F9664603FB198A53
:101F2000A4F1300EBEF1090F16D87446A34224DD89
:101F3000BCF1000F1EDBB1451CD301D1A24519DB5A
:101F400006FB03464FF0010C15F8014BE8E72B2C7C
:101F500004BF2C78B51CCAE7A4F1410EBEF1190FDD
:101F600001D8373CE2E7A4F1610EBEF1190F04D8A5
:101F7000573CDBE74FF0FF3CE6E7BCF1000F05DA2A
:101F800022230360464642B930469EE707B17642B7
:101F9000002AF9D0BCF1000F00D0691E1160F3E7F0
:101FA0003024002BB1D10823AFE7302CA5D00A2371
:101FB000ABE700BFE928000813460A46014602487D
:101FC0000068FFF777BF00BF1C0000202DE9F04735
:101FD0008E689E4282460C4690461F4638D88A89B3
:101FE00012F4906F32D025680969A5EB0109656983
:101FF00005EB450505EBD57501334B446D109D424E
:1020000038BF1D46530531D5294600F063FB06460F
:1020100050B90C23CAF80030A38943F04003A381D0
:102020004FF0FF30BDE8F08721694A4600F0BEFA64
:10203000A38923F4906343F08003A3812661656143
:102040004E44A5EB09052660A5603E46BE4200D978
:102050003E4620683246414600F0B6FAA3689B1B14
:10206000A3602368334423600020DBE72A4600F0A6
:10207000A5FB06460028E1D12169504600F0BEFAD2
:10208000C7E700002DE9F04F98468B891B069DB0ED
:1020900007460D4614460ED50B6963B9402100F082
:1020A00019FB2860286120B90C233B604FF0FF30FA
:1020B000D1E040236B610023099320238DF8293060
:1020C000CDF80C803023DFF8A8818DF82A304FF04E
:1020D000010923469A4613F8012B0AB1252AF9D1A2
:1020E000BAEB040B0BD05B46224629463846FFF775
:1020F0006DFF013000F0AA80099A5A4409929AF8BB
:102100000030002B00F0A28000234FF0FF32CDE919
:1021100005230AF1010A049307938DF853301A93AB
:102120005446052214F8011B5148FEF759F8049A49
:10213000D8B9D00644BF20238DF85330110744BFCF
:102140002B238DF853309AF800302A2B15D0079A9C
:10215000544600204FF00A0C214611F8013B303B59
:10216000092B4ED9B0B1079214E0A0EB080309FA8D
:1021700003F313430493A246D2E7039B191D1B6884
:102180000391002BBBBF5B4242F00202079307930F
:10219000B8BF049223782E2B0CD163782A2B35D12B
:1021A000039B1A1D1B680392002BB8BF4FF0FF332F
:1021B00002340593DFF8C8A0217803225046FEF7C9
:1021C0000FF840B14023A0EB0A0003FA00F0049B93
:1021D00003430134049314F8011B26488DF828109A
:1021E0000622FDF7FDFF002838D0234B1BBB039BC5
:1021F000073323F0070308330393099B3344099300
:1022000067E70CFB02320C460120A5E700230134EE
:10221000059319464FF00A0C204610F8012B303A6E
:10222000092A03D9002BC5D00591C3E70CFB012176
:1022300004460123F0E703AB00932A460F4B04A9A1
:102240003846AFF30080421C0646D6D1AB895B0608
:102250003FF52CAF09981DB0BDE8F08F03AB00939C
:102260002A46064B04A9384600F07AF8EBE700BF8F
:10227000E9290008F329000800000000CD1F00082C
:10228000EF2900082DE9F047164699468A680B6940
:10229000DDF820809342B8BF1346336091F84320A5
:1022A00007460C460AB1013333602368990642BFE2
:1022B000336802333360256815F0060506D104F152
:1022C000190AE36832689B1AAB4226DC94F8432073
:1022D000131E226818BF012392062BD404F1430277
:1022E00049463846C04701301ED02368E568326849
:1022F00003F00603042B08BFAD1AA36822690CBFC4
:1023000025EAE57500259342C4BF9B1AED18002607
:102310001A34B5421AD1002008E00123524649463A
:102320003846C047013003D14FF0FF30BDE8F08799
:102330000135C6E7E1185A1C302081F843002244D9
:1023400094F8451082F843100233C7E70123224670
:1023500049463846C0470130E6D00136D9E700008B
:102360002DE9FF470F7E0C9D782F914680460C4645
:102370009A4601F1430207D8622F0AD8002F00F0D5
:10238000D880582F00F0A38004F1420584F84270F1
:102390003AE0A7F16303152BF6D801A151F823F019
:1023A000F92300080D240008892300088923000868
:1023B00089230008892300080D24000889230008C8
:1023C00089230008892300088923000819250008AB
:1023D0003D240008FB240008892300088923000805
:1023E0003B250008892300083D24000889230008B4
:1023F00089230008032500082B681A1D1B682A6022
:1024000004F1420584F842300123A3E020682968E2
:10241000060601F104030AD50E682B60002E03DACC
:102420002D23764284F843305E480A2319E00E6873
:102430002B6010F0400F18BF36B2EFE72B68206812
:10244000191D2960010601D51E6802E04606FBD56C
:102450001E8854486F2F0CBF08230A23002184F8DC
:1024600043106568A560002DA2BF216821F004011A
:1024700021600EB9002D4DD01546B6FBF3F103FBDC
:102480001167C75D05F8017D3746BB420E46F4D99A
:10249000082B0BD12368DE0708D5236961689942B0
:1024A000DEBF302305F8013C05F1FF35521B2261E8
:1024B000CDF800A04B4603AA21464046FFF7E2FEB6
:1024C00001304CD14FF0FF3004B0BDE8F087354803
:1024D00081F845702968236851F8046B29601D064E
:1024E00014D5DF0744BF43F0200323601EB92368DF
:1024F00023F0200323601023B0E7236843F0200378
:1025000023607823284884F84530E3E7590648BF1C
:10251000B6B2E6E71546BBE72B6826686169181D69
:10252000286035061B6801D5196002E07006FBD5EE
:102530001980002323611546BAE72B681A1D2A600B
:102540001D68626800212846FDF74AFE08B1401B5D
:10255000606063682361002384F84330A8E723693F
:102560002A4649464046D0470130ABD023689B07F6
:1025700013D4E068039B9842B8BF1846A4E7012330
:10258000324649464046D04701309BD00135E3688A
:1025900003995B1AAB42F2DCEBE7002504F1190664
:1025A000F5E700BFFA2900080B2A00080A44914207
:1025B00000F1FF3300D1704710B511F8014B03F85B
:1025C000014F9142F9D110BD884210B501EB0204D0
:1025D00002D98442234607D8431EA14208D011F8ED
:1025E000012B03F8012FF8E7024401468A4200D18B
:1025F00010BD13F8014D02F8014DF7E737B500297A
:1026000044D051F8043C0190002BA1F10404B8BF60
:10261000E41800F013F91E4A0198136833B9636097
:10262000146003B0BDE8304000F00EB9A34208D9F1
:10263000256861198B4201BF19685B6849192160DF
:10264000EDE71A465B680BB1A342FAD91168551839
:10265000A5420BD1246821445418A3421160E0D153
:102660001C685B68536021441160DAE702D90C23CF
:102670000360D6E7256861198B4204BF19685B685F
:10268000636004BF491921605460CAE703B030BDDC
:10269000A800002070B50E4E0C463168054611B9F1
:1026A00000F0BCF830602146284600F0B7F8431C23
:1026B0000AD0C41C24F00304A04207D0211A2846E3
:1026C00000F0ACF8013001D14FF0FF34204670BD6E
:1026D000AC0000202DE9F041CD1C25F003050835A4
:1026E0000C2D38BF0C25002D074601DBA94205D96A
:1026F0000C233B6000263046BDE8F0812E4E00F0F2
:102700009DF833681C4634BB29463846FFF7C2FFA4
:10271000431C04464DD134682646002E40D1236820
:102720003146384604EB030800F078F880453AD18A
:10273000216803356D1A25F0030508350C2D38BFC7
:102740000C2529463846FFF7A5FF01302BD023681A
:102750002B4423600EE02268521B1ED40B2A16D98C
:102760006119A342256018BF5960636808BF3160D2
:1027700062514B60384604F10B0600F065F826F014
:102780000706231DF21AB6D09B1BA350B3E762685D
:10279000A3420CBF32605A60ECE723466468B2E79C
:1027A00034467668B9E70C233B60384600F04CF8B5
:1027B000A1E72560DEE700BFA80000202DE9F04179
:1027C000804614460E4621B9BDE8F0411146FFF798
:1027D00081BF2AB9FFF712FF25462846BDE8F081E0
:1027E00000F038F88442074602D8B4EB500F12D8F4
:1027F00021464046FFF76EFF05460028EDD0BC425B
:102800002246314628BF3A46FFF7D0FE31464046C1
:10281000FFF7F4FEE1E73546DFE7000038B5064D87
:102820000023044608462B60FEF726FB431C02D11A
:102830002B6803B1236038BDB0000020014800F0D0
:1028400011B800BFB4000020014800F00CB800BF70
:10285000B400002051F8043C181F002BBCBF0B58DB
:10286000C018704770477047F8B500BFF8BC08BC87
:102870009E467047F8B500BFF8BC08BC9E4670473E
:10288000456E746572204E756D313A2020202020EF
:1028900020200000456E746572204F70203A202081
:1028A0002020202020000000596F752057616E7491
:1028B0003A000000456E746572204E756D32203A04
:1028C0002020202020000000526573756C74203A8F
:1028D00020253032640000000000000000000000ED
:1028E00001020304060708090020202020202020E0
:1028F00020202828282828202020202020202020B0
:1029000020202020202020202088101010101010BF
:10291000101010101010101010040404040404040B
:1029200004040410101010101010414141414141A5
:102930000101010101010101010101010101010187
:102940000101010110101010101042424242424297
:102950000202020202020202020202020202020257
:1029600002020202101010102000000000000000FF
:102970000000000000000000000000000000000057
:102980000000000000000000000000000000000047
:102990000000000000000000000000000000000037
:1029A0000000000000000000000000000000000027
:1029B0000000000000000000000000000000000017
:1029C0000000000000000000000000000000000007
:1029D00000000000000000000000000000000000F7
:1029E000000000000000000000232D302B200068B4
:1029F0006C4C0065666745464700303132333435EC
:102A00003637383941424344454600303132333459
:0C2A100035363738396162636465660052
:082A1C0094D8FF7F01000000C7
:042A2400C5010008E0
:042A2800A101000800
:102A2C00080010002000400080000001000200049B
:102A3C000024F40010000000010000002000002021
:102A4C00000000000000000000000000000000007A
:102A5C00000000000000000000000000000000006A
:102A6C00000000000000000000000000000000005A
:102A7C00000000000000000000000000000000004A
:102A8C00000000000000000000000000000000003A
:102A9C00000000000000000000000000000000002A
:0400000508000F09D7
:00000001FF
